:020000040000fa
:080000000002040000000000f2
:020000040000fa
:04000800f4030000fd
:020000040000fa
:04000c00f4030000f9
:020000040000fa
:04001000f4030000f5
:020000040000fa
:04001400f4030000f1
:020000040000fa
:04001800f4030000ed
:020000040000fa
:04001c00f4030000e9
:020000040000fa
:04002000f4030000e5
:020000040000fa
:04002400f4030000e1
:020000040000fa
:04002800f4030000dd
:020000040000fa
:04002c00f4030000d9
:020000040000fa
:04003000f4030000d5
:020000040000fa
:0400340002030000c3
:020000040000fa
:04003800f4030000cd
:020000040000fa
:04003c00f4030000c9
:020000040000fa
:04004000f4030000c5
:020000040000fa
:04004400f4030000c1
:020000040000fa
:04004800fa020000b8
:020000040000fa
:04004c00f4030000b9
:020000040000fa
:04005000f4030000b5
:020000040000fa
:04005400b0030000f5
:020000040000fa
:04005800860300001b
:020000040000fa
:04005c00620300003b
:020000040000fa
:04006000f4030000a5
:020000040000fa
:04006400f4030000a1
:020000040000fa
:04006800f40300009d
:020000040000fa
:04006c00f403000099
:020000040000fa
:04007000f403000095
:020000040000fa
:04007400f403000091
:020000040000fa
:04007800f40300008d
:020000040000fa
:04007c00f403000089
:020000040000fa
:04008000f403000085
:020000040000fa
:04008400f403000081
:020000040000fa
:04008800f40300007d
:020000040000fa
:04008c00f403000079
:020000040000fa
:04009000f403000075
:020000040000fa
:04009400380300002d
:020000040000fa
:04009800f40300006d
:020000040000fa
:04009c00f403000069
:020000040000fa
:0400a000f403000065
:020000040000fa
:0400a400f403000061
:020000040000fa
:0400a800f40300005d
:020000040000fa
:0400ac00f403000059
:020000040000fa
:0400b000f403000055
:020000040000fa
:0400b400f403000051
:020000040000fa
:0400b800f40300004d
:020000040000fa
:0400bc00f403000049
:020000040000fa
:0400c000f403000045
:020000040000fa
:0400c400f403000041
:020000040000fa
:0400c800f40300003d
:020000040000fa
:0400cc00f403000039
:020000040000fa
:0400d000f403000035
:020000040000fa
:0400d400f403000031
:020000040000fa
:0400d800f40300002d
:020000040000fa
:0400dc00f403000029
:020000040000fa
:0400e000f403000025
:020000040000fa
:0400e400f403000021
:020000040000fa
:0400e800f40300001d
:020000040000fa
:0400ec00f403000019
:020000040000fa
:0400f000f403000015
:020000040000fa
:0400f400f403000011
:020000040000fa
:0400f800f40300000d
:020000040000fa
:0400fc00f403000009
:020000040000fa
:04010000f403000004
:020000040000fa
:04010400f403000000
:020000040000fa
:04010800f4030000fc
:020000040000fa
:04010c00f4030000f8
:020000040000fa
:04011000f4030000f4
:020000040000fa
:04011400f4030000f0
:020000040000fa
:04011800f4030000ec
:020000040000fa
:04011c00f4030000e8
:020000040000fa
:04012000f4030000e4
:020000040000fa
:04012400f4030000e0
:020000040000fa
:04012800f4030000dc
:020000040000fa
:04012c00f4030000d8
:020000040000fa
:04013000f4030000d4
:020000040000fa
:04013400f4030000d0
:020000040000fa
:04013800f4030000cc
:020000040000fa
:04013c00f4030000c8
:020000040000fa
:04014000f4030000c4
:020000040000fa
:04014400f4030000c0
:020000040000fa
:04014800f4030000bc
:020000040000fa
:04014c00f4030000b8
:020000040000fa
:04015000f4030000b4
:020000040000fa
:04015400f4030000b0
:020000040000fa
:04015800f4030000ac
:020000040000fa
:04015c00f4030000a8
:020000040000fa
:04016000f4030000a4
:020000040000fa
:04016400f4030000a0
:020000040000fa
:04016800f40300009c
:020000040000fa
:04016c00f403000098
:020000040000fa
:04017000f403000094
:020000040000fa
:04017400f403000090
:020000040000fa
:04017800f40300008c
:020000040000fa
:04017c00f403000088
:020000040000fa
:04018000f403000084
:020000040000fa
:04018400f403000080
:020000040000fa
:04018800f40300007c
:020000040000fa
:04018c00f403000078
:020000040000fa
:04019000f403000074
:020000040000fa
:04019400f403000070
:020000040000fa
:04019800f40300006c
:020000040000fa
:04019c00f403000068
:020000040000fa
:0401a000f403000064
:020000040000fa
:0401a400f403000060
:020000040000fa
:0401a800f40300005c
:020000040000fa
:0401ac00f403000058
:020000040000fa
:0401b000f403000054
:020000040000fa
:0401b400f403000050
:020000040000fa
:0401b800f40300004c
:020000040000fa
:0401bc00f403000048
:020000040000fa
:0401c000f403000044
:020000040000fa
:0401c400f403000040
:020000040000fa
:0401c800f40300003c
:020000040000fa
:0401cc00f403000038
:020000040000fa
:0401d000f403000034
:020000040000fa
:0401d400f403000030
:020000040000fa
:0401d800f40300002c
:020000040000fa
:0401dc00f403000028
:020000040000fa
:0401e000f403000024
:020000040000fa
:0401e400f403000020
:020000040000fa
:0401e800f40300001c
:020000040000fa
:0401ec00f403000018
:020000040000fa
:0401f000f403000014
:020000040000fa
:0401f400f403000010
:020000040000fa
:0401f800f40300000c
:020000040000fa
:0401fc00f403000008
:020000040000fa
:04020000f403000003
:020000040000fa
:04020400f4030000ff
:020000040000fa
:04020800f4030000fb
:020000040000fa
:04020c00f4030000f7
:020000040000fa
:04021000f4030000f3
:020000040000fa
:04021400f4030000ef
:020000040000fa
:04021800f4030000eb
:020000040000fa
:04021c00f4030000e7
:020000040000fa
:04022000f4030000e3
:020000040000fa
:04022400f4030000df
:020000040000fa
:04022800f4030000db
:020000040000fa
:04022c00f4030000d7
:020000040000fa
:04023000f4030000d3
:020000040000fa
:04023400f4030000cf
:020000040000fa
:04023800f4030000cb
:020000040000fa
:04023c00f4030000c7
:020000040000fa
:04024000f4030000c3
:020000040000fa
:04024400f4030000bf
:020000040000fa
:04024800f4030000bb
:020000040000fa
:04024c00f4030000b7
:020000040000fa
:04025000f4030000b3
:020000040000fa
:04025400f4030000af
:020000040000fa
:04025800f4030000ab
:020000040000fa
:04025c00f4030000a7
:020000040000fa
:04026000f4030000a3
:020000040000fa
:04026400f40300009f
:020000040000fa
:100400008f4c21000eff2d000e018800000000001f
:10041000000020000000e000020032000001200087
:100420002002880014000700f10007000000e0002f
:1004300003003a00a04c2300010020000200370016
:100440000000200001002000810f70000100320038
:100450000f000700000020000000e0000200320052
:1004600000000200000000006c1702000000000005
:100470000040da000000fe00200020000000e00044
:1004800002003200100020009001880000000600e9
:10049000a1028800800478000000eb001f003700f4
:1004a000e284440054a0b4009905ba00e2844400f8
:1004b00054a0b4009906ba00e284440054a0b400e9
:1004c0000006eb00476fde00fd07b200ae018800ba
:1004d000636ce10003003a000ad801000000eb0061
:1004e0000e003700606ce10008003a00004deb00a0
:1004f0000a05e800020039003420ec000af0a000f0
:100500008b05e900f9ff3e00040037006168e10057
:10051000010032000086eb000b00070019c7ba008b
:100520000e04e0001905ba0003003a000a00e000da
:10053000dbff3a0000000600fe07b200ae028800b2
:100540008a047800f5ff37000cd0a300e20f4d00bd
:100550001c003b0089027800354dba000a05e8000e
:10056000020039003420ec000af0a0008b05e900fd
:100570000f003200254dba000a05e80002003900dc
:100580003420ec000af0a0008b05e90008003200de
:100590000c00e0000600320015cdba000a05e800a4
:1005a000020039003420ec000af0a0008b05e900bd
:1005b0008984e80054a0b4000b00e000e2ff3a0098
:1005c000000006009902ba00055d78008b05e9007d
:1005d000f7ff3200c82ade00055d78008b05e900d0
:1005e000f3ff32000c00e000f1ff320019ddba0029
:1005f000eeff37000000fa000108a9000080fa00b1
:10060000004006003600f800809fbe00829fbe00ba
:10061000849fbe00869fbe000000fa000068a9000b
:1006200074140700cb1807001513070063120700a6
:10063000908380000000e800908388009083800011
:10064000ea0f500002003400fa1307007230ef0086
:10065000840f07000080fa004f03be004f02be0067
:100660004f01be004f00be003600f90000400600fa
:100670003600f800809fbe00829fbe00849fbe00af
:10068000869fbe000000fa000368a9007083800006
:100690008183800061004000e08048007083880012
:1006a00081838800b00b07000080fa004f03be0072
:1006b0004f02be004f01be004f00be003600f900e1
:1006c00000400600801f78000000fa0001a8a90081
:1006d00000188000e0a5880010188000f0a58800b0
:1006e0002018800000a688004018800010a688000e
:1006f0003018800020a6880010c0b30089f0b70031
:100700000080fa004f007800004006003600f80034
:10071000809fbe00829fbe00849fbe00869fbe0059
:100720000000fa000188a90001848000f0838000a5
:10073000808f50000200320086170700010037004a
:100740008270ef000080fa004f03be004f02be002f
:100750004f01be004f00be003600f9000040060009
:100760003600f800809fbe00829fbe00849fbe00be
:10077000869fbe000000fa000168a90010118000e9
:10078000640060000000e000010032002242a90085
:1007900010118000620060000000e00006003200de
:1007a0002222a900050037003011800000407800a7
:1007b000be18070001003700000000001011800083
:1007c000610060000000e000f7ff3a000080fa00de
:1007d0004f03be004f02be004f01be004f00be00df
:1007e0003600f900004006000040da000000fe007c
:1007f0000000050014002000ad033700f4ff2f00b7
:10080000ab0337000001be003f0007000470a700e3
:1008100003f0a1006509b100160032000d0035009b
:100820006828e10006003500f0ff2f00f1ff2700e7
:100830000300e00013003b00010028000000050059
:1008400000004000818048008502e900fcff3a007a
:1008500008003700f88f420002003c008000eb00e7
:10086000000005008100d1000080d3008502e8006f
:10087000fcff3a000300e00002003b0060001000b3
:10088000e0801800000006000001be001e00070006
:100890000470a70003f0a10003f8a30013003a00be
:1008a0006509b10010003200090035006928e10037
:1008b0000200350001002800000005000000400093
:1008c000818048008502e900fcff3a000000060034
:1008d000f88f4200050035008100d1000080d30070
:1008e0008502e800fcff3a00000006008000eb00f3
:1008f000000005004f89de00820178008703370081
:100900006011b80095033700c70ade00f107b20096
:10091000f50fb20008003200e1cf420002003200c1
:100920000170a00024000500810f7000010032005a
:100930000408050044000500810f700002003a0021
:10094000140005008502e9000000400081c0480055
:10095000fcff3b000170a0002400050007f8270001
:10096000078361000638e10004003a00f707200021
:10097000878361008703710001003a0003f0a20041
:10098000889fbe008a9fbe008c9fbe00470ade0083
:100990000480a100c71ade000580a100070028001e
:1009a0000785600087856100f70f20000720e100c0
:1009b0009e0032000728e1009c003200010678000a
:1009c0000400e000b4003200f707200087806000d8
:1009d0000170a0000500e000c0003200f707200011
:1009e000878161000370a000050652000f003a00e5
:1009f0000b50e1000b0032000308e10002003a0056
:100a00000200e1007e00320002045000838458009e
:100a1000040031000001fd008101fd008402fd00a1
:100a20008a05fd006044b800210037000520e10080
:100a300005003d000001fd008101fd008402fd0074
:100a40008a05fd00050652007a60e10005003500c8
:100a50000170a1004722dd00848070008a80700050
:100a6000630037006044b800ef02660007ff2f0004
:100a7000070666000500e00006003400f08312005f
:100a80008714dd000511de00071bdd000601710083
:100a90008519de007060e10005003500090478006a
:100aa00082047800030178008001eb007006560094
:100ab0000b50e10003003a00020040008380480030
:100ac0000400370060041400e0841c000200580099
:100ad000838058000188a300060032008100d10005
:100ae0000080d3008984d3000884d3000402e80086
:100af000270037000178a30025003a000100e0003c
:100b0000030032008186cf00698656000a00370054
:100b10008c0020000000e00004003a00090078008a
:100b2000880478000004eb00700252008086cf0039
:100b30000d0646000c06e9007060e1000600350075
:100b40008000780009007800880478000004eb0039
:100b500070065600700252000c00e0000c003400d9
:100b60008c08dd00f00316000703de0086807000ad
:100b70000c00dd00074bde00060070008c4cdd0031
:100b80000743de00868474000c44dd000c02520032
:100b90006120e100200035006101600007002800ad
:100ba00087816400f7ff27008783640007037400d0
:100bb0000300e000060032008203730004003200ec
:100bc0000000e800e08048000188a3000e003a0021
:100bd000f70f20000720e1004a003d000170a1004e
:100be0004722dd00810072008a8070000000be0094
:100bf0004f06be004f05be004f04be0000000600b9
:100c00006000b800faff37008100d1000080d300f7
:100c10000402e800eeff3700040178008901740047
:100c2000a10107008a807000f1ff3700f70107007b
:100c3000070278000001fd008101fd00f3010700bb
:100c400087027800850372000778a3000400320051
:100c50000001fd008101fd0006020700e4ff3700ee
:100c6000850362000768a300080032000b50e10012
:100c700003003200f0ff2f00f1ff2700dcff3700f8
:100c80000001fd008101fd00d9ff37000468a300c9
:100c9000d7ff3200faff3700f8ff27008883600093
:100ca0000b003a000000e00009003a0083036400f2
:100cb00082837300020032000200be00ccff3700c6
:100cc0000b50e100ceff3a000200be00c8ff370023
:100cd00014002000810064003eff3700f8ff270069
:100ce0008883610004003a000200e00002003a003c
:100cf0008c007800beff37001500200083016400df
:100d000039ff370001f8270000002000810075003e
:100d1000b7ff3700889fbe008a9fbe008c9fbe0031
:100d20001b0020000202be000586680006002800a5
:100d3000060666004709de00f20fb20082003200ac
:100d40000243e80080003200c729de00f30fb20042
:100d50007d0032000343e8007b003200f107b2005f
:100d60000170a000f507b2000570a000c708dd0003
:100d70004903de00868070004700dd00c72add00e1
:100d80004923de00868272004722dd000305510000
:100d90000403500085835800030031000000400028
:100da000818048000a05e9008c1f78008a9fbe00f8
:100db00004005000858058000402420085824a00e9
:100dc00000004000818048000005eb000004be00e8
:100dd0006033b8000406be000d48e1005600310043
:100de000110009004dccd8000c01b8000d02b8006c
:100df0008481410060824a008283530003045c00c6
:100e000084845c0060055d000a00e00025003a0073
:100e1000800578000d40e10049003100880078002d
:100e200007007800110009004d88d8000c01b800b7
:100e30000d02b8008481410060824a006003110005
:100e400083835b0004045c00e0845c000900e00034
:100e500021003a004f01be000300e0002b003200e9
:100e6000e3016000070673008c817100010032000d
:100e7000640070004200de004e5edd000c00700079
:100e8000c258de0001e0a00083010700cf01780016
:100e9000818071004f06be004f05be004f04be00aa
:100ea000000006008c8343000d044c00e0844c00dd
:100eb00060054d000000e9000a00e000d4ff3200a8
:100ec0008c8343000d044c00e0844c0060054d0011
:100ed0000000e900ceff37000c0343008d834b0078
:100ee00060044c00e0844c000000e9000900e000d0
:100ef000d8ff32000c0343008d834b0060044c008c
:100f0000e0844c000000e900d2ff37004200de0020
:100f10004e5edd000c007000c258de0001e0a00053
:100f2000cf0178000300e000daff3200600010001b
:100f3000e0801800d7ff3700f0ff2f00aaff37002e
:100f4000f0ff2f00b9ff37000404be002f01070097
:100f5000870678000004fd008104fd002b010700d6
:100f6000078366000678a300030032000960a7002b
:100f70000800be002c0037000d78a30002003200ec
:100f80000800be00280037000778a30026003a00ba
:100f900001f0a10009f0a1000668a30003003200df
:100fa000f1ff2700f0ff2f00baff37000d68a30004
:100fb000030032000800be008c807000b5ff3700cf
:100fc0000768a30007003a000648a30003003200a8
:100fd000f1ff2700f0ff2f00aeff37000d48a30000
:100fe000030032006000b8008c807000a9ff370059
:100ff0000748a3000400320001f827000000200089
:101000008c807000a3ff3700760107000004fd000c
:101010008104fd0002057800720107000802be008d
:101020008a01780059ff37000160a00012022000f9
:101030005284880097ff37000100e0001200320060
:101040000500e00010003200889fbe008a9fbe00ad
:101050008c9fbe000006eb0001f8a30003003200e5
:1010600060001000e08018000cf0a00005f8a3005c
:101070000300320060021200e0821a000cf0a200ad
:101080008005eb0041ff37006000b800020005005a
:10109000038368000700280007036300470ade0097
:1010a0000480a100c71ade000580a100f70f200010
:1010b0000720e100420032000728e1004000320032
:1010c000889fbe008a9fbe008c1f7800f107b20087
:1010d000f307b2000400e000640032000170a000d9
:1010e0000500e000680032000370a00085054200a2
:1010f000eb07b1000204b8000302b8008484440086
:1011000060854a00020ab800848444000a854a00c7
:10111000030ab80004054500040033000804d000a9
:101120008984d2000a85d2008b05e9006158e1006c
:101130003d00350002102000090161000308200075
:1011400089816100f70720008783640008867300a7
:10115000c84cde00c853dd00878474004855de00ab
:101160000300e00006003200820376000400320033
:101170008904e80060054d000a88a3000c003a00cd
:10118000f70f20000758e10044003d000a70a1005d
:10119000c75ddd000a8575008a00730009007800cc
:1011a0004f0678004f05be004f04be000000060049
:1011b0000a05d1008984d3008b05e800f0ff3700d1
:1011c000881f780006047800900007000702780066
:1011d0000001fd008101fd008c00070087027800fe
:1011e000850372000778a300050032000001fd00ae
:1011f0008101fd009f0007004f04780000000600f9
:10120000850372000748a30003003200f0ff2f009f
:10121000f1ff2700f8ff37000000200001f8270049
:1012200088807000f4ff3700880178004848dd00ae
:10123000808171004848de00c850dd000100700068
:10124000c850de00060478000b0178001600070085
:1012500088807000d2ff37000500e00005003200f2
:10126000170020003a0007009dff3700810370003f
:10127000f9ff3a00860078004f0678004f05be005f
:101280004f04be000000050083037100f9ff320027
:10129000270020002e00070094ff370001f82700e8
:1012a00086807000f4ff37000100e0002600320065
:1012b000610111007810e10023003c006022b800b9
:1012c0007010e10004003500800278000100780011
:1012d0008000eb00700151000200e00009003400c2
:1012e00070031100062add00822ade008603dd007d
:1012f000878272000200de00860bdd0007007000ae
:101300008208de0084817100f4ff270004826200fd
:101310008481710004002800848262006102600000
:1013200005f0a600000006000482710007003200ec
:101330000000e800e0804800000006000002be0057
:101340006000b800efff37006000b8000000060042
:10135000889fbe000004eb006138e10016003a00ef
:101360000100e00008003a00c800de004800dd008f
:10137000880020000100e00003003a00c800de0001
:101380004800dd00680444008184cf00e9845400f3
:10139000060034008908dd00f08314008703de00b6
:1013a000878070000900dd00090444006102140018
:1013b0004f04be00000006000300e00008003a00f1
:1013c000c811de004811dd00880020000300e000a5
:1013d00003003a00c811de004811dd006804440033
:1013e0008384cf00e9845400060034008919dd00ad
:1013f000f08314008713de00878171000911dd007e
:1014000009044400e1021400e9ff3700270020002e
:1014100001f0a70017002000470bde00f60fb20016
:10142000040032000643e8000a0032004702b3001d
:101430000000060001037800f607b2000603700002
:1014400002003a000703b300000006008702b30061
:101450000000060001037800f607b20006037000e2
:10146000020032000770a000000006000760a00024
:10147000000006000478a300040032000578a300f1
:10148000030032000168a30001003a000200be0020
:101490000160a000000006008101700027003200fa
:1014a0008002eb0001f8a30003003200600010008e
:1014b000e080180015002000f4072000020242001e
:1014c00020003400f703200087036000060420009a
:1014d0000003630002082000000161004700de00f5
:1014e000c909dd0000807100c708de000600e000c9
:1014f0000800320087037100060032001000b000bf
:101500000180b0000188a30002003200c108de00a3
:101510000402e800f107b200f30f20000320e1000d
:1015200003003d004722dd008100720029003700e2
:1015300001f827000000eb00260037006000b8002b
:1015400000000600680212007f20e1000200340063
:101550006000b8001f0037006011b8007020e10083
:101560000400350080017800010078008000eb0065
:10157000700252000400e00009003400f003120081
:101580000719dd008419de000703dd008681710084
:101590000400de00070bdd00060070008408de009a
:1015a000f7ff27008383630087037100060028008c
:1015b00003036300070032000700e00003003a0065
:1015c0006101600002817300020032001000b0006f
:1015d0000180b0000500a6000000060001f0a00098
:1015e000000006004f0ade004709de00f107b200e6
:1015f000f20fb2000b003200f207b1000170a00040
:10160000c708dd00c901de00838070004700dd00ef
:101610000400a6000000060060001000e080180032
:1016200000000600810f700001003a000000060073
:101630008182cf000500e00010003e008082cf00d4
:10164000ee8242007028e1000400390007003e00ed
:10165000800078000000eb000e003700708312005d
:101660008600de000500dd000a00370070835200ae
:101670008600dd000000eb0006003700e282520029
:101680008508dd00708312000603de00868070008e
:101690000500dd007507b0000501ea000400a600a2
:1016a0000000060060001000e08018000000060046
:1016b000889fbe008a9fbe00841f78007c000700c0
:1016c0004f00780011003300f0ff2f00838f6c0073
:1016d00006003b00040565000a00a700080037006b
:1016e00009f0a6001000200008003700820f540007
:1016f000838f5c00030039001000200001003e00d1
:101700000000200009f0a7000000ea004f05be001d
:101710004f04be000000e00000000600881f7800b3
:10172000030478000300e00007003d0060001000a3
:10173000e080180060011900e081190002003b0000
:1017400001f02d00030037000400070008f0a70097
:1017500001f0a0004f04780000000600889fbe0042
:101760008a9fbe0000827000040271000482710032
:10177000260032000004be000200be006011b80066
:101780006b092000950220000182cf000a00390079
:101790000541b1000082cf00070039000541b100ca
:1017a0000982cf00040039000541b1000882cf0052
:1017b000010039000541b10005425200120032001b
:1017c0000a003b0082817100610164008100d10048
:1017d0000080d3008984d3000884d3008b05e800ff
:1017e0000442e800f7ff3a0007003700080444000d
:1017f00089844c0000004800818048008b05e90086
:101800000442e900f9ff3a00030007004f05be005b
:101810004f04be00000006008100200061805500da
:101820000b003d000b00200061fe2f000100e100d5
:101830001d00340082817100610164008904d100bf
:101840000884d3000000e800faff3a00710020008d
:1018500061006400030070000200600009003200b3
:1018600061044400e0844c000988a50005003200b2
:101870008b05e8006808e10002003a008904d10005
:101880000884d300f20f20000258e10005003d005b
:10189000c75ddd00f907b200898075000800780097
:1018a000000006000bf827008b0078000000050000
:1018b0000004be0014fc07000003be000405be00c7
:1018c0000200be0010fc0700844f750000000600f7
:1018d000000006000800fa00889fbe008a9fbe0034
:1018e0008c9fbe000004be000200be00e2b79f0055
:1018f000f3b79f00f6ff07008102780005f0a10012
:10190000000278000c0020000df827006fb197004e
:10191000ffb197008c0f52008d8f5a000a003e00d5
:101920000800be00eaff07008102780005f0a10070
:10193000000278006fb19700ffb197008c0f520042
:101940008d8f5a00030036000800be000cfc070013
:10195000980037000203be000000200001f82300b9
:10196000800f5300818f5b0003003a000800be0027
:10197000980007008f0037000802be004e3dde00d1
:101980000b0020006000b800620065004f4dde00d3
:101990000b0020000a0570008b8570008500780020
:1019a00001f0a10008007800e00f5000e08f58001f
:1019b00007003a00e20f5500e08f5d00330032006f
:1019c000e30f5500e08f5d007b003a0032003700e6
:1019d0008702780005f0a10006027800e00f5200af
:1019e000e08f5a003b0032008c0f52008d8f5a005e
:1019f0002c003a00840f5000858f580018003a00e0
:101a0000e20f5500e08f5d0009003200e30f550042
:101a1000e08f5d0009003200e10f5500e08f5d00ae
:101a20005b003200b8fd200099f42300620037000b
:101a300002002000030424000200370002002000fe
:101a400003042c00b0fd20009104240090fd070049
:101a50000200200003e823008dfd07005500370039
:101a6000e20f5500e08f5d0008003200e30f5500e3
:101a7000e08f5d00080032006044b800e10f5500bf
:101a8000e08f5d004c003a0044003700b8fd2000b4
:101a90009904240048003700b8fd200099042c0068
:101aa000450037000600200007d020000403430053
:101ab00085834b0086bf9f0097bf9f00800f530018
:101ac000818f5b00030039008c0f50008d8f580010
:101ad00005003a000a08a30033003200b8fd2000d8
:101ae00099fc2b00340037006033b80062036500b6
:101af000e00f5300e08f5b00080032000c00200074
:101b00000dd020000003460081834e006000b80025
:101b1000840f5300858f5b00040039000800be006d
:101b20007cfc07007c0107002a000700e10f55003c
:101b3000e08f5d00050032001e003900e20f550005
:101b4000e08f5d000b003a00030037000004be0088
:101b500009f0a20018003700e2d22b00b33b2300ab
:101b600087fb07000001be00b0fd200091042400a7
:101b700005003700e2d22b00b33b230080fb0700b7
:101b8000b2fd20009304240074fb07000900370015
:101b9000b8fd200099f42b00070037000800200052
:101ba0000900280004003700b8fd200099fc23003c
:101bb000010037000004be000800be004f06be0052
:101bc0004f05be004f04be000080fa000000060072
:101bd000000006000c00fa00889fbe008a9fbe002d
:101be0008c9fbe000004be004f09de0003002000f1
:101bf000e2b79f00f3b79f00810678000df0a100c7
:101c000000067800f0ff2f00f1c72400800f560077
:101c1000818f5e00100036000800be00ecff070058
:101c20008101780003f0a10000017800000020008d
:101c300001f82700800f5100818f5900b7003e0046
:101c40000200200003382000a0fd200091fc2300aa
:101c50004bfb0700a8003700f0ff2f00f1ed230039
:101c6000800f5600818f5e0011003e000085eb0062
:101c7000f0ff2f00f1972300800f5600818f5e0048
:101c800055003e00f0ff2f00f1072000800f5600a6
:101c9000818f5e00a1003e000801be000800be006a
:101ca000fbfc0700c0b79f00d1b79f009b00370027
:101cb0000800be00180107000004be00f0ff2f005e
:101cc00071f92300800f5600818f5e0025003e00d1
:101cd000f0ff2f00f1f22300800f5600818f5e008d
:101ce00011003e000801be000800be0024fb0700f2
:101cf0000200200003f8230018fb07000005be00c7
:101d000002002000030024000800be001cfb0700a6
:101d10000001be000a00be00fefb07000004be007a
:101d20000005eb002c0037000200200003f8230020
:101d30000800be0009fb07000005be0002002000ed
:101d400003f823000800be000dfb07000001be00e1
:101d50000a00be00effb07000004be001a002000ce
:101d60001d003700f0ff2f00b1012400800f560046
:101d7000818f5e0012003e000200200003fc230061
:101d80000800be00f5fa07000005be0002002000b2
:101d900003fc23000800be00bdfc07000200200079
:101da00003f82300f6fa07000001be000a00be0097
:101db000d8fb07000004be002a0020000600370000
:101dc0000801be000000200001f82b00d1fb070035
:101dd0000004be003a0020000801be000800be005a
:101de000abfc07000002be000001be0084bf9f00e4
:101df00095bf9f00a6fc07000006be0052c22a0045
:101e0000c3d72300a2fc0700d2502f0013e1230008
:101e1000dbfa07000001be000c00be009cfc0700be
:101e200092aa2a00a3ea2300d5fa07000001be0007
:101e30000fba97009fba97000400be0094fc0700f9
:101e40000002be0072242100a3dd2b000c00be00a6
:101e500084bf9f0095bf9f008dfc070082a92c00c6
:101e6000c3e42300bdfa07000001be000c00be0061
:101e700087fc07000001be000fba97009fba9700c9
:101e8000e10f450009003a000400be00bcfa07005b
:101e90000001be000800be007dfc07000001be007e
:101ea0000800be00adfa07001b0037004255dd00f8
:101eb000cc4921000a0646000400be00b0fa070023
:101ec0000001be000800be0071fc0700c24a2100ec
:101ed0000a0541001a0178009a0190009ffa070054
:101ee0000801be009dfa07000001be001c0078003a
:101ef0009c00900099fa07006fb19700ffb197001e
:101f0000e00f5100e08f5900030032000004be00d2
:101f100009f0a200010037000004be000800be0066
:101f20004f06be004f05be004f04be000080fa0001
:101f3000000006000800fa000002be0085017800db
:101f400003f0a10000017800a6fd200097f4230013
:101f5000860f5100878f59000d003e00f4ff2f00bf
:101f6000f5972300840f5100858f59005a003e00d9
:101f70000200200003b8270081fa0700e0bf9f009d
:101f8000f1bf9f000000200001f82300600037002f
:101f90004f0ade0005002000163d2500b70724008b
:101fa000860f5100878f590019003e0036be2c0065
:101fb00067012400860f5100878f59000a00360000
:101fc0000400e00004003200b2fd2000930424006d
:101fd0006bfa070048003700b2fd2000930424008c
:101fe0005efa0700440037000400e00004003200fd
:101ff000b2fd200093fc230061fa07004300370084
:102000000001be00b0fd200091fc23001900370044
:10201000561d2300270e2400860f5100878f59007c
:1020200016003e00f6dd2e00f70a2400860f510050
:10203000878f59000a0036000400e00004003200d7
:10204000b2fd2000930c24004dfa07002200370057
:10205000b2fd2000930c240040fa07001e00370058
:102060000400e0000100320001f0a20042be2c009a
:102070006309240039fa070024003700f4ff2f0019
:10208000f5f72700840f5100858f590003003600b3
:102090000001be0031fa07001d00370068815700bb
:1020a000cf0207006011b80063016000e10f51002a
:1020b000e08f59000a003200e20f5100e08f590012
:1020c0000b003200e00f5100e08f59000d003a0084
:1020d0004fb89700dfb89700930207000c00370055
:1020e0004fb89700dfb8970001f0a2000700370053
:1020f0004fb89700dfb897008b02070001f0a200ed
:10210000030037004fb89700dfb897000d030700b2
:102110000080fa00000006000001be008300780085
:1021200001f0a10002007800000006000000060097
:102130000400fa00889fbe008a9fbe008c9fbe00ec
:102140000005be000204be00f8ff07000006be0046
:102150008d00780001f0a1000c0078000200200042
:1021600003f82700820f5000838f58001d003e00a7
:102170000800be0082bf9f0093bf9f00ebff0700d7
:102180008102780005f0a100000278000fb99700e5
:102190009fb99700820f5200838f5a0010003e00b3
:1021a0004feade00840278004f89de008201780069
:1021b000820f5200838f5a0004003200e00f560055
:1021c000e08f5e0006003d00060037000801be00fb
:1021d0000a00be0087f907000000e000010035009a
:1021e0000a04be000800be004f06be004f05be0038
:1021f0004f04be000080fa00000006000000060048
:102200000400fa00889fbe008a9fbe008c9fbe001b
:102210000005be000204be00f8ff07000006be0075
:102220008d00780001f0a1000c0078000200200071
:1022300003f82700820f5000838f58001d003e00d6
:102240000800be0082bf9f0093bf9f00ebff070006
:102250008102780005f0a100000278000fb9970014
:102260009fb99700820f5200838f5a0010003e00e2
:102270004feade00840278004f89de008201780098
:10228000820f5200838f5a0004003200e00f560084
:10229000e08f5e0007003d00050037000801be002a
:1022a0000a00be0053f907000000e00001003d00f5
:1022b0000a04be000800be004f06be004f05be0067
:1022c0004f04be000080fa00000006000000060077
:1022d0000400fa00889fbe008a9fbe008c9fbe004b
:1022e0000004be000205be000206410083864900cc
:1022f000e00f5600e08f5e00140032000200be00c6
:1023000082bf9f0093bf9f00f0ff0700810278000b
:1023100005f0a100000278000000200001f827006d
:102320000fb997009fb99700800f5200818f5a0014
:1023300006003e000802be00474bde0007002000fa
:102340000680fb00e14f430005003a000800be0094
:102350004ffb07000001be006efa070009003700be
:102360000801440089814c008c0f51008d8f590069
:1023700006003e0074003a006011b8000800be007c
:1023800043fb07000004be006f0037000000e000c0
:1023900013003a004949dd00c741de0083017100a6
:1023a0004941dd00030037000000e900020141005f
:1023b00083814900e00f5100e08f5900faff3d0092
:1023c000e10010000401be008100e90003003300b9
:1023d0000201410083814900fbff37000400370000
:1023e00085017800f307b200080178000370a000af
:1023f000475bde000700200086007800f10fb20086
:1024000012003a00495bdd00c753de00870373000a
:102410004953dd00030037008100e9000603430053
:1024200087834b00e00f5300e08f5b00faff3d0015
:10243000618310000603e900030033000a0545002c
:102440008b854d00fbff3700100037008b037800b1
:10245000f707b2000a0378000605be000b70a00063
:102460000a003700e00f5300e08f5b0004003500e6
:10247000e00f5300e08f5b00bfff32000601be009b
:1024800002014100838149000000e9000a03510074
:102490008b835900810f5000f2ff3c00e00f530086
:1024a000e08f5b0003003d00090037000601be001d
:1024b00007003700e00f5300e08f5b00fbff3a009e
:1024c000adff370002014100838149000000e900af
:1024d000471bde0007002000e00f5300e08f5b0089
:1024e000f8ff32000000e0000a003400060020007f
:1024f00007f82f000201430083814b00cf80de00ec
:10250000c700dd0000002000020170008381700020
:1025100006003700610010000000e90003003300ee
:102520008301d1000281d300fbff370000002000af
:102530000100280085836000000378000601710017
:10254000878171000204be000800be004f06be0075
:102550004f05be004f04be000080fa0000000600d8
:102560000400fa00889fbe008a9fbe008c9fbe00b8
:102570000004be004708de00f00fb2005109200041
:10258000810f500041003c000806be00e00f5400df
:10259000e08f5c0003003d000805be000bf0a200c8
:1025a000010037000805be00d1072000810f500050
:1025b0000a003c000200200003b024000a00be0014
:1025c000eff8070080bf9f0091bf9f006011b80027
:1025d0000800be00aefa07002b0037000200200002
:1025e00003b024000a00be00e5f807000200200046
:1025f00003b02400d9f807000a01be00d7f807008d
:102600000004be000200200003f023007bf8070056
:102610000000e000070034000a01be000800be0010
:10262000d7f807000200200003f82300cbf80700ca
:102630000f0037000200200003f02b000800be004e
:102640006cf807000000e00006003c000a01be0034
:102650000800be00caf807000200200003f82300ab
:10266000020037000a01be000800be00c4f80700df
:10267000e00f5600e08f5e0003003d000004be0046
:1026800009f0a200010037000004be000800be00ef
:102690004f06be004f05be004f04be000080fa008a
:1026a000000006000800fa00889fbe000004be007b
:1026b0000001be008300780001f0a100080078004e
:1026c000a4fd200095f42300840f5000858f58004e
:1026d00018003e00f2ff2f00f3972300820f5000f6
:1026e000838f580011003e00f2ff2f00f3072000f7
:1026f000820f5000838f580005003e00020020002a
:10270000033820000800be0061fa0700040037000b
:102710000200200003b827000800be0098f8070058
:10272000c0bf9f00d1bf9f00710037000800be00ee
:10273000680037004f49de0003002000143d2500eb
:10274000b5072400840f5000858f58001f003e00fd
:1027500034be2c0065012400840f5000858f580082
:102760000e003e000200e00005003200b2fd200035
:1027700093fc23000800be0081f8070059003700d1
:10278000b2fd200093fc23000800be0073f8070090
:10279000e50007000004be00550037000200e0001d
:1027a00005003200b2fd2000930424000800be00a2
:1027b00073f8070046003700b2fd200093042400a0
:1027c0000800be0065f8070041003700541d2300d3
:1027d000250e2400840f5000858f58001d003e00f8
:1027e000f4dd2e00f50a2400840f5000858f580078
:1027f0000c003e000200e0000500320042be2c004a
:10280000630924000800be005df80700e0ff370000
:1028100042be2c00630924000800be004ff80700e8
:10282000300037000200e00005003200b2fd200059
:10283000930c24000800be0051f807002500370063
:10284000b2fd2000930c24000800be0043f80700ee
:1028500020003700f2ff2f00f3f72700820f50000f
:10286000838f5800040036000801be000800be0037
:102870003af80700c7ff37006c8157000800be0018
:10288000d70007006011b80063016000e10f51003c
:10289000e08f590009003200e20f5100e08f59002b
:1028a00009003200e00f5100e08f59000b003a00a0
:1028b0002fb89700bfb89700060037002fb89700d1
:1028c000bfb89700b2ff37002fb89700bfb8970086
:1028d00001f0a2001b010700aeff37002fb89700e0
:1028e000bfb89700900007000004be0009f0a200e6
:1028f0000800be004f04be000080fa000000060081
:10290000889fbe008a9fbe008c9fbe000004be0050
:102910000400200005f82700858360000403780088
:10292000840f5300858f5b0007003a000801be004a
:102930000800be00d6f907000001be000800be0076
:102940000ff8070010003700e00f5000e08f58002c
:102950000f003c008101780003f0a1000001780025
:10296000e00f5100e08f59006a0032001002200091
:1029700030a688000801be000800be00f7f7070077
:102980000001be00e3f807000004be00610037004c
:10299000478cde00cf8cde00e00f5400e08f5c003f
:1029a0000f003a006044b800040037000000400007
:1029b0008180480061044400e0844c000400200051
:1029c000050820008181620004017800e00f5100b9
:1029d000e08f5900f5ff320061041400e0841c0010
:1029e000f807b1000980b10081017800f307b20057
:1029f000000178000200be000170a0000808a300da
:102a00000200320000004000818048008984d1002b
:102a10000884d30000004000818048009401200019
:102a200002002000031020006055b8006066b80066
:102a30000c0341008d834900800f5300818f5b00a0
:102a400006003c000606410087864900060050004b
:102a5000878058000a0541008b854900000040002e
:102a6000818048008301d1000281d3000402e90083
:102a7000efff3a00e00f5000e08f58001b003200db
:102a80000226240023da20000000200001f82300a1
:102a9000b2f707000200200003f8230057f70700f1
:102aa0000000e000110035000226240023da200097
:102ab0000000200001f82300b1f707000200200009
:102ac00003f823004df707000000e0000300340086
:102ad00062054500e0854d00040037006000b80045
:102ae000610065000005450081854d00c744dd009b
:102af000080020000000200001f02300080440002e
:102b0000898448008b85d1000a85d30008044500dc
:102b100089844d000800be004f06be004f05be0070
:102b20004f04be0000000600889fbe008a9fbe00c2
:102b30008c9fbe000001be0055f907000004be00d6
:102b40000001be0052f907000005be00020020008f
:102b500003f02b000800be004df907000200200022
:102b600003f8230086f707000006be00f2a92a003a
:102b7000a3d223000a00be0045f907000001be00f1
:102b80000c00be007ef707000006be000801be0074
:102b90000a00be003ef907000005be0072a1290030
:102ba000c37c23000800be0039f90700f24320006f
:102bb00063ab230069f707000001be000a00be00f6
:102bc00033f907000001be000c00be006cf70700df
:102bd0004f06be004f05be004f04be0000000600b9
:102be0000800fa00889fbe008a9fbe008c9fbe002e
:102bf0000005be00020478000001be0083007800da
:102c000001f0a1000a007800a2fd200093dc24005e
:102c1000820f5000838f58001d003e0032982f0015
:102c200023f223000a00be0019f907000200200069
:102c300003b4240052f707000200200003b424006c
:102c400046f707000006be00eef607008004780095
:102c5000a2fd200093fc23000c00be000cf907002d
:102c60000001be000a00be003cf707000005be00e0
:102c7000325a2800832823000c00be0004f9070004
:102c80000001be000a00be0034f70700260037002e
:102c9000f2ff2f00f3f72700820f5000838f5800b8
:102ca000060036000a01be000a00be002bf707002e
:102cb000008cbe008004eb001c0037000a00be0040
:102cc000500007000005be0032982f0023f22300b9
:102cd000eff807000200200003f0230028f70700a8
:102ce000540007000203be000002be00e4b79f00cc
:102cf000f5b79f0086bf9f0097bf9f0087fa070028
:102d000032982f0023f2230002f807000001be00d2
:102d10000a00be0011f707006000b8002004980008
:102d200031049800efb49700008cbe0009007800d1
:102d30004f06be004f05be004f04be000080fa00e3
:102d400000000600889fbe008a9fbe008c9fbe00c8
:102d50000005be000001be00cdf807000004be0063
:102d60000a01be00caf807000006be00428828001b
:102d700083c023000800be00c5f80700b2aa2a00dd
:102d8000a3e22300f5f607000001be000c00be0020
:102d9000bff807000001be000a00be00f8f60700f9
:102da0000005be000801be000800be00b8f807001c
:102db0000001be000c00be00b5f807000006be0012
:102dc000c2c32600636323000800be00b0f80700fa
:102dd000f27c200003952300e0f607000001be000e
:102de0000c00be00aaf807000001be000a00be00e9
:102df000e3f607004f06be004f05be004f04be00bd
:102e0000000006006022b8006033b8000002be0077
:102e1000f0ff2f00f1ff2f00f2ff2f00f3ff27003c
:102e20000000620081806200020163008381630010
:102e3000000006000003be00b3f607006011b800f2
:102e40000470a70007f0a1006509b1001b00320063
:102e500012003500860220000628e1000800350037
:102e6000f3ff2700f2ff2f006110b9000700e00018
:102e700018003b00030028006000b80002000500b5
:102e80000000400081804800020149008381490020
:102e90008502e900faff3a0008003700f88f420087
:102ea00002003c008000eb00000005008100d10022
:102eb0000080d3008502e800fcff3a000700e00034
:102ec00004003b0060001000e08018006001190061
:082ed000e0811900000006007a
:020000040000fa
:102ed8001a00fa00881f7800170e0700bd0d0700ba
:102ee800380b0700500b0700ce0b07005d0e0700dc
:102ef8000c0a07002d0f0700cd080700d5080700aa
:102f08000000eb00000f780002003700f70e070002
:102f1800e4050700060f07000004e000fbff3a0085
:102f2800920e0700e14f50008b013a00930e070004
:102f38008a0e0700100798001e00900068004000e5
:102f4800100078008000eb006bf607003233230096
:102f5800330524004cf80700020020000358240021
:102f68006af7070020079800310798002e019000a3
:102f7800be019000000020008120240063f70700b4
:102f880002002000030a240072f60700508588001a
:102f9800618588001e009000100078008000eb001a
:102fa80055f60700323323003305240036f80700ae
:102fb800020020000358240054f707002007980057
:102fc800310798002e019000be01900000002000fb
:102fd800812024004df7070002002000030a240086
:102fe8005cf6070070858800818588001e009000c7
:102ff8000080e800100078008000eb003ef6070033
:1030080032332300330524001ff807000200200094
:10301800035824003df7070020079800310798005f
:103028002e019000be0190000000200081202400a5
:1030380036f7070002002000030a240045f60700bf
:1030480010858800218588001e00900064004000db
:10305800100078008000eb0027f6070032332300c9
:103068003305240008f80700020020000358240054
:1030780026f7070020079800310798002e019000d6
:10308800be01900000002000812024001ff70700e7
:1030980002002000030a24002ef60700308588006d
:1030a800418588001e0090006600400010007800ee
:1030b8008000eb0010f607003233230033052400ac
:1030c800f1f7070002002000035824000ff707005b
:1030d80020079800310798002e019000be0190004b
:1030e800000020008120240008f7070002002000cb
:1030f800030a240017f60700f08488000185880079
:10310800f08480000185800018c0b3000200200010
:10311800832c2400b7f507000000e00001003c0004
:103128000044eb000804e000040032000000200026
:10313800812c2400f0848800018588001085800097
:103148002185800018c0b30002002000832c2400d1
:10315800a8f507000000e00001003c000044eb0077
:103168000804e0000400320000002000812c240044
:103178001085880021858800308580004185800081
:1031880018c0b30002002000832c240099f5070022
:103198000000e00001003c000044eb000804e000ef
:1031a8000400320000002000812c240030858800b3
:1031b80041858800708580008185800018c0b30033
:1031c80002002000832c24008af507000000e0009c
:1031d80001003c000044eb000804e0000400320059
:1031e80000002000812c24007085880081858800db
:1031f800508580006185800018c0b300020020005f
:10320800832c24007bf507000000e00001003c004f
:103218000044eb000804e000040032000000200035
:10322800812c240050858800618588001e0fe800e5
:103238001e007800e90f500081003400f0848000ff
:10324800018580006df507000000780000407800d7
:10325800004f9800f08480000185800067f5070022
:10326800000078004880de0000407800104f980089
:10327800108580002185800060f507000000780037
:1032880000407800204f980010858000218580003c
:103298005af50700000078004880de0000407800fa
:1032a800304f9800308580004185800053f5070035
:1032b8000000780000407800404f9800308580007a
:1032c800418580004df50700000078004880de0049
:1032d80000407800504f980050858000618580003c
:1032e80046f507000000780000407800604f98001d
:1032f800508580006185800040f507000000780057
:103308004880de0000407800704f9800708580008b
:103318008185800039f507000000780000407800ba
:1033280000579800708580008185800033f507007c
:10333800000078004880de000040780010579800b0
:1033480068004700000178002100200010032000d9
:10335800830407006a00470000017800210020006c
:10336800200320007e0407006c004700000178005d
:103378002100200030032000790407006e00470078
:103388000001780021002000400320007404070099
:103398007000470000017800210020005003200041
:1033a8006f040700b0848000c18480007202470067
:1033b8000001be008000eb0004007800bc0b070091
:1033c8007084800081848000720247000001be0082
:1033d8004100200004007800b50b07007200470088
:1033e8000001780081002000100420005c04070020
:1033f800200b210000017800810120001009200025
:1034080057040700a00c210000017800810120006a
:103418002009200052040700200e21000001780036
:1034280081002000500920004d0407000b07070009
:10343800350707005f0707000000eb00000f780062
:10344800f08480000185800018c0b30002002000cd
:10345800031a2400e5f407000000e000010035002d
:103468000044eb000804e00002003200754ea8009a
:1034780001003700754ea9005085800061858000e5
:1034880018c0b30002002000031a2400d7f4070074
:103498000000e000010035000044eb000804e000f3
:1034a80002003200856ea80001003700856ea90071
:1034b800308580004185800018c0b30002002000dc
:1034c800031a2400c9f407000000e00001003500d9
:1034d8000044eb000804e00002003200848ea800db
:1034e80001003700848ea9001085800021858000a6
:1034f80018c0b30002002000031a2400bbf4070020
:103508000000e000010035000044eb000804e00082
:103518000200320084aea8000100370084aea90082
:10352800708580008185800018c0b30002002000eb
:10353800031a2400adf407000000e0000100350084
:103548000044eb000804e0000200320084cea8002a
:103558000100370084cea900000000006dfe37008e
:103568000400fa00881f780062d0bf000080fb00ca
:10357800cf80de001201200003002000820f5000df
:10358800838f5800b7003e00000601001100370085
:103598001a003700230037002d0037002e003700af
:1035a800380037003900370043003700440037003f
:1035b8004e0037004f00370059003700a900370088
:1035c800a8003700a7003700a600370056003700cc
:1035d800a20037006e30ef007030ef0012002000bc
:1035e8006000b800690807000001eb006000b8003f
:1035f8006608070010c0b30062f0b700728380004d
:1036080083838000803e200001002000800f51004d
:10361800818f59009600360020c0b30062f0b700d1
:10362800940037001200200000002000811c2400b4
:10363800560807000001eb0000002000811c240050
:103648005208070030c0b30062f0b70089003700a5
:103658008b000700870037001200200000002000c0
:1036680001152400490807000001eb0000002000b4
:10367800010e2c004508070050c0b30062f0b700e7
:103688007c0037007e0007007a0037001200200017
:1036980000002000010e2c003c0807000001eb0090
:1036a80000002000011524003808070070c0b3008e
:1036b80062f0b7006f003700710007006d00370037
:1036c8001200200000002000011724002f08070026
:1036d8000001eb000000200001172c002b08070058
:1036e80090c0b30062f0b7006200370064000700c2
:1036f80060003700120020000000200001172c0095
:10370800220807000001eb00000020000117240038
:103718001e080700b0c0b30062f0b70055003700bc
:10372800570007005300370010858000218580006e
:1037380018c0b30002002000832424002df40700e1
:103748000000e00001003c000044eb000804e00039
:103758000300320040012000000f780017003700f6
:10376800108580002185800018c0b3000200200069
:10377800031a24001df407000000e00001003500d2
:103788000044eb000804e0000300320010ff2f00a3
:10379800000f78000900370010858000218580001f
:1037a8006011b80038f60700020020000304240066
:1037b80071f4070011f40700000f7800f08480000e
:1037c8000185800018c0b300020020008324240073
:1037d80008f407000000e00001003c000044eb0092
:1037e8000804e000030032004001200010079800a0
:1037f80017003700f08480000185800018c0b300ee
:1038080002002000031a2400f8f307000000e0007b
:10381800010035000044eb000804e000030032001a
:1038280010ff2f001007980009003700f08480006f
:10383800018580006011b80013f60700020020001f
:10384800030424004cf40700ecf307001007980069
:1038580010c1b30062f0b700060037000800070087
:10386800040037006270ef0000000000010037001c
:10387800000000004f0478000080fa0000000600f5
:103888000200fa00881f78000040eb00004f780023
:10389800508580006185800018c0b30002002000b8
:1038a800831c2400d1f307000000e000010035006c
:1038b8000044eb000804e0000b003a00f0848000ac
:1038c8000185800018c0b30002002000831c24007a
:1038d800c6f307000000e000010035000044eb00db
:1038e8000804e00024003200308580004185800013
:1038f80018c0b30002002000831c2400bdf3070099
:103908000000e00001003c000044eb000804e00077
:1039180019003200108580002185800018c0b3008e
:1039280002002000831c2400b2f307000000e0001e
:1039380001003c000044eb000804e0000e003200e7
:10394800708580008185800018c0b30002002000c7
:10395800831c2400a7f307000000e00001003c00de
:103968000044eb000804e0000300320020c0b3006c
:10397800004f78009a0037005085800061858000ec
:1039880018c0b30002002000831c240099f307002c
:103998000000e00001003c000044eb000804e000e7
:1039a8002f003200f08480000185800018c0b30029
:1039b80002002000831c24008ef307000000e000b2
:1039c80001003c000044eb000804e0002400320041
:1039d800308580004185800018c0b30002002000b7
:1039e800831c240083f307000000e00001003c0072
:1039f8000044eb000804e000190032001085800044
:103a08002185800018c0b30002002000831c240018
:103a180076f307000000e000010035000044eb00e9
:103a28000804e0000b003a00708580008185800062
:103a380018c0b30002002000831c24006bf30700a9
:103a48000000e000010035000044eb000804e0003d
:103a58000300320010c0b300004f78006000370048
:103a6800308580004185800018c0b3000200200026
:103a7800831c24005df307000000e000010035000e
:103a88000044eb000804e0000300320030c0b3003b
:103a9800004f780052003700108580002185800093
:103aa80018c0b30002002000832424004ff307004d
:103ab8000000e000010035000044eb000804e000cd
:103ac8000b003a00f08480000185800018c0b30024
:103ad800020020008324240044f307000000e000d3
:103ae800010035000044eb000804e0000300320048
:103af80040c0b300004f780039003700508580007f
:103b08006185800018c0b30002002000831c2400d7
:103b180038f307000000e00001003c000044eb001f
:103b28000804e0002e003200f08480000185800047
:103b380018c0b30002002000831c24002df30700e6
:103b48000000e00001003c000044eb000804e00035
:103b580023003200308580004185800018c0b30002
:103b680002002000031f240022f307000000e000e9
:103b780001003c000044eb000804e000180032009b
:103b8800108580002185800018c0b3000200200045
:103b9800831c240017f307000000e00001003c002c
:103ba8000044eb000804e0000d003200708580003e
:103bb8008185800018c0b30002002000831c240007
:103bc8000cf307000000e00001003c000044eb009b
:103bd8000804e000020032000040eb00004f7800cb
:103be8001e4078000004e00003003a0020c0b30043
:103bf80063f0b700270037001e407800e24f5000fe
:103c080003003a0040c0b30063f0b700210037005a
:103c18001e407800e14f500003003a0060c0b30036
:103c280063f0b7001b0037001e407800e44f5000d7
:103c380003003a0000c1b30063f0b7001500370075
:103c48001e407800e34f500012003a00748580004f
:103c580085858000508580006185800018c0b3008c
:103c68000001be000400be00e2f207000000e00010
:103c780001003c000044eb000804e00003003200af
:103c880080c0b30063f0b70002003700a0c0b300e3
:103c980063f0b70063d0bf008080fb0062d0bf0034
:103ca8000080fb000000e900808f50000200320015
:103cb80063d0bf0062f0b7004f0478000080fa00bc
:103cc800000006000000fa006000b80010a4880098
:103cd80021a488006000b80030a4880041a48800ae
:103ce8006000b80050a3880061a388006000b80095
:103cf800d0a38800e1a388006000b800f0a3880082
:103d080001a488006000b80050a4880061a488005d
:103d18006000b80070a4880081a488006000b80022
:103d280030a3880041a388006000b80090a48800f0
:103d3800a1a488000000eb00d0a488000080fa004d
:103d4800000006001000fa00889fbe008a9fbe008f
:103d5800d0a48000e10f50000c003200e10f5000a9
:103d680003003900e20f5000cf003200b7013700de
:103d78006000b800d0a38800e1a388006000b80004
:103d8800f0a3880001a48800b001370038a38000a0
:103d980049a3800050a3800061a3800034a3800061
:103da80045a380000001be000400be008c09070086
:103db8000001be000800be00e6f2070070a38800fc
:103dc80081a38800f0a3800001a480000001be0048
:103dd800adf407000004be00b0a38000c1a38000ba
:103de8000001be00e4f207000001be000800be00aa
:103df800c6f3070090a38800a1a3880070a38000e1
:103e080081a3800018c0b3006011b80079f20700e0
:103e18000000e00001003c000044eb000804e00062
:103e280045003200f0a3800001a4800018c0b30050
:103e38006011b8006df207000000e00001003500d5
:103e48000044eb000804e0000a003200f4a38000fc
:103e580005a48000b0a38000c1a380000001be00bb
:103e68000400be00bbf20700f0a3880001a488008c
:103e78007700370074a3800085a3800090a380009a
:103e8800a1a3800018c0b3000001be000400be005a
:103e980058f207000000e00001003c000044eb007d
:103ea8000804e0001a003200f0a3800001a480009a
:103eb80018c0b30002002000030424004bf20700de
:103ec8000000e000010035000044eb000804e000b9
:103ed8000a003200f4a3800005a48000b0a380008b
:103ee800c1a380000001be000400be00a2f20700ca
:103ef800f0a3880001a488005500370000002000c6
:103f080001042400f0a3880001a4880050003700b1
:103f1800f4a3800005a48000b0a38000c1a38000a2
:103f28000001be000400be008af20700f0a388006a
:103f380001a4880046003700f0a3800001a4800097
:103f480018c0b3006011b8002af207000000e000b2
:103f580001003c000044eb000804e0000a003200c5
:103f6800f4a3800005a48000b0a38000c1a3800052
:103f78000001be000400be0076f20700f0a388002e
:103f880001a488003200370070a3800081a380005c
:103f9800230807000002be0090a38000a1a38000b0
:103fa80018c0b3000001be000400be0011f20700f3
:103fb8000000e00001003c000044eb000804e000c1
:103fc8001a003200f0a3800001a4800018c0b300da
:103fd8000200200003042c0006f207000000e000a5
:103fe80001003c000044eb000804e0000a00320035
:103ff800f4a3800005a48000b0a38000c1a38000c2
:104008000001be000400be0052f20700f0a38800c1
:1040180001a488000e0037000000200001042400dd
:10402800f0a3880001a4880009003700f4a38000e9
:1040380005a48000b0a38000c1a380000001be00d9
:104048000400be004cf20700f0a3880001a4880019
:1040580070a3800081a38000f107070018c0b30097
:104068000200200003f02300e0f107000000e00058
:10407800010035000044eb000804e000f2003200c3
:104088006000b800f0a3880001a4880030a3800075
:1040980041a3800050a3880061a38800200020006d
:1040a800d0a48800e900370074a4800085a48000ab
:1040b80030a4800041a480000001be000400be00be
:1040c80024f207000001be00eff307000004be0061
:1040d80054a4800065a4800010a4800021a480005e
:1040e8000001be000400be001af207000001be0075
:1040f800e5f307000001be000800be001ef207003d
:10410800fdf90700b0a48800c1a48800b0a480000d
:10411800c1a4800018c0b300d2cc2c00c3dc23009b
:10412800b2f107000000e000010035000044eb0098
:104138000804e0000e0032000000eb00d0a4880064
:104148006000b800d0a38800e1a3880010a4800014
:1041580021a4800050a4880061a4880030a48000b5
:1041680041a4800070a4880081a48800b7003700ab
:10417800b0a48000c1a4800090a48800a1a48800f5
:10418800d0a38000e1a380000001be00bef30700b9
:10419800d2cc2c00c3e42300dcf20700008fbe0061
:1041a800d0a38000e1a380000001be00b6f30700a1
:1041b8000001be000000200001f82300e5f107001f
:1041c800d2cc2c00c3e42300d0f2070020079800cb
:1041d800310798007083800081838000c6f1070052
:1041e8000002be00b0838000c18380000001be00d1
:1041f8000400be00d7f10700400798005107980057
:10420800b8a48000c9a48000d2cc2c00c3dc230051
:104218001e0078009e009000d7f107001ac0b30076
:104228000001be000800be0070f107000000e000b9
:10423800010034000045eb000a04e00013003200de
:10424800d8a38000e9a38000d2cc2c00c3dc2300d3
:104258004e009000de0090008bf307000001be00c6
:104268000800be00bbf10700d0a38800e1a38800c6
:10427800d0a38000e1a380006011b800aaf707006e
:10428800d0a38800e1a3880044003700b8a48000c8
:10429800c9a480002e019000be0190001e00780085
:1042a8009e009000b4f107001ac0b3000001be00e0
:1042b8000800be004ff107000000e00001003c00cc
:1042c8000045eb000a04e00014003200d8a3800087
:1042d800e9a38000d2cc2c00c3dc23004e00900060
:1042e800de00900068f307000001be000800be0071
:1042f800a1f10700d0a38800e1a38800d0a3800023
:10430800e1a380000200200003f82300baf70700a9
:10431800d0a38800e1a3880020003700b8a480005b
:10432800c9a48000d0a38000e1a38000020020007f
:104338000300240075f207000001be000800be005b
:104348008df107006cf90700600798007107980065
:10435800d8a38000e9a38000d2cc2c00c3dc2300c2
:104368004e009000de00900047f307000001be00f9
:104378000800be0080f10700d0a38800e1a38800f0
:10438800d0a38000e1a380006e019000fe019000a0
:1043980099f70700d0a38800e1a3880018a480003b
:1043a80029a48000daa38000eba3800050a380003a
:1043b80061a38000ddf607000001be000a00be0010
:1043c80031f307004e019000de0190002ef3070044
:1043d8000001be000800be0067f1070010a48800b5
:1043e80021a4880038a4800049a48000daa38000b2
:1043f800eba3800050a3800061a38000a7f807000a
:104408000001be000a00be001ff307004e01900025
:10441800de0190001cf307000001be000800be008a
:1044280055f1070030a4880041a4880070838000fb
:104438008183800030f10700b0838800c183880041
:104448000000000001003700000000004f05be001a
:104458004f04be000080fa00000006000c00fa00bd
:1044680010a4800021a480000001be008000eb00a1
:104478000e0078008e07070030a4800041a4800059
:104488000001be00410020000e00780088070700e8
:1044980050a3800061a380000001be0081002000bd
:1044a8000e007800820707000e017800c100200086
:1044b800100120002a0007000080fa000000060012
:1044c8000a00fa0020079800310798004207980070
:1044d8000040eb00004f7800e0cfb3001e4f6800ab
:1044e8002e0090004880de00004078001e4f6800d3
:1044f8002e009000004078001e4f68003e0090009b
:104508004880de00004078001e4f68003e009000a2
:10451800004078001e4f68000000eb00100798006c
:10452800080037001e009000ce0090000080400078
:10453800104078001e4f68001e0090000000e80040
:10454800100798009e0090003e009000808f500059
:10455800f4ff35001e4078000080fa0000000600d5
:104568000e00fa00889fbe008a1f78004007980056
:1045780051079800620798000f0478000f00780030
:10458800800478005e0090006600400010079800e4
:104598001e0090008000e900210798000000e80054
:1045a8000000e8000000d100800040000f00780003
:1045b800818747000000e8000000d10000004000ab
:1045c800300798003e009000e1cfb3000148780022
:1045d8004e0090004880de00804078003e00900049
:1045e800114098004e009000804078003e009000f6
:1045f800214098005e0090004880de0080407800ee
:104608003e009000314098005e00900080407800a5
:104618003e009000414098000000eb00000f780039
:104628000a0037009e007800658040009e007800f0
:104638006e01900081004100914078003e01900099
:1046480000004100014878001e0fe8005e0090005d
:104658009e007800808f5000f2ff35001e00900009
:104668000005e9006e019000de0090004e00900009
:1046780093ff0700be0090008a80400080487800c1
:104688003e0090009e00900076070700890778009a
:10469800880778004f0578004f04be000080fa00b4
:1046a800000006000200fa00004f780040808000f9
:1046b800e30f500024003200e30f500007003c00d5
:1046c800e10f500013003200e10f500017003c00ca
:1046d8000000e0000800320048003700e50f5000f5
:1046e80026003200e50f50001d003500e60f50008f
:1046f80030003200410037001e407800e24f400091
:104708003b003a000430ef00100020004080880091
:104718003a0037001e80fb004800dd00008088005a
:104728002000200040808800340037009e80fb0075
:1047380000808000010070000080880030002000a8
:10474800408088002d0037001e80fb004800dd00f7
:104758001080880040002000408088002700370033
:104768009e80fb001080800001007000108088008f
:104778005000200040808800200037002080800002
:10478800613e2100808040009e4878000000e800db
:10479800208088002180800010808000808f500059
:1047a80015003a0060002000408088000430ef00c7
:1047b800120037001180800000808000623e2100d6
:1047c8003fff070006f0b70006d0bf009e4f50001d
:1047d80004003a001180800000808000623e2100c1
:1047e800080007000830ef00000000000300370051
:1047f8000000000001003700000000000080fa00ff
:10480800000006000600fa00889fbe008a9fbe00ce
:10481800000f780011079800220798001e00780002
:1048280011092000810f50001800320011092000e2
:10483800810f500006003c00f00f5000ee003200df
:1048480011022000810f500008003200fe003700de
:1048580021092000810f50006a0032005109200010
:10486800810f5000c5003200f70037002e0090007d
:1048780010407800e14f500002003a0084aea800d2
:10488800f100370084aea900ef0037008000eb008c
:104898002e0090006c060700508088006180880018
:1048a800410020002e0090006706070070808800f5
:1048b80081808800810020002e0090006206070099
:1048c80090808800a1808800c10020002e00900000
:1048d8005d060700d0808800e18088000101200083
:1048e8002e00900058060700f0808800018188009b
:1048f800410120002e009000530607001081880017
:10490800218188005080800061808000240b210074
:104918000001be008000eb00040078006406070078
:104928007080800081808000240b21000001be007f
:1049380041002000040078005d0607009080800098
:10494800a1808000240b21000001be00810020000e
:104958000400780056060700d0808000e1808000bf
:10496800240b21000001be00c100200004007800d3
:104978004f060700f080800001818000240b210091
:104988000001be000101200004007800480607006d
:104998001081800021818000240b21000001be00cd
:1049a800410120000400780041060700da808000f9
:1049b800eb808000d8808000e9808000d68080006d
:1049c800e78080007480800085808000928080006d
:1049d800a380800050808000618080008a9fbe0094
:1049e800889fbe00869fbe000403be000202be0070
:1049f8000001be006012210097000700ec875700f5
:104a0800910037008000eb002e0090000e06070092
:104a18003081880041818800410020002e009000ec
:104a28000906070050818800618188008100200004
:104a38002e0090000406070070818800818188009c
:104a4800c10020002e009000ff050700b0818800fb
:104a5800c1818800010120002e009000fa0507009e
:104a6800d0818800e1818800410120002e0090005b
:104a7800f5050700f08188000182880030818000f8
:104a880041818000a40c21000001be008000eb00e1
:104a980004007800060607005081800061818000cc
:104aa800a40c21000001be00410020000400780091
:104ab800ff0507007081800081818000a40c21001f
:104ac8000001be008100200004007800f8050700fe
:104ad800b0818000c1818000a40c21000001be00cb
:104ae800c100200004007800f1050700d081800093
:104af800e1818000a40c21000001be00010120001a
:104b080004007800ea050700f08180000182800037
:104b1800a40c21000001be0041012000040078001f
:104b2800e3050700fa8180000b828000d8818000ad
:104b3800e9818000b6818000c781800054818000af
:104b480065818000728180008381800030818000cf
:104b5800418180008a9fbe00889fbe00869fbe005c
:104b68000403be000202be000001be006015210061
:104b780039000700ec875700330037006000b800a1
:104b880090818800a1818800410020002e009000bb
:104b9800ad050700b0808800c18088009081800042
:104ba800a1818000240e21000001be008000eb00de
:104bb80004007800be050700b0808000c180800036
:104bc800240e21000001be004100200004007800ee
:104bd800b705070090818000a1818000b088880017
:104be800c1888800b0808000c180800090888800db
:104bf800a1888800140037008000eb002e00900088
:104c08009105070050a4880061a488004100200095
:104c18002e0090008c05070070a4880081a48800ed
:104c280010a4800021a4800034a4800045a4800042
:104c38000001be000400be0024f3070030a3880072
:104c480041a38800000000004f05be004f04be00cd
:104c58000080fa00000006000e00fa00000f78003d
:104c68001207980023079800340798004507980012
:104c780056079800670798001e0078001e019000ec
:104c8800ae0190000288be001e0078003eb9970071
:104c9800ceb9970062009800730098001e00780053
:104ca8003e019000ce019000220098003300980049
:104cb8001e0078001eb99700aeb997000208980048
:104cc800130898001e0078005e019000ee01900025
:104cd80042009800530098001e0078007eb19700ab
:104ce8008eb9970022089800330898000080fa00cf
:104cf800000006001200fa00889fbe0060079800b6
:104d080072079800030f98006e0090007e019000d3
:104d18008e09900002109800131098006e00900001
:104d280060029000f00290006e00900090009000e9
:104d3800100078000001be000400be00f3ef070079
:104d48000004be006e009000f0009000600090002b
:104d58000002be0005f0a2006e00900090009000d6
:104d6800100078000001be000400be00e7ef070055
:104d78000802be000001be007e0090008e08900070
:104d8800ed040700008fbe006e00900090009000b8
:104d9800100078001e0178009e019000baf007000c
:104da8006e01900020119800311198006e0090005b
:104db800400c9000d00c900002002000a337240083
:104dc8007e0090008e089000d0ef07000001be0022
:104dd8000800be00e8ee07006e0190004009980048
:104de800510998006e009000000a9000900a900007
:104df8006e009000b0009000200090000001be00fe
:104e08000400be00c1ef07000004be006e00900061
:104e180090089000000890000002be0005f0a20073
:104e28006e009000b0009000200090000001be00cd
:104e38000400be00b5ef07006e019000420b900021
:104e4800d20b90000802be000001be000600be00a2
:104e5800b90407006e0190004009980051099800b4
:104e68006e00900020029000b00290006e0090004a
:104e7800d0089000400890000001be000400be0069
:104e880081f007006e0190004011980051119800c0
:104e98006e009000f0089000600890000001be00cd
:104ea8007e0090008e089000aaee07000200200005
:104eb800a337240074f007002007980031079800f2
:104ec8006e009000200a9000b00a90006e009000da
:104ed800d0009000400090000001be000400be0019
:104ee8008aef07000004be006e009000b008900032
:104ef800200890000002be0005f0a2006e0090009d
:104f0800d0009000400090000001be000400be00e8
:104f18007eef07000802be000001be002e009000d0
:104f2800be009000840407004007980051079800cd
:104f38006e0090007e0190008e0990006208980033
:104f4800730898006e009000d00090004000900018
:104f58004e019000de0190004bf007006e019000ba
:104f680060119800711198006e0090002012900056
:104f7800b01290006e009000d01090004010900089
:104f88000001be000400be007bee07000002be0068
:104f98006e009000f0109000601090000001be00bc
:104fa8000400be0074ee07004f04be000080fa0043
:104fb800000006000000fa0094888000a5888000a0
:104fc80090878000a18780000001be000400be0019
:104fd80060ee0700308a8800418a8800b488800023
:104fe800c5888000b0878000c18780000001be00ae
:104ff8000400be0057ee0700b08b8800c18b880004
:10500800308a8000418a80000001be0060122100c1
:1050180038ff0700d0888800e1888800b08b8000be
:10502800c18b80000001be006015210031ff070020
:10503800f088880001898800f08880000189800054
:10504800d4888000e58880000001be000400be000e
:10505800b70207000080fa00000006001800fa00f6
:10506800508a8000618a80000001be008000eb0049
:105078000e0078008e04070090898000a1898000c6
:105088000001be00410020000e00780088040700df
:10509800708a8000818a80000001be0081002000a3
:1050a8000e00780082040700b0898000c189800062
:1050b8000001be00c10020000e0078007c0407003b
:1050c800908a8000a18a80000001be0001012000b2
:1050d8000e00780076040700d0898000e1898000fe
:1050e8000001be00410120000e0078007004070096
:1050f8000e017800810120003009200018fd07000a
:105108000080fa00000006001800fa00d08b80002a
:10511800e18b80000001be008000eb000e007800eb
:1051280063040700108b8000218b80000001be0003
:10513800410020000e0078005d040700f08b80001d
:10514800018c80000001be00810020000e00780064
:1051580057040700308b8000418b80000001be009f
:10516800c10020000e00780051040700108c800058
:10517800218c80000001be00010120000e00780093
:105188004b040700508b8000618b80000001be003b
:10519800410120000e007800450407000e01780048
:1051a8008101200040092000edfc07000080fa0082
:1051b800000006001000fa00d0888000e188800016
:1051c8000001be008000eb000e00780038040700e4
:1051d800f0888000018980000001be0041002000a5
:1051e8000e00780032040700308a8000418a80006f
:1051f8000001be00810020000e0078002c0407008a
:10520800b08b8000c18b80000001be00c10020006f
:105218000e007800260407000e0178000101200026
:1052280060092000cefc07000080fa00000006009c
:105238000000fa00c301a8000080eb00e00e88001f
:105248000080eb00f00e8800c1e1a8000080fa00a1
:10525800000006000000fa00c305a8000080eb006b
:10526800e02e88000080eb00f02e8800c1e5a80041
:105278000080fa00000006000800fa00889fbe00bf
:105288008a9fbe00708280008182800050828800e0
:1052980061828800b0828000c1828000908288008c
:1052a800a1828800300e80008000eb00008fbe00d5
:1052b800500e80008000eb00c000dd0000002000e0
:1052c8001e0f40005e974800302e80008000eb00e3
:1052d8002007980031079800502e80008000eb00ce
:1052e800c000dd00000020002e019000be019000eb
:1052f800020040008380480020079800310798008a
:105308001e0078009e00900078ed0700c2532e0022
:10531800737823005cef0700708288008182880020
:105328002e009000be00900070ed0700c2532e00c2
:1053380073782b0054ef0700b0828800c182880080
:1053480074828000858280005082800061828000a3
:105358000001be000400be007eed07001082880038
:1053680021828800b4828000c582800090828000fb
:10537800a18280000001be000400be0075ed070098
:10538800308288004182880010828000218280005b
:1053980002002000a33724003bef07005087880055
:1053a80061878800308280004182800002002000ee
:1053b800a337240034ef07007087880081878800ae
:1053c800108280002182800002002000a337240080
:1053d8002def07000004be0030828000418280006b
:1053e80002002000a337240027ef07000001be00b9
:1053f8000800be0060ed0700020020000300240042
:1054080042ee070090878800a187880010828000fc
:105418002182800002002000a33724001aef070031
:105428000004be003082800041828000020020001b
:10543800a337240014ef07000001be000800be00d7
:1054480044ed0700b2f32d00f3e823002fee070028
:10545800b0878800c1878800308880004188800034
:10546800d0878800e18788005088800061888000a4
:10547800f087880001888800708880008188800013
:105488001088880021888800b0878000c187800044
:1054980002002000a33724001cee07000002be0013
:1054a80010888000218880000001be000400be0032
:1054b80031ed07007088880081888800d8878000cf
:1054c800e98780009a878000ab8780001488800075
:1054d8002588800070888000818880000001be00d7
:1054e8000400be0024ed0700020020000300240091
:1054f80006ee07008df207000001be000a00be009c
:10550800e1ee070002002000a3372400ffed0700aa
:105518000001be000800be0017ed070030888800b3
:1055280041888800f8878000098880009a87800071
:10553800ab878000148880002588800070888000f0
:10554800818880000001be000400be000aed07004b
:105558000200200003002400eced07004ff40700d0
:105568000001be000a00be00c7ee070002002000ce
:10557800a3372400e5ed07000001be000800be00c7
:10558800fdec0700508888006188880070888000da
:105598008188800018c0b300b2fd20009304240065
:1055a80094ec07000000e00001003c000044eb0020
:1055b8000804e000070032007088800081888000bd
:1055c800b2fd2000930c2400e2ec070070888800ec
:1055d80081888800708880008188800018c0b300a6
:1055e800b2fd200093042c0080ec07000000e000ce
:1055f800010035000044eb000804e0000700320019
:105608007088800081888000b2fd2000930c2400ff
:10561800d9ec070070888800818888004f05be0093
:105628004f04be000080fa00000006002000fa00c7
:1056380070838000818380000001be008000eb0041
:105648000e0078003303070030888000418880000e
:105658000001be00410020000e007800140307007e
:1056680050888000618880000001be008100200011
:105678000e0078000e030700708880008188800083
:105688000001be00c10020000e00780008030700da
:1056980090878000a18780000001be0001012000e2
:1056a8000e00780002030700b0878000c1878000e1
:1056b8000001be00410120000e007800fc02070036
:1056c8005087800061878000780247000001be0093
:1056d8008000eb0004007800f50207007087800066
:1056e80081878000780247000001be004100200049
