:020000040000fa
:080000000002040000000000f2
:020000040000fa
:0400080008040000e8
:020000040000fa
:04000c0008040000e4
:020000040000fa
:0400100008040000e0
:020000040000fa
:0400140008040000dc
:020000040000fa
:0400180008040000d8
:020000040000fa
:04001c0008040000d4
:020000040000fa
:0400200008040000d0
:020000040000fa
:0400240008040000cc
:020000040000fa
:0400280008040000c8
:020000040000fa
:04002c0008040000c4
:020000040000fa
:0400300008040000c0
:020000040000fa
:0400340004030000c1
:020000040000fa
:0400380008040000b8
:020000040000fa
:04003c0008040000b4
:020000040000fa
:0400400008040000b0
:020000040000fa
:0400440008040000ac
:020000040000fa
:04004800fa020000b8
:020000040000fa
:04004c0008040000a4
:020000040000fa
:0400500008040000a0
:020000040000fa
:04005400c0030000e5
:020000040000fa
:04005800940300000d
:020000040000fa
:04005c006e0300002f
:020000040000fa
:040060000804000090
:020000040000fa
:04006400080400008c
:020000040000fa
:040068000804000088
:020000040000fa
:04006c000804000084
:020000040000fa
:040070000804000080
:020000040000fa
:04007400080400007c
:020000040000fa
:040078000804000078
:020000040000fa
:04007c000804000074
:020000040000fa
:040080000804000070
:020000040000fa
:04008400080400006c
:020000040000fa
:040088000804000068
:020000040000fa
:04008c000804000064
:020000040000fa
:040090000804000060
:020000040000fa
:040094003e03000027
:020000040000fa
:040098000804000058
:020000040000fa
:04009c000804000054
:020000040000fa
:0400a0000804000050
:020000040000fa
:0400a400080400004c
:020000040000fa
:0400a8000804000048
:020000040000fa
:0400ac000804000044
:020000040000fa
:0400b0000804000040
:020000040000fa
:0400b400080400003c
:020000040000fa
:0400b8000804000038
:020000040000fa
:0400bc000804000034
:020000040000fa
:0400c0000804000030
:020000040000fa
:0400c400080400002c
:020000040000fa
:0400c8000804000028
:020000040000fa
:0400cc000804000024
:020000040000fa
:0400d0000804000020
:020000040000fa
:0400d400080400001c
:020000040000fa
:0400d8000804000018
:020000040000fa
:0400dc000804000014
:020000040000fa
:0400e0000804000010
:020000040000fa
:0400e400080400000c
:020000040000fa
:0400e8000804000008
:020000040000fa
:0400ec000804000004
:020000040000fa
:0400f0000804000000
:020000040000fa
:0400f40008040000fc
:020000040000fa
:0400f80008040000f8
:020000040000fa
:0400fc0008040000f4
:020000040000fa
:0401000008040000ef
:020000040000fa
:0401040008040000eb
:020000040000fa
:0401080008040000e7
:020000040000fa
:04010c0008040000e3
:020000040000fa
:0401100008040000df
:020000040000fa
:0401140008040000db
:020000040000fa
:0401180008040000d7
:020000040000fa
:04011c0008040000d3
:020000040000fa
:0401200008040000cf
:020000040000fa
:0401240008040000cb
:020000040000fa
:0401280008040000c7
:020000040000fa
:04012c0008040000c3
:020000040000fa
:0401300008040000bf
:020000040000fa
:0401340008040000bb
:020000040000fa
:0401380008040000b7
:020000040000fa
:04013c0008040000b3
:020000040000fa
:0401400008040000af
:020000040000fa
:0401440008040000ab
:020000040000fa
:0401480008040000a7
:020000040000fa
:04014c0008040000a3
:020000040000fa
:04015000080400009f
:020000040000fa
:04015400080400009b
:020000040000fa
:040158000804000097
:020000040000fa
:04015c000804000093
:020000040000fa
:04016000080400008f
:020000040000fa
:04016400080400008b
:020000040000fa
:040168000804000087
:020000040000fa
:04016c000804000083
:020000040000fa
:04017000080400007f
:020000040000fa
:04017400080400007b
:020000040000fa
:040178000804000077
:020000040000fa
:04017c000804000073
:020000040000fa
:04018000080400006f
:020000040000fa
:04018400080400006b
:020000040000fa
:040188000804000067
:020000040000fa
:04018c000804000063
:020000040000fa
:04019000080400005f
:020000040000fa
:04019400080400005b
:020000040000fa
:040198000804000057
:020000040000fa
:04019c000804000053
:020000040000fa
:0401a000080400004f
:020000040000fa
:0401a400080400004b
:020000040000fa
:0401a8000804000047
:020000040000fa
:0401ac000804000043
:020000040000fa
:0401b000080400003f
:020000040000fa
:0401b400080400003b
:020000040000fa
:0401b8000804000037
:020000040000fa
:0401bc000804000033
:020000040000fa
:0401c000080400002f
:020000040000fa
:0401c400080400002b
:020000040000fa
:0401c8000804000027
:020000040000fa
:0401cc000804000023
:020000040000fa
:0401d000080400001f
:020000040000fa
:0401d400080400001b
:020000040000fa
:0401d8000804000017
:020000040000fa
:0401dc000804000013
:020000040000fa
:0401e000080400000f
:020000040000fa
:0401e400080400000b
:020000040000fa
:0401e8000804000007
:020000040000fa
:0401ec000804000003
:020000040000fa
:0401f00008040000ff
:020000040000fa
:0401f40008040000fb
:020000040000fa
:0401f80008040000f7
:020000040000fa
:0401fc0008040000f3
:020000040000fa
:0402000008040000ee
:020000040000fa
:0402040008040000ea
:020000040000fa
:0402080008040000e6
:020000040000fa
:04020c0008040000e2
:020000040000fa
:0402100008040000de
:020000040000fa
:0402140008040000da
:020000040000fa
:0402180008040000d6
:020000040000fa
:04021c0008040000d2
:020000040000fa
:0402200008040000ce
:020000040000fa
:0402240008040000ca
:020000040000fa
:0402280008040000c6
:020000040000fa
:04022c0008040000c2
:020000040000fa
:0402300008040000be
:020000040000fa
:0402340008040000ba
:020000040000fa
:0402380008040000b6
:020000040000fa
:04023c0008040000b2
:020000040000fa
:0402400008040000ae
:020000040000fa
:0402440008040000aa
:020000040000fa
:0402480008040000a6
:020000040000fa
:04024c0008040000a2
:020000040000fa
:04025000080400009e
:020000040000fa
:04025400080400009a
:020000040000fa
:040258000804000096
:020000040000fa
:04025c000804000092
:020000040000fa
:04026000080400008e
:020000040000fa
:04026400080400008a
:020000040000fa
:10040000ef5021000eff27000e01880000000000c1
:10041000000020000000e000020032000001200087
:100420002002880014000700fb0007000000e00025
:1004300003003a0000992300010020000200370069
:100440000000200001002000810f70000100320038
:100450000f000700000020000000e0000200320052
:100460000000020000000000921e020000000000d8
:100470000040da000000fe00200020000000e00044
:1004800002003200100020009001880000000600e9
:10049000a1028800800478000000eb001f003700f4
:1004a000e284440054a0b4009905ba00e2844400f8
:1004b00054a0b4009906ba00e284440054a0b400e9
:1004c0000006eb00476fde00fd07b200ae018800ba
:1004d000636ce10003003a000ad801000000eb0061
:1004e0000e003700606ce10008003a00004deb00a0
:1004f0000a05e800020039003420ec000af0a000f0
:100500008b05e900f9ff3e00040037006168e10057
:10051000010032000086eb000b00070019c7ba008b
:100520000e04e0001905ba0003003a000a00e000da
:10053000dbff3a0000000600fe07b200ae028800b2
:100540008a047800f5ff37000cd0a300e20f4d00bd
:100550001c003b0089027800354dba000a05e8000e
:10056000020039003420ec000af0a0008b05e900fd
:100570000f003200254dba000a05e80002003900dc
:100580003420ec000af0a0008b05e90008003200de
:100590000c00e0000600320015cdba000a05e800a4
:1005a000020039003420ec000af0a0008b05e900bd
:1005b0008984e80054a0b4000b00e000e2ff3a0098
:1005c000000006009902ba00055d78008b05e9007d
:1005d000f7ff3200c82ade00055d78008b05e900d0
:1005e000f3ff32000c00e000f1ff320019ddba0029
:1005f000eeff37000000fa000108a900000000002b
:100600000080fa00004006003600f800809fbe001f
:10061000829fbe00849fbe00869fbe000000fa003d
:100620000068a900a7180700a61c07003a130700d6
:10063000b609070024160700e08380000000e800e8
:10064000e0838800e0838000ea0f5000020034005d
:10065000be1407007c30ef00790d07000000000099
:100660000080fa004f03be004f02be004f01be00e3
:100670004f00be003600f900004006003600f800ca
:10068000809fbe00829fbe00849fbe00869fbe00ea
:100690000000fa000368a900c2838000d3838000b1
:1006a000100020000100200002004000838048006c
:1006b000c0838800d18388008c0f070000000000f1
:1006c0000080fa004f03be004f02be004f01be0083
:1006d0004f00be003600f90000400600801f780081
:1006e0000000fa0001a8a9000018800010a88800e6
:1006f0001018800020a888002018800030a88800ea
:100700004018800040a888003018800050a8880059
:1007100010c0b30099f0b700000000000080fa009c
:100720004f007800004006003600f800809fbe00b1
:10073000829fbe00849fbe00869fbe000000fa001c
:100740000188a9005184800040848000808f50007f
:10075000020032009d1b0700010037008c70ef0083
:10076000000000000080fa004f03be004f02be00f0
:100770004f01be004f00be003600f90000400600e9
:100780003600f800809fbe00829fbe00849fbe009e
:10079000869fbe000000fa000168a90010118000c9
:1007a0004200de0061406000e14f500001003a006d
:1007b0002242a900101180000000d10061406000b9
:1007c000e14f500005003a002222a9000300370043
:1007d0003011800000407800991c07001011800043
:1007e0000040780061406000e14f5000f8ff3200a7
:1007f000000000000080fa004f03be004f02be0060
:100800004f01be004f00be003600f9000040060058
:100810000040da000000fe00000005001400200087
:10082000af033700f4ff2f00ad0337000001be0017
:10083000410007000470a70003f0a1006509b100a2
:10084000160032000d0035006828e1000600350072
:10085000f0ff2f00f1ff27000300e00013003b0032
:1008600001002800000005000000400081804800d1
:100870008502e900fcff3a0008003700f88f4200cb
:1008800002003c008000eb00000005008100d10068
:100890000080d3008502e800fcff3a000300e0007e
:1008a00002003b0060001000e0801800000006001d
:1008b0000001be00200007000470a70003f0a100a3
:1008c00003f8a30013003a006509b10010003200dc
:1008d000090035006928e100020035000100280008
:1008e0000000050000004000818048008502e9000a
:1008f000fcff3a0000000600f88f420005003500ba
:100900008100d1000080d3008502e800fcff3a009e
:10091000000006008000eb00000005004f89de00ab
:1009200082017800890337006011b800970337000f
:10093000040020006a033700c70ade00f107b20096
:10094000f50fb20008003200e1cf42000200320091
:100950000170a00024000500810f7000010032002a
:100960000408050044000500810f700002003a00f1
:10097000140005008502e9000000400081c0480025
:10098000fcff3b000170a0002400050007f82700d1
:10099000078361000638e10004003a00f7072000f1
:1009a000878361008703710001003a0003f0a20011
:1009b000889fbe008a9fbe008c9fbe00470ade0053
:1009c0000480a100c71ade000580a10007002800ee
:1009d0000785600087856100f70f20000720e10090
:1009e0009e0032000728e1009c00320001067800da
:1009f0000400e000b4003200f707200087806000a8
:100a00000170a0000500e000c0003200f7072000e0
:100a1000878161000370a000050652000f003a00b4
:100a20000b50e1000b0032000308e10002003a0025
:100a30000200e1007e00320002045000838458006e
:100a4000040031000001fd008101fd008402fd0071
:100a50008a05fd006044b800210037000520e10050
:100a600005003d000001fd008101fd008402fd0044
:100a70008a05fd00050652007a60e1000500350098
:100a80000170a1004722dd00848070008a80700020
:100a9000630037006044b800ef02660007ff2f00d4
:100aa000070666000500e00006003400f08312002f
:100ab0008714dd000511de00071bdd000601710053
:100ac0008519de007060e10005003500090478003a
:100ad00082047800030178008001eb007006560064
:100ae0000b50e10003003a00020040008380480000
:100af0000400370060041400e0841c000200580069
:100b0000838058000188a300060032008100d100d4
:100b10000080d3008984d3000884d3000402e80055
:100b2000270037000178a30025003a000100e0000b
:100b3000030032008186cf00698656000a00370024
:100b40008c0020000000e00004003a00090078005a
:100b5000880478000004eb00700252008086cf0009
:100b60000d0646000c06e9007060e1000600350045
:100b70008000780009007800880478000004eb0009
:100b800070065600700252000c00e0000c003400a9
:100b90008c08dd00f00316000703de00868070007d
:100ba0000c00dd00074bde00060070008c4cdd0001
:100bb0000743de00868474000c44dd000c02520002
:100bc0006120e1002000350061016000070028007d
:100bd00087816400f7ff27008783640007037400a0
:100be0000300e000060032008203730004003200bc
:100bf0000000e800e08048000188a3000e003a00f1
:100c0000f70f20000720e1004a003d000170a1001d
:100c10004722dd00810072008a8070000000be0063
:100c20004f06be004f05be004f04be000000060088
:100c30006000b800faff37008100d1000080d300c7
:100c40000402e800eeff3700040178008901740017
:100c5000a10107008a807000f1ff3700f70107004b
:100c6000070278000001fd008101fd00f30107008b
:100c700087027800850372000778a3000400320021
:100c80000001fd008101fd0006020700e4ff3700be
:100c9000850362000768a300080032000b50e100e2
:100ca00003003200f0ff2f00f1ff2700dcff3700c8
:100cb0000001fd008101fd00d9ff37000468a30099
:100cc000d7ff3200faff3700f8ff27008883600063
:100cd0000b003a000000e00009003a0083036400c2
:100ce00082837300020032000200be00ccff370096
:100cf0000b50e100ceff3a000200be00c8ff3700f3
:100d000014002000810064003eff3700f8ff270038
:100d10008883610004003a000200e00002003a000b
:100d20008c007800beff37001500200083016400ae
:100d300039ff370001f8270000002000810075000e
:100d4000b7ff3700889fbe008a9fbe008c9fbe0001
:100d50001b0020000202be00058668000600280075
:100d6000060666004709de00f20fb200820032007c
:100d70000243e80080003200c729de00f30fb20012
:100d80007d0032000343e8007b003200f107b2002f
:100d90000170a000f507b2000570a000c708dd00d3
:100da0004903de00868070004700dd00c72add00b1
:100db0004923de00868272004722dd0003055100d0
:100dc00004035000858358000300310000004000f8
:100dd000818048000a05e9008c1f78008a9fbe00c8
:100de00004005000858058000402420085824a00b9
:100df00000004000818048000005eb000004be00b8
:100e00006033b8000406be000d48e1005600310012
:100e1000110009004dccd8000c01b8000d02b8003b
:100e20008481410060824a008283530003045c0095
:100e300084845c0060055d000a00e00025003a0043
:100e4000800578000d40e1004900310088007800fd
:100e500007007800110009004d88d8000c01b80087
:100e60000d02b8008481410060824a0060031100d5
:100e700083835b0004045c00e0845c000900e00004
:100e800021003a004f01be000300e0002b003200b9
:100e9000e3016000070673008c81710001003200dd
:100ea000640070004200de004e5edd000c00700049
:100eb000c258de0001e0a00083010700cf017800e6
:100ec000818071004f06be004f05be004f04be007a
:100ed000000006008c8343000d044c00e0844c00ad
:100ee00060054d000000e9000a00e000d4ff320078
:100ef0008c8343000d044c00e0844c0060054d00e1
:100f00000000e900ceff37000c0343008d834b0047
:100f100060044c00e0844c000000e9000900e0009f
:100f2000d8ff32000c0343008d834b0060044c005b
:100f3000e0844c000000e900d2ff37004200de00f0
:100f40004e5edd000c007000c258de0001e0a00023
:100f5000cf0178000300e000daff320060001000eb
:100f6000e0801800d7ff3700f0ff2f00aaff3700fe
:100f7000f0ff2f00b9ff37000404be002f01070067
:100f8000870678000004fd008104fd002b010700a6
:100f9000078366000678a300030032000960a700fb
:100fa0000800be002c0037000d78a30002003200bc
:100fb0000800be00280037000778a30026003a008a
:100fc00001f0a10009f0a1000668a30003003200af
:100fd000f1ff2700f0ff2f00baff37000d68a300d4
:100fe000030032000800be008c807000b5ff37009f
:100ff0000768a30007003a000648a3000300320078
:10100000f1ff2700f0ff2f00aeff37000d48a300cf
:10101000030032006000b8008c807000a9ff370028
:101020000748a3000400320001f827000000200058
:101030008c807000a3ff3700760107000004fd00dc
:101040008104fd0002057800720107000802be005d
:101050008a01780059ff37000160a00012022000c9
:10106000d284880097ff37000100e00012003200b0
:101070000500e00010003200889fbe008a9fbe007d
:101080008c9fbe000006eb0001f8a30003003200b5
:1010900060001000e08018000cf0a00005f8a3002c
:1010a0000300320060021200e0821a000cf0a2007d
:1010b0008005eb0041ff37006000b800020005002a
:1010c000038368000700280007036300470ade0067
:1010d0000480a100c71ade000580a100f70f2000e0
:1010e0000720e100420032000728e1004000320002
:1010f000889fbe008a9fbe008c1f7800f107b20057
:10110000f307b2000400e000640032000170a000a8
:101110000500e000680032000370a0008505420071
:10112000eb07b1000204b8000302b8008484440055
:1011300060854a00020ab800848444000a854a0097
:10114000030ab80004054500040033000804d00079
:101150008984d2000a85d2008b05e9006158e1003c
:101160003d00350002102000090161000308200045
:1011700089816100f7072000878364000886730077
:10118000c84cde00c853dd00878474004855de007b
:101190000300e00006003200820376000400320003
:1011a0008904e80060054d000a88a3000c003a009d
:1011b000f70f20000758e10044003d000a70a1002d
:1011c000c75ddd000a8575008a007300090078009c
:1011d0004f0678004f05be004f04be000000060019
:1011e0000a05d1008984d3008b05e800f0ff3700a1
:1011f000881f780006047800900007000702780036
:101200000001fd008101fd008c00070087027800cd
:10121000850372000778a300050032000001fd007d
:101220008101fd009f0007004f04780000000600c8
:10123000850372000748a30003003200f0ff2f006f
:10124000f1ff2700f8ff37000000200001f8270019
:1012500088807000f4ff3700880178004848dd007e
:10126000808171004848de00c850dd000100700038
:10127000c850de00060478000b0178001600070055
:1012800088807000d2ff37000500e00005003200c2
:10129000170020003a0007009dff3700810370000f
:1012a000f9ff3a00860078004f0678004f05be002f
:1012b0004f04be000000050083037100f9ff3200f7
:1012c000270020002e00070094ff370001f82700b8
:1012d00086807000f4ff37000100e0002600320035
:1012e000610111007810e10023003c006022b80089
:1012f0007010e100040035008002780001007800e1
:101300008000eb00700151000200e0000900340091
:1013100070031100062add00822ade008603dd004c
:10132000878272000200de00860bdd00070070007d
:101330008208de0084817100f4ff270004826200cd
:1013400084817100040028008482620061026000d0
:1013500005f0a600000006000482710007003200bc
:101360000000e800e0804800000006000002be0027
:101370006000b800efff37006000b8000000060012
:10138000889fbe000004eb006138e10016003a00bf
:101390000100e00008003a00c800de004800dd005f
:1013a000880020000100e00003003a00c800de00d1
:1013b0004800dd00680444008184cf00e9845400c3
:1013c000060034008908dd00f08314008703de0086
:1013d000878070000900dd000904440061021400e8
:1013e0004f04be00000006000300e00008003a00c1
:1013f000c811de004811dd00880020000300e00075
:1014000003003a00c811de004811dd006804440002
:101410008384cf00e9845400060034008919dd007c
:10142000f08314008713de00878171000911dd004d
:1014300009044400e1021400e9ff370027002000fe
:1014400001f0a70017002000470bde00f60fb200e6
:10145000040032000643e8000a0032004702b300ed
:101460000000060001037800f607b20006037000d2
:1014700002003a000703b300000006008702b30031
:101480000000060001037800f607b20006037000b2
:10149000020032000770a000000006000760a000f4
:1014a000000006000478a300040032000578a300c1
:1014b000030032000168a30001003a000200be00f0
:1014c0000160a000000006008101700027003200ca
:1014d0008002eb0001f8a30003003200600010005e
:1014e000e080180015002000f407200002024200ee
:1014f00020003400f703200087036000060420006a
:101500000003630002082000000161004700de00c4
:10151000c909dd0000807100c708de000600e00098
:101520000800320087037100060032001000b0008e
:101530000180b0000188a30002003200c108de0073
:101540000402e800f107b200f30f20000320e100dd
:1015500003003d004722dd008100720029003700b2
:1015600001f827000000eb00260037006000b800fb
:1015700000000600680212007f20e1000200340033
:101580006000b8001f0037006011b8007020e10053
:101590000400350080017800010078008000eb0035
:1015a000700252000400e00009003400f003120051
:1015b0000719dd008419de000703dd008681710054
:1015c0000400de00070bdd00060070008408de006a
:1015d000f7ff27008383630087037100060028005c
:1015e00003036300070032000700e00003003a0035
:1015f0006101600002817300020032001000b0003f
:101600000180b0000500a6000000060001f0a00067
:10161000000006004f0ade004709de00f107b200b5
:10162000f20fb2000b003200f207b1000170a0000f
:10163000c708dd00c901de00838070004700dd00bf
:101640000400a6000000060060001000e080180002
:1016500000000600810f700001003a000000060043
:101660008182cf000500e00010003e008082cf00a4
:10167000ee8242007028e1000400390007003e00bd
:10168000800078000000eb000e003700708312002d
:101690008600de000500dd000a003700708352007e
:1016a0008600dd000000eb0006003700e2825200f9
:1016b0008508dd00708312000603de00868070005e
:1016c0000500dd007507b0000501ea000400a60072
:1016d0000000060060001000e08018000000060016
:1016e000889fbe008a9fbe00841f78007c00070090
:1016f0004f00780011003300f0ff2f00838f6c0043
:1017000006003b00040565000a00a700080037003a
:1017100009f0a6001000200008003700820f5400d6
:10172000838f5c00030039001000200001003e00a0
:101730000000200009f0a7000000ea004f05be00ed
:101740004f04be000000e00000000600881f780083
:10175000030478000300e00007003d006000100073
:10176000e080180060011900e081190002003b00d0
:1017700001f02d00030037000400070008f0a70067
:1017800001f0a0004f04780000000600889fbe0012
:101790008a9fbe0000827000040271000482710002
:1017a000260032000004be000200be006011b80036
:1017b0006b092000950220000182cf000a00390049
:1017c0000541b1000082cf00070039000541b1009a
:1017d0000982cf00040039000541b1000882cf0022
:1017e000010039000541b1000542520012003200eb
:1017f0000a003b0082817100610164008100d10018
:101800000080d3008984d3000884d3008b05e800ce
:101810000442e800f7ff3a000700370008044400dc
:1018200089844c0000004800818048008b05e90055
:101830000442e900f9ff3a00030007004f05be002b
:101840004f04be00000006008100200061805500aa
:101850000b003d000b00200061fe2f000100e100a5
:101860001d00340082817100610164008904d1008f
:101870000884d3000000e800faff3a00710020005d
:101880006100640003007000020060000900320083
:1018900061044400e0844c000988a5000500320082
:1018a0008b05e8006808e10002003a008904d100d5
:1018b0000884d300f20f20000258e10005003d002b
:1018c000c75ddd00f907b200898075000800780067
:1018d000000006000bf827008b00780000000500d0
:1018e0000004be0014fc07000003be000405be0097
:1018f0000200be0010fc0700844f750000000600c7
:101900000400fa00889fbe008a9fbe008c9fbe0024
:101910000205be000bf0a1000800200009f8270016
:10192000880f5500898f5d0005003e000003be0052
:1019300007f0a100880f5300898f5b000600360076
:101940001bfc07004f06be004f05be004f04be0043
:101950000080fa00000006000800200009f82300bb
:10196000880f5100898f590002003a009700070044
:10197000f4ff37004e1cde000900200088bf9f00e6
:1019800099bf9f000fbe9700620466008004eb00c1
:101990004f0ade00050020000404740085847400f2
:1019a000e00f5300e08f5b0009003a00e20f5400a3
:1019b000e08f5c007f003200e20f5400e08f5c009b
:1019c000e0ff3900e30f5400e08f5c005f0032005d
:1019d000e00f5500e08f5d0008003a0061006400f0
:1019e0008000eb00e00f5000e08f580074003200e0
:1019f000b0fd200091fc2b00d2ff37000400200036
:101a000005f82700840f5500858f5d000f003a0010
:101a10008a0f53008b8f5b0040003a00e10f5400a7
:101a2000e08f5c0058003200e00f5400e08f5c0053
:101a300058003200e20f5400e08f5c002b003200af
:101a4000e30f5400e08f5c00310032000c002000f6
:101a50000dd020000a0246008b824e00840f5300f6
:101a6000858f5b00ddff3e000400200005f82700a5
:101a7000840f5300858f5b00d8ff32006202640040
:101a80008002eb00e00f5200e08f5a0005003200a8
:101a90000606460087864e008c0f55008d8f5d0030
:101aa0002d003e00a7fc070081010700470007004a
:101ab000e10f5400e08f5c0029003200e00f540079
:101ac000e08f5c009fff3200e20f5400e08f5c006b
:101ad00025003200e2d22b00b33b2300b4fb070009
:101ae000b2fd2000930424002500370002002000ee
:101af00003042400b0fd20009104240070fd0700c1
:101b00000200200003e823006dfd07008dff370071
:101b10000200200003042c00f6ff3700e10f540000
:101b2000e08f5c001e003200e00f5400e08f5c008c
:101b30001e003200e20f5400e08f5c001d003200f6
:101b4000e30f5400e08f5c00c0ff3a00b0fd2000be
:101b500091042c007bff37006000b800d4ff3700f1
:101b600001f0a20077ff3700e2d22b00b33b230045
:101b70008ffb07000001be00b0fd2000910424008f
:101b800082fb07006fff3700b0fd200091f42b00af
:101b90006cff3700b0fd200091f4230069ff37008f
:101ba000000020000100280066ff37006000b80038
:101bb00064ff3700b0fd20009104240061ff37006e
:101bc000b0fd200091fc23005eff3700ea8747004c
:101bd000889fbe008a9fbe008c9fbe008e1f78002b
:101be0000002be004f0dde000b0020000004780054
:101bf0008504780009f0a100f0ff2f00f1c7240050
:101c0000800f5400818f5c0010003600000020001f
:101c100001f82700800f5400818f5c0025003e00f2
:101c20000200200003382000a0fd200091fc2300ca
:101c30005ffb07000002be00e00f5500e08f5d0073
:101c40001c00320005f0a2001a003700f0ff2f0040
:101c5000f1ed2300800f5400818f5c001c003e00da
:101c60000087eb00f0ff2f00f1972300800f540056
:101c7000818f5c0033003e006000b80003f827004d
:101c800085806100e00f5000e08f580009003a00a5
:101c90000401be000400be00f4b79f0085bf9f0092
:101ca00007fd0700d0b79f00e1b79f007fb2970004
:101cb0008fba97000400be004f0778004f06be00a1
:101cc0004f05be004f04be00af00b100000006008b
:101cd0000400be00f60007000006be00f0ff2f0063
:101ce00071f92300800f5400818f5c0055003e0085
:101cf000f0ff2f00f1f22300800f5400818f5c0071
:101d000041003e000c01be000c00be0028fb070095
:101d10000200200003f823001cfb07000004be00a3
:101d200002002000030024000c00be0020fb07007e
:101d30000001be000800be0002fc07000002be0059
:101d40000007eb000401be000400be00f4b79f00d2
:101d500085bf9f00dafc07000006be000001be0040
:101d6000d7fc07000004be0052c22a00c3d72300dc
:101d7000d3fc0700d2502f0013e123000cfb070017
:101d80000801be00cefc070092aa2a00a3ea2300a5
:101d900007fb07000c01be00c9fc07000006be00df
:101da00072242100a3dd2b000800be00c4fc070044
:101db00082a92c00c3e42300f4fa07000801be0046
:101dc000bffc07000001be000c00be00f8fa0700cf
:101dd0007fb297008fba97000401be00b8fc0700dd
:101de0000003be000e00e0007fb297008fba97009c
:101df00032003d000001be000400be00e3fa07000f
:101e00000002be00abff37000200200003f82300f1
:101e10000c00be00ddfa07000004be000200200036
:101e200003f823000c00be00e1fa07000001be0029
:101e30000800be00c3fb07000002be001e00200019
:101e4000c0ff3700f0ff2f00b1012400800f5400c5
:101e5000818f5c0012003e000200200003fc230082
:101e60000c00be00c9fa07000004be0002002000fa
:101e700003fc23000c00be0091fc070002002000c0
:101e800003f82300cafa07000001be000800be00e4
:101e9000acfb07000002be002e002000a9ff3700a7
:101ea0000c01be000000200001f82b00a5fb07007c
:101eb0000002be003e002000a2ff37004277dd0096
:101ec000284f21000e044400204e21000e07400040
:101ed0001e0178009e0190000600be00f4b79f002e
:101ee00085bf9f00a9fa07007fb297008fba9700bd
:101ef0000401be00a5fa07000001be00180078002a
:101f000098009000a1fa07004aff37000400fa0089
:101f10000001be0003f0a100a4fd200095f4230001
:101f2000840f5100858f59000e003e00f4ff2f00f2
:101f3000f5972300840f5100858f59003a003e0029
:101f40000200200003b8270099fa0700e0bf9f00b5
:101f5000f1bf9f000000200001f823000080fa007c
:101f6000000006004f0ade0005002000163d250097
:101f7000b7072400860f5100878f59001b003e00d1
:101f800036be2c0067012400860f5100878f590050
:101f90000a003600b2fd2000930424000400e00093
:101fa0000400320082fa07003a02070001f0a200a2
:101fb000eaff370075fa0700fbff37000400e00076
:101fc00005003200b2fd200093fc230078fa0700e0
:101fd000bb020700e1ff37000001be00b0fd20009a
:101fe00091fc230069fa0700f9ff3700561d230012
:101ff000270e2400860f5100878f590014003e00e1
:10200000f6dd2e00f70a2400860f5100878f590055
:1020100009003600b2fd2000930c24000400e0000b
:102020000300320062fa07001a020700cbff3700f4
:1020300056fa0700fcff37000400e0000100320000
:1020400001f0a20042be2c0063092400e5ff370026
:10205000f4ff2f00f5f72700840f5100858f5900fa
:10206000040036000001be000200be0047fa07006f
:10207000baff3700c2ff2f000f01410039020700ed
:10208000630160006fb89700ffb89700e10f51003f
:1020900005003200e20f5100c3ff32000200e000f1
:1020a000cbff3a00e0ff370001f0a200c8ff370085
:1020b0000101780002f0a100820078000000060013
:1020c0000400fa00889fbe008a9fbe000203410000
:1020d00083834900e00f5300e08f5b000f00320064
:1020e0000202be0005f0a1000800200009f8270048
:1020f000880f5200898f5a0008003e00a0bf9f0041
:10210000b1bf9f00470dde000b002000f40f200040
:102110000a056200840f550007003a00e8fb07003b
:102120000001be0007fb07004f05be004f04be00c4
:102130000080fa0000000600000240008182480092
:10214000840f5300858f5b0006003900840f530015
:10215000858f5b00f4ff3a006011b800d8fb0700e0
:10216000f1ff37000a00e0004c003a002fbb970057
:10217000bfbb9700493add00c732de00850272001e
:102180004932dd00e00f5200e08f5a003f003d0071
:10219000610215002fbb9700bfbb970004047800b5
:1021a0000804e900030033000603430087834b0063
:1021b000fbff37000602be00471bde0007002000c1
:1021c0000683fb000600e0003d003a00491cdd00ec
:1021d000c714de00890474004914dd00e00f5400c8
:1021e000e08f5c0032003d00e10313000204be00fa
:1021f0008703e900030033000804440089844c008d
:10220000fbff37000801520089815a00860f5500f4
:102210002f003c00e00f5100e08f59000400350012
:10222000e00f5100e08f5900cbff32000202be00e8
:102230004728de0001002000e00f5000e08f58002a
:102240002e0032000a00e0003000340000002000c0
:1022500001f82f0004024000858248006150b90057
:10226000c700dd00000020000400700085807000c1
:102270006022b80002002800bfb997008302610005
:102280000000720081807200a7ff37000a05e90094
:102290000402420085824a00baff37002fba970035
:1022a000bfba9700f507b2000570a000c2ff370063
:1022b0000603e9000804440089844c00c7ff370086
:1022c0000204be00f907b2000970a000cdff37007c
:1022d000e00f5100e08f590004003500e00f51007d
:1022e000e08f59009cff32000202be00040242004f
:1022f00085824a000a05e900c2ff37000402420055
:1023000085824a000a05e900c9ff3700610515000a
:102310000400be000a05e900030033008100d1007b
:102320000080d300fbff3700d1ff37000800fa0020
:10233000889fbe008a9fbe008c9fbe000004be0026
:102340004708de000086fb0050092000800f560081
:1023500014003c0088bf9f0099bf9f000805be0085
:10236000e00f5400e08f5c0001003d000bf0a20084
:102370000200200003b024000a00be008cf9070010
:10238000d2072000820f56000c003c00e0b79f00ef
:10239000f1b79f006011b8000800be0048fb0700bd
:1023a0000004be000800be004f06be004f05be0080
:1023b0004f04be000080fa0000000600020020006a
:1023c00003b0240071f907000a01be006ff907008d
:1023d0000006be000001be000a00be0074f907003e
:1023e0000004be000200200003f023000c00be0029
:1023f0000cf907000000e0000c003400020020008f
:1024000003f823000800be0060f907000004be00c6
:102410000fb897009fb89700e00f5000e08f58006a
:10242000e0ff3d0009f0a200deff370002002000bf
:1024300003f02b000c00be00f8f807000000e000dd
:10244000f3ff3c000200200003f823000800be0058
:1024500057f90700edff37000400fa00889fbe001f
:102460000004be008900780001f0a100a4fd200056
:1024700095f42300840f5000858f58001e003e0005
:10248000f4ff2f00f5972300840f5000858f58002c
:1024900016003e006000b80003f827008980610044
:1024a000e00f5000e08f58000b003a0002002000bf
:1024b000033820000800be0001fb07000001be0039
:1024c000c2bf9f00d3bf9f000800be004f04be00e4
:1024d0000080fa00000006000200200003b8270078
:1024e0000800be0032f90700f4ff37000800be0004
:1024f00073010700180037004f49de000300200079
:10250000143d2500b5072400840f5000858f580026
:102510001d003e0034be2c0065012400840f5000d5
:10252000858f58000e003e000800be000200e0004b
:10253000b2fd200093fc2300050032001cf90700c7
:10254000d40007000004be0009f0a200deff37003f
:102550000ef90700cf0007000004be00daff3700c5
:102560000800be000200e000b2fd20009304240039
:10257000030032000ef9070001f0a200dcff370073
:1025800002f90700fcff3700541d2300250e24002c
:10259000840f5000858f580017003e00f4dd2e0098
:1025a000f50a2400840f5000858f580009003e0072
:1025b0000800be000200e00042be2c0063092400b7
:1025c00002003200faf80700e2ff3700eff80700d8
:1025d000dbff37000800be000200e000b2fd200073
:1025e000930c240002003200f1f80700c0ff37000e
:1025f000e6f80700beff3700f2ff2f00f3f72700d1
:10260000820f5000838f5800050036000801be007d
:102610000800be00ddf807000004be00aaff370076
:1026200082ff2f000f0141000800be00cd0007000f
:10263000630160004fb89700dfb89700e10f5100c9
:10264000c4ff3200e20f5100cbff32000200e00075
:10265000bbff3a00a6ff3700889fbe008a9fbe00de
:102660008c1f78000004be000003be006055b80057
:1026700004f82700890562000400200005f82700ff
:10268000840f5500858f5d000b003a000001be00ed
:102690008bfa07000001be000800be00c4f8070066
:1026a0000004be000800be004f0678004f05be00c3
:1026b0004f04be0000000600e00f5000e08f5800fd
:1026c00010003c000002be0005f0a100e00f520027
:1026d000e08f5a00f3ff3200e00f5000e08f580007
:1026e00008003d001002200060a888000801be001c
:1026f0000800be00a5f807000001be0091f9070020
:10270000e7ff370047bdde00cfbdde00e00f55001c
:10271000e08f5d000c003a000603430087834b0006
:1027200061004500e0804d000001eb00870178006a
:102730000308b200e00f5100e08f59004d00320055
:1027400060051500e0851d00fa07b1000b80b1009f
:102750000600be00f107b2000170a0006101650033
:102760008001eb00e00f5100e08f590002003200c1
:1027700000004000818048008b85d1000a85d3008d
:1027800000004000818048009c01200002002000e1
:10279000031020006044b8006033b8000602410016
:1027a00087824900800f5200818f5a0006003c004a
:1027b00004034100858349000400500085805800cf
:1027c00008044100898449000000400081804800dd
:1027d0008301d1000281d3000c06e9000c00e00067
:1027e000eeff3a00e00f5000e08f58001600320074
:1027f0000226240023da20000000200001f8230034
:1028000062f807000200200003f8230005f8070023
:102810000000e0000c0035000226240023da20002e
:102820000000200001f8230061f8070002002000ea
:1028300003f82300fbf707000000e0000f0034005e
:1028400062044400e0844c008984d1000884d300f1
:102850000000200001f023000800400089804800ab
:10286000c755dd000a0020000a0440008b844800a0
:102870008cff37000005be00a7ff37006100440051
:10288000e0804c00000478000800a100810478007a
:10289000edff37000400fa00889fbe008a9fbe004b
:1028a0008c9fbe000001be0005fa07000004be00b8
:1028b0000001be0002fa07000005be000200200071
:1028c00003f02b000800be00fdf907000200200005
:1028d00003f8230036f807000006be00f2a92a001c
:1028e000a3d223000a00be00f5f907000001be00d4
:1028f0000c00be002ef807000002be0072a12900e5
:10290000c37c23000800be0084bf9f0095bf9f00ca
:10291000ebf90700f243200063ab23001bf807002c
:102920000006be000a01be000800be00e4f9070070
:102930000001be000c00be00e1f907000001be006e
:102940000fba97009fba97000400be0018f807005e
:102950004f06be004f05be004f04be000080fa00c7
:10296000000006000400fa00889fbe008a9fbe0097
:102970008c9fbe00000678008104780082067800f3
:1029800001f0a100a2fd200093dc2400820f500082
:10299000838f580023003e0032982f0023f223003b
:1029a00089007800c6f907000200200003b4240063
:1029b000fff707000200200003b42400f3f707002c
:1029c0000005be0099f7070000047800a2fd200072
:1029d00093fc23000a00be00b9f907000001be0005
:1029e0000c00780089007800e8f707000002be00bc
:1029f000325a2800832823000a00be0084bf9f00ab
:102a000095bf9f00aef907000001be000fba970006
:102a10009fba97000400be00dcf70700808ebe005e
:102a20000b003700f2ff2f00f3f72700820f500052
:102a3000838f58000c00360000017800890178006f
:102a400089007800d1f70700808ebe000004eb00fb
:102a5000080078004f06be004f05be004f04be00c0
:102a60000080fa0000000600890078004c00070092
:102a70000005be0032982f0023f2230090f90700d2
:102a80000200200003f02300c9f7070055000700eb
:102a9000000478002dfb070032982f0023f223005a
:102aa000a8f807000001be000a00be00b7f7070043
:102ab0006000b800a0069800b1069800d7ff370064
:102ac0000400fa00889fbe008a9fbe008c9fbe0053
:102ad0000006be000001be0079f907000004be0038
:102ae0000001be000c00be0075f907000005be0025
:102af0000801be000800be0071f907000a01be000f
:102b00006ff907000002be00c2c326006363230002
:102b10000800be0084bf9f0095bf9f0068f90700b2
:102b2000f27c20000395230098f707000001be0007
:102b30000fba97009fba97000400be0060f9070023
:102b40000002be004288280083c023000800be00a7
:102b500084bf9f0095bf9f0059f90700b2aa2a00c1
:102b6000a3e2230089f707000a01be0054f9070019
:102b70000c01be008ef707000001be000fba9700df
:102b80009fba97000400be0089f707004f06be00f9
:102b90004f05be004f04be000080fa000000060092
:102ba0000400fa006011b800e2bf9f00f3bf9f006d
:102bb0006fbb9700ffbb97000002be00f0ff2f0025
:102bc000f1ff2f00f2ff2f00f3ff2700000062004b
:102bd0008180620002016300838163000080fa004b
:102be000000006000003be0053f707006011b800a4
:102bf0000470a70007f0a1006509b1001b003200b6
:102c000012003500860220000628e1000800350089
:102c1000f3ff2700f2ff2f006110b9000700e0006a
:102c200018003b00030028006000b8000200050007
:102c30000000400081804800020149008381490072
:102c40008502e900faff3a0008003700f88f4200d9
:102c500002003c008000eb00000005008100d10074
:102c60000080d3008502e800fcff3a000700e00086
:102c700004003b0060001000e080180060011900b3
:082c8000e081190000000600cc
:020000040000fa
:102c88000000fa0010d72300a1fa2300f0a588005d
:102c980001a688006000b80010a6880021a6880058
:102ca800b0fd200091042c0030a6880041a68800c1
:102cb8006000b80050a6880061a688006000b800cf
:102cc80070a6880081a688006000b80090a68800d9
:102cd800a1a688006000b800b0a68800c1a6880038
:102ce8006000b800d0a68800e1a688006000b8009f
:102cf800f0a6880001a78800000000000080fa0004
:102d0800000006002600fa00889fbe008a9fbe00c9
:102d180094a68000a5a68000f0a5800001a68000ea
:102d28000001be000400be0016f70700000178008d
:102d3800010078008204780000047800b4a68000be
:102d4800c5a6800010a6800021a680000001be0054
:102d58000400be000bf707000001780001007800ae
:102d68008202780000027800090078008800780064
:102d78000001be0005007800840078000000be0055
:102d8800ddfa0700600798007107980030a68000f8
:102d980041a680006e019000fe01900024110700fa
:102da8000002be0030a6800041a680000001be00df
:102db8000400be00f3f60700000f9800110f9800fa
:102dc8000e0990009e099000d2a68800e3a688000c
:102dd80074a6800085a6800070a6800081a6800069
:102de8000001be000400be00b3f80700000178002f
:102df800010078008204780000047800f0828000e6
:102e0800018380000001be00e7f60700000178009a
:102e18000100780082017800000178000300780042
:102e2800820078000001be00090078008800780060
:102e38000000be00c1f70700008fbe0070a680002a
:102e480081a6800002002000a3372400bbf70700fa
:102e5800200798003107980050a6800061a68000de
:102e680002002000a3372400b4f7070040079800a9
:102e78005107980054a6800065a6800050a68000df
:102e880061a680000001be000400be008af80700a9
:102e980000017800010078008204780000047800be
:102ea80050838000618380000001be00bef60700e9
:102eb80000017800010078008201780000017800a4
:102ec80003007800820078000001be000900780045
:102ed800880078000000be0098f70700200f9800cf
:102ee800310f980094a68000a5a68000f0a5800068
:102ef80001a680000001be000400be00a1f6070084
:102f0800000178000100780082047800000478004d
:102f180094a68000a5a68000f0a5800001a68000e8
:102f28000001be000400be0096f60700000178000c
:102f38000100780082017800000178000300780021
:102f4800820078000001be0009007800880078003f
:102f58000000be0058f80700000178000100780062
:102f68008204780000047800b4a68000c5a680001a
:102f780010a6800021a680000001be000400be004b
:102f880080f60700000178000100780082057800cb
:102f980000057800b4a68000c5a6800010a68000b1
:102fa80021a680000001be000400be0075f60700df
:102fb80000017800010078008201780000017800a3
:102fc80003007800820078000001be000b00780042
:102fd8008a0078000000be0037f80700000178007a
:102fe8000100780082017800000178000300780071
:102ff800820078000001be0009007800880078008f
:103008000000be0068f607000001780001007800a3
:1030180082017800000178000300780082007800bf
:103028000000be008afd0700400f9800510f98006d
:103038004e099000de099000f2a6880003a78800d8
:10304800908480000000e00025003a00a084800001
:10305800e60f5000f2023c00a08480008000e800e7
:10306800a1848800ea01b9006047210000004100fe
:10307800fc004700b0187800a0107800e4804000f9
:1030880064004000b0187800a0107800e480400088
:1030980064004000900878008180e8000080e80023
:1030a8006e089000fe08900090a68800a1a68800ef
:1030b8000e1090009e109000b0a68800c1a688004f
:1030c8002e1090000000e0000200320030002000c6
:1030d800010037001000200090848800d0023700db
:1030e80090848000e10f500003003200908480003b
:1030f800e30f500053013a0070a6800081a68000bb
:103108006011b800c3f507000000e00004003d00ae
:103118001e0078009e00900001f0a200008fbe0003
:103128006011b8001e0078009e009000bbf50700f3
:103138000000e000060035006011b8000e0890009d
:103148009e089000b5f507000000e0000c003d0067
:103158006011b8001e0078009e009000adf50700d1
:103168000000e0005d003c006011b8000e0890000f
:103178009e089000a7f507000000e00057003c00fb
:103188000e0890009e089000150f07000004be006e
:103198001e0078009e009000110f07000001be007d
:1031a8000800be009df507000000e0004b00350058
:1031b8006011b8000e0890009e08900097f507006f
:1031c8000000e0001e003400d8828000e982800000
:1031d8007aa680008ba68000f082800001838000a0
:1031e80002002000a3372400d4f60700000178006d
:1031f800010078008201780000017800030078005f
:10320800820078000001be000a00be00e6f5070053
:10321800000178000100780082027800000278003e
:103228000801be0005007800840078000000be0098
:10323800170f070070a6880081a68800d6003700ff
:103248006011b8000e0890009e08900071f5070004
:103258000000e00001003500cf003700d082800078
:10326800e18280000004be0009f0a2007aa6800076
:103278008ba68000f082800001838000020020007d
:10328800a3372400adf6070000017800010078009c
:10329800820178000001780003007800820078003d
:1032a8000001be000a00be00b6f507000001780064
:1032b8000100780082027800000278000801be0050
:1032c80005007800840078000000be00d90e0700d1
:1032d80070a6880081a68800af0037006011b8008a
:1032e8000e0890009e0890004cf507000000e000d2
:1032f8002200350070a6800081a680006011b80009
:1033080046f507000000e0001c00340078a68000a5
:1033180089a68000f08280000183800002002000de
:10332800a337240085f60700000178000100780023
:10333800820178000001780003007800820078009c
:103348000001be000800be008ef5070000017800ed
:103358000100780082027800000278006011b8004d
:1033680005007800840078000000be00b10e070058
:1033780070a6880081a68800770037006011b80021
:103388000e0890009e08900024f507000000e00059
:103398002200350070a6800081a680006011b80068
:1033a8001cf507000000e0001c003d0078a6800026
:1033b80089a68000f082800001838000020020003e
:1033c800a33724005df607000001780001007800ab
:1033d80082017800000178000300780082007800fc
:1033e8000001be000800be006ff50700000178006c
:1033f8000100780082027800000278006011b800ad
:1034080005007800840078000000be00a00e0700c8
:1034180070a6880081a688004f0037006011b800a8
:103428000e0890009e089000faf407000000e000e3
:1034380022003c0070a6800081a680006011b800c0
:10344800f6f407000000e0001c00340078a68000b5
:1034580089a68000f082800001838000020020009d
:10346800a337240035f60700000178000100780032
:10347800820178000001780003007800820078005b
:103488000001be000800be003ef5070000017800fc
:103498000100780082027800000278006011b8000c
:1034a80005007800840078000000be00610e070067
:1034b80070a6880081a68800270037006011b80030
:1034c8000e0890009e089000d2f407000000e0006b
:1034d80021003c0070a6800081a680006011b80021
:1034e800ccf407000000e0001b003d0078a6800037
:1034f80089a68000f08280000183800002002000fd
:10350800a33724000df607000001780001007800b9
:1035180082017800000178000300780082007800ba
:103528000001be000800be001ff50700000178007a
:103538000100780082027800000278006011b8006b
:1035480005007800840078000000be00500e0700d7
:1035580070a6880081a688000e0890009e0890003a
:103568001f0e07000004be002e009000be00900051
:103578001b0e07000001be000800be00a5f40700ee
:103588000000e00004003d000e0990009e09900034
:10359800220798003307980030a6800041a68000d3
:1035a8002e019000be019000fff407008001780012
:1035b8000101780003007800820078000000be0056
:1035c80030a6880041a6880070a6800081a68000e9
:1035d800308988004189880070a6800081a6800013
:1035e8006011b8008bf407000000e0008c013a007d
:1035f8000e0890009e089000f90d0700a2702d009b
:1036080033c2230083f407000000e0000100350006
:10361800830137006e019000fe01900032a68800f9
:1036280043a6880090848000e30f50000300320016
:103638002000200090848800790137009230ef0044
:103648007701370090848000e20f500074013a003f
:103658006011b8004e089000de089000b2f4070030
:103668000000e000260132000e0890009e0890003d
:10367800410e0700a2702d0033c2230065f4070035
:103688000000e0001e013d006011b8002e08900007
:10369800be08900061f407000000e0000600350055
:1036a8006011b8004e089000de0890005bf4070037
:1036b8000000e0000c003d006011b8002e089000ea
:1036c800be08900053f407000000e0005d003c00d5
:1036d8006011b8004e089000de0890004df4070015
:1036e8000000e00057003c004e089000de08900003
:1036f800bb0d07000004be002e089000be08900015
:10370800b70d07000001be000800be0043f4070023
:103718000000e0004b0035006011b8004e08900032
:10372800de0890003df407000000e0001e003400b1
:1037380018838000298380005aa680006ba6800029
:10374800508380006183800002002000a33724009a
:103758007af50700000178000100780082017800fe
:103768000001780003007800820078000001be00a4
:103778000a00be008cf40700000178000100780000
:1037880082027800000278000801be000500780077
:10379800840078000000be00bd0d070050a6880018
:1037a80061a68800d60037006011b8004e08900066
:1037b800de08900017f407000000e0000100350063
:1037c800cf00370010838000218380000004be00f2
:1037d80009f0a2005aa680006ba6800050838000e2
:1037e8006183800002002000a337240053f50700fe
:1037f800000178000100780082017800000178005b
:1038080003007800820078000001be000a00be00b4
:103818005cf407000001780001007800820278005b
:10382800000278000801be000500780084007800d6
:103838000000be007f0d070050a6880061a6880022
:10384800af0037006011b8004e089000de08900005
:10385800f2f307000000e0002200350050a68000c7
:1038680061a680006011b800ecf307000000e000da
:103878001c00340058a6800069a680005083800090
:103888006183800002002000a33724002bf5070085
:1038980000017800010078008201780000017800ba
:1038a80003007800820078000001be000800be0016
:1038b80034f40700000178000100780082027800e3
:1038c800000278006011b8000500780084007800d4
:1038d8000000be00570d070050a6880061a68800aa
:1038e800770037006011b8004e089000de0890009d
:1038f800caf307000000e0002200350050a680004f
:1039080061a680006011b800c2f307000000e00063
:103918001c003d0058a6800069a6800050838000e6
:103928006183800002002000a337240003f507000c
:103938000001780001007800820178000001780019
:1039480003007800820078000001be000800be0075
:1039580015f4070000017800010078008202780061
:10396800000278006011b800050078008400780033
:103978000000be00460d070050a6880061a688001a
:103988004f0037006011b8004e089000de08900024
:10399800a0f307000000e00022003c0050a68000d1
:1039a80061a680006011b8009cf307000000e000e9
:1039b8001c00340058a6800069a68000508380004f
:1039c8006183800002002000a3372400dbf4070095
:1039d8000001780001007800820178000001780079
:1039e80003007800820078000001be000800be00d5
:1039f800e4f30700000178000100780082027800f3
:103a0800000278006011b800050078008400780092
:103a18000000be00070d070050a6880061a68800b8
:103a2800270037006011b8004e089000de089000ab
:103a380078f307000000e00021003c0050a6800059
:103a480061a680006011b80072f307000000e00072
:103a58001b003d0058a6800069a6800050838000a6
:103a68006183800002002000a3372400b3f407001c
:103a780000017800010078008201780000017800d8
:103a880003007800820078000001be000800be0034
:103a9800c5f3070000017800010078008202780071
:103aa800000278006011b8000500780084007800f2
:103ab8000000be00f60c070050a6880061a688002a
:103ac8004e089000de089000c50c07000004be00f8
:103ad8004e009000de009000c10c07000001be00ff
:103ae8000800be004bf307000000e00004003d00a2
:103af8004e099000de09900042079800530798008d
:103b08004e089000de089000b50c070072712b007b
:103b1800138d23003ff307000000e0000c003d0078
:103b28006000b80050a6880061a6880090a68000b2
:103b3800a1a68000f0a5880001a68800b0a6800094
:103b4800c1a6800010a6880021a688009230ef0048
:103b580030a6800041a68000eaf807004e019000d8
:103b6800de01900054f5070000017800010078009c
:103b78008202780000027800f0a5800001a680008b
:103b88000001be0005007800840078000000be0037
:103b980085f30700800178000101780003007800b0
:103ba800820078000000be00f0a5880001a6880009
:103bb80030a6800041a6800025fa07004e0190003b
:103bc800de0190003cf50700000178000100780054
:103bd800820278000002780010a6800021a68000ea
:103be8000001be0005007800840078000000be00d7
:103bf8006df3070080017800010178000300780068
:103c0800820078000000be0010a6880021a6880067
:103c180050a6800061a6800010898800218988004c
:103c280005000700000000004f05be004f04be005d
:103c38000080fa00000006002000fa00c08380001f
:103c4800d183800000017800810178008000eb00ba
:103c58000e0078003b0d0700d0a68000e1a680008a
:103c68000001be00410020000e007800180d07007a
:103c7800f0a6800001a780000001be00810020009e
:103c88000e007800120d070030a6800041a68000c3
:103c98000001be00c10020000e0078000c0d0700d6
:103ca80070a6800081a680000001be0001012000ee
:103cb8000e007800060d0700f0a5800001a6800020
:103cc8000001be00410120000e007800000d070031
:103cd80010a6800021a680000001be0081012000fe
:103ce8000e007800fa0c070050a6800061a680003c
:103cf8000001be00c10120000e007800f40c07008e
:103d08000e0178000102200000012000c203070014
:103d1800000000000080fa00000006001a00fa0007
:103d2800f80e07004c0e0700120907002b090700c0
:103d3800eb090700a40e0700aa0a0700830f070073
:103d4800630507006a050700cdfb07000000200097
:103d5800812c2400809fbe0000002000812c2400bc
:103d6800809fbe0000002000812c2400809fbe00a0
:103d78006033b8000400200005222400d2cc2c00b7
:103d8800c3042400601321002e070700ec875700a6
:103d980000002000812c2400809fbe00000020002d
:103da800812c2400809fbe0000002000812c24006c
:103db800809fbe006033b800040020004523240023
:103dc8003233230033052400601621001d07070045
:103dd800ec8757000000eb00000f78000200370066
:103de800280f0700df030700370f07000004e00073
:103df800fbff3a00ba0e0700e14f5000f7ff3a0008
:103e0800bb0e0700b20e0700100798000e80e800ee
:103e18006100200010804000100078008000eb0056
:103e2800bff207003233230033052400a2f4070051
:103e38000001780001007800820278000002780012
:103e48000200200003582400050078008400780050
:103e58000000be00b9f3070020079800310798005a
:103e68002e019000be019000000020008120240057
:103e7800b2f30700000178000100780082027800a0
:103e88000002780002002000030a240005007800e0
:103e9800840078000000be00baf2070080017800b4
:103ea8000101780003007800820078000000be005d
:103eb800d0858800e18588001e00900010007800f9
:103ec8008000eb0096f2070032332300330524000c
:103ed80079f4070000017800010078008202780078
:103ee8000002780002002000035824000500780032
:103ef800840078000000be0090f3070020079800b7
:103f0800310798002e019000be01900000002000ab
:103f18008120240089f3070000017800010078005f
:103f2800820278000002780002002000030a2400c0
:103f380005007800840078000000be0091f20700b8
:103f48008001780001017800030078008200780081
:103f58000000be00f0858800018688000e80e80019
:103f68001080e800100078008000eb006cf2070079
:103f780032332300330524004ff407000001780092
:103f88000100780082027800000278000200200018
:103f98000358240005007800840078000000be0063
:103fa80066f3070020079800310798002e0190005b
:103fb800be01900000002000812024005ff307006c
:103fc8000001780001007800820278000002780081
:103fd80002002000030a240005007800840078000d
:103fe8000000be0067f20700800178000101780038
:103ff80003007800820078000000be0090858800e9
:10400800a18588000e80e800410020001080400053
:10401800100078008000eb0041f2070032332300e3
:104028003305240024f4070000017800010078001b
:104038008202780000027800020020000358240061
:1040480005007800840078000000be003bf30700fc
:1040580020079800310798002e019000be019000bb
:10406800000020008120240034f3070000017800bc
:104078000100780082027800000278000200200027
:10408800030a240005007800840078000000be00c0
:104098003cf20700800178000101780003007800f5
:1040a800820078000000be00b0858800c1858800c5
:1040b8000e80e80081002000108040001000780089
:1040c8008000eb0016f2070032332300330524008a
:1040d800f9f30700000178000100780082027800f7
:1040e8000002780002002000035824000500780030
:1040f800840078000000be0010f307002007980035
:10410800310798002e019000be01900000002000a9
:104118008120240009f307000001780001007800dd
:10412800820278000002780002002000030a2400be
:1041380005007800840078000000be0011f2070036
:10414800800178000101780003007800820078007f
:104158000000be0070858800818588007085800019
:104168008185800002002000832c2400abf1070029
:104178000000e0000400340000002000812c24002e
:10418800708588008185880090858000a1858000e1
:1041980002002000832c2400a0f107000000e000aa
:1041a8000400340000002000812c24009085880041
:1041b800a1858800b0858000c185800002002000ac
:1041c800832c240095f107000000e000040034006f
:1041d80000002000812c2400b0858800c18588005b
:1041e800f08580000186800002002000832c2400d6
:1041f8008af107000000e0000400340000002000fd
:10420800812c2400f085880001868800d0858000f4
:10421800e185800002002000832c24007ff1070044
:104228000000e0000400340000002000812c24007d
:10423800d0858800e18588001e0fe8001e00780000
:10424800e90f50007400340070858000818580007b
:1042580074f1070000407800004f980070858000d6
:10426800818580006ff107004880de0000407800fb
:10427800104f980090858000a185800069f10700a3
:1042880000407800204f980090858000a18580002c
:1042980064f107004880de0000407800304f980045
:1042a800b0858000c18580005ef10700004078007d
:1042b800404f9800b0858000c185800059f1070003
:1042c8004880de0000407800504f9800d08580007c
:1042d800e185800053f1070000407800604f9800a6
:1042e800d0858000e18580004ef107004880de001f
:1042f80000407800704f9800f085800001868000ab
:1043080048f107000040780000579800f0858000c9
:104318000186800043f107004880de0000407800f5
:10432800105798006800470000017800210020001d
:1043380010032000380207006a00470000017800d7
:104348002100200020032000330207006c004700f2
:104358000001780021002000300320002e02070011
:104368006e00470000017800210020004003200073
:104378002902070070004700000178002100200092
:10438800500320002402070030858000418580000a
:10439800720247000001be008000eb0004007800b4
:1043a8004b0b0700f08480000185800072024700f3
:1043b8000001be004100200004007800440b070003
:1043c80072004700000178008100200010042000de
:1043d80011020700220c2100810120001009200091
:1043e8000d020700a20d21008101200020092000f4
:1043f80009020700220f2100810020005009200037
:1044080005020700e30607000e0707003907070043
:104418000000eb00000f7800d0858000e185800067
:1044280002002000031a2400faf007000000e00050
:1044380002003d00754ea80001003700754ea90026
:10444800708580008185800002002000031a240006
:10445800f0f007000000e00002003d00856ea800b3
:1044680001003700856ea900b0858000c1858000f5
:1044780002002000031a2400e6f007000000e00014
:1044880002003d00848ea80001003700848ea90038
:1044980090858000a185800002002000031a240076
:1044a800dcf007000000e00002003d0084aea80038
:1044b8000100370084aea900f085800001868000e5
:1044c80002002000031a2400d2f007000000e000d8
:1044d80002003d0084cea80040fe370084cea9002b
:1044e8003efe37000400fa0076d0bf000080fb00d3
:1044f8006100b9001201200003002000820f500063
:10450800838f5800c3003e000006010011003700e9
:104518001a003700230037002d0037002e0037001f
:1045280038003700390037004300370044003700af
:104538004e0037004f00370059003700b5003700ec
:10454800b4003700b3003700b20037005600370018
:10455800ae0037007830ef007a30ef00120020000c
:104568006000b800bb0807000001eb006000b8005d
:10457800b808070010c0b30076f0b700c283800007
:10458800d3838000803e200001002000800f51006e
:10459800818f5900a100360020c0b30076f0b70023
:1045a8009e0037001200200000002000811c24001b
:1045b800a80807000001eb0000002000811c24006f
:1045c800a408070030c0b30076f0b70094003700a5
:1045d800960007009200370012002000000020001b
:1045e800011524009b0807000001eb0000002000d3
:1045f800010e2c009708070050c0b30076f0b700f2
:104608008700370089000700850037001200200066
:1046180000002000010e2c008e0807000001eb00ae
:1046280000002000011524008a08070070c0b300ac
:1046380076f0b7007a0037007c0007007800370072
:104648001200200000002000011724008108070044
:104658000001eb000000200001172c007d08070076
:1046680090c0b30076f0b7006d0037006f00070008
:104678006b003700120020000000200001172c00fa
:10468800740807000001eb00000020000117240057
:1046980070080700b0c0b30076f0b70060003700bc
:1046a800620007005e00370090858000a1858000c9
:1046b800020020008324240058f007000000e000d6
:1046c8000300340040012000000f7800210037006b
:1046d80090858000a185800002002000031a240034
:1046e8004cf007000000e00003003d0010ff2f0021
:1046f800000f78001700370090858000a1858000a2
:104708006011b8006cf20700000178000100780021
:1047180082027800000278000200200003042400ce
:1047280005007800840078000000be009ef00700b5
:10473800000178000100780082017800000178000b
:1047480003007800820078000000be0035f0070002
:10475800000f7800708580008185800002002000ad
:10476800832424002df007000000e000030034003b
:104778004001200010079800210037007085800054
:104788008185800002002000031a240021f0070020
:104798000000e00003003d0010ff2f001007980004
:1047a8001700370070858000818580006011b8008f
:1047b80041f20700000178000100780082027800c9
:1047c800000278000200200003042400050078009d
:1047d800840078000000be0073f007000001780034
:1047e8000100780082017800000178000300780059
:1047f800820078000000be000af007001007980049
:1048080010c1b30076f0b7000500370007000700b5
:10481800030037007670ef00010037000000000049
:10482800000000000080fa00000006000200fa0004
:104838000040eb00004f7800d0858000e1858000c3
:1048480002002000831c2400f2ef07000000e000b3
:1048580007003500708580008185800002002000f7
:10486800831c2400ebef07000000e00018003d0067
:10487800b0858000c185800002002000831c2400d0
:10488800e6ef07000000e00011003400908580008a
:10489800a185800002002000831c2400dfef0700b0
:1048a8000000e0000a003400f085800001868000e6
:1048b80002002000031e2400d8ef07000000e000db
:1048c8000300340020c0b300004f780066003700b2
:1048d800d0858000e185800002002000831c240030
:1048e800ceef07000000e0001f0034007085800054
:1048f8008185800002002000831c2400c7ef070088
:104908000000e00018003400b0858000c1858000f8
:1049180002002000831c2400c0ef07000000e00014
:104928001100340090858000a185800002002000dd
:10493800831c2400b7ef07000000e00007003500e3
:10494800f08580000186800002002000031e2400fc
:10495800b0ef07000000e00003003d0010c0b30006
:10496800004f780040003700b0858000c185800086
:1049780002002000831c2400a6ef07000000e000ce
:1049880003003d0030c0b300004f78003600370008
:1049980090858000a18580000200200083242400e7
:1049a8009cef07000000e0000700350070858000dc
:1049b80081858000020020008324240095ef0700f1
:1049c8000000e00003003d0040c0b300004f780045
:1049d80025003700d0858000e18580000200200096
:1049e800831c24008def07000000e0001e00340047
:1049f800708580008185800002002000831c2400cf
:104a080086ef07000000e00017003400b085800042
:104a1800c185800002002000031f24007fef0700eb
:104a28000000e0001000340090858000a18580001f
:104a380002002000831c240078ef07000000e0003b
:104a480009003400f0858000018680000200200003
:104a5800831c240071ef07000000e000020034000e
:104a68000040eb00004f78001e4078000004e00092
:104a780003003a0020c0b30077f0b70023003700e6
:104a88001e407800e24f500003003a0040c0b300d7
:104a980077f0b7001d0037001e407800e14f500046
:104aa80003003a0060c0b30077f0b7001700370082
:104ab8001e407800e44f500003003a0000c1b300e4
:104ac80077f0b700110037001e407800e34f500020
:104ad8000e003a00f485800005868000d0858000ad
:104ae800e18580000001be000400be004bef070016
:104af8000000e0000300340080c0b30077f0b70086
:104b080002003700a0c0b30077f0b70077d0bf002d
:104b18000080fb0061072100914078008180fb0044
:104b28008100e900810f50000200320077d0bf00f9
:104b380076f0b700000000000080fa0000000600d0
:104b48000a00fa00200798003107980042079800e9
:104b58000040eb00004f78009e407800e0cfb300a3
:104b680000c06800004f78002e0090004880de00ea
:104b7800004078009e40780000c06800004f780030
:104b88002e009000004078009e40780000c0680029
:104b9800004f78003e0090004880de00004078001a
:104ba8009e40780000c06800004f78003e009000ea
:104bb800004078009e40780000c06800004f7800f0
:104bc8000000eb00100798000c0037001e00900052
:104bd800e800470011004000104078009e4078002f
:104be80000c06800004f78000e80e8008e80e80062
:104bf8001108e80090007800110798009e009000c6
:104c08003e009000808f5000f0ff35001e40780075
:104c18000080fa00000006000e00fa00889fbe001f
:104c28008a1f78004007980051079800620798008b
:104c38000f0478000f007800800478000e80e800e8
:104c4800ea00470062002000110841009000780047
:104c5800110798001e0090008000e90021079800c5
:104c68000000e8000000d100800040000f0078003c
:104c78008187470060004000300798003e009000a0
:104c8800e1cfb300014878004e0090004880de0074
:104c9800804078003e009000114098004e0090003f
:104ca800804078003e009000214098005e0090000f
:104cb8004880de00804078003e0090003140980037
:104cc8005e009000804078003e00900041409800cf
:104cd8000000eb00000f78000a0037001e00780083
:104ce800ec00470011004000510020001e814000e8
:104cf800904078003e009000020040000148780093
:104d08001e0fe8005e0090009e007800808f500023
:104d1800f2ff35000e80e8001005e9006e019000f2
:104d2800de0090004e00900085ff0700804078006c
:104d38003e0090000a004000014878003e009000c4
:104d48009e009000e1090700890778000000000034
:104d5800880778004f0578004f04be000080fa00ed
:104d6800000006000200fa00004f78004080800032
:104d7800e30f500024003200e30f500007003c000e
:104d8800e10f500013003200e10f500017003c0003
:104d98000000e0000800320048003700e50f50002e
:104da80026003200e50f50001d003500e60f5000c8
:104db80030003200410037001e407800e24f4000ca
:104dc8003b003a000430ef001000200040808800cb
:104dd800370037001e80fb004800dd000080880097
:104de8002000200040808800340037001e80fb002f
:104df8000180800000807000008088003000200062
:104e0800408088002d0037001e80fb004800dd0030
:104e1800108088004000200040808800270037006c
:104e28001e80fb00118080000080700010808800c8
:104e3800500020004080880020003700218080003a
:104e48000100e80020808800603f21000100400048
:104e58001e4878002180800010808000808f5000dc
:104e680015003a0060002000408088000430ef0000
:104e7800110037001180800000808000623f21000f
:104e88002fff070006f0b70006d0bf009e4078004d
:104e980080cf500004003a0011808000008080001c
:104ea800623f2100080007000830ef0003003700c8
:104eb80000000000010037000000000000000000b2
:104ec8000080fa00000006000600fa00889fbe0075
:104ed8008a9fbe00000f78001107980022079800eb
:104ee800100920009e007800808f50001d003200bd
:104ef800100920009e007800808f500008003c00b8
:104f08001e007800f00f5000e1003200100220006f
:104f18009e007800808f50000a003200e7003700ba
:104f2800200920009e007800808f50006400320025
:104f3800500920009e007800808f5000b700320092
:104f4800de0037002e00900010407800e14f50003e
:104f580002003a0084aea800d800370084aea90049
:104f6800d60037008000eb002e00900034080700c0
:104f78005080880061808800410020002e00900049
:104f88002f08070070808800818088008100200039
:104f98002e0090002a08070090808800a1808800d1
:104fa800c10020002e00900025080700d08088004e
:104fb800e1808800010120002e00900020080700f1
:104fc800f080880001818800410120002e009000b7
:104fd8001b0807001081880021818800508080000c
:104fe800618080000001be008000eb00200c2100e1
:104ff8003708070070808000818080000001be00b3
:1050080041002000200c210031080700908080001a
:10501800a18080000001be0081002000200c21003a
:105028002b080700d0808000e18080000001be00ce
:10503800c1002000200c210025080700f080800016
:10504800018180000001be0001012000200c210028
:105058001f08070010818000218180000001be0028
:1050680041012000200c210019080700d48080008d
:10507800e5808000d2808000e3808000d0808000be
:10508800e180800076808000878080009a808000a0
:10509800ab8080005880800069808000849fbe00bb
:1050a800829fbe00809fbe000a02be000801be00ab
:1050b8006013210063020700ec8757007f00370068
:1050c8008000eb002e009000dd070700308188008b
:1050d80041818800410020002e009000d807070079
:1050e8005081880061818800810020002e00900096
:1050f800d30707007081880081818800c1002000e3
:105108002e009000ce070700b0818800c18188007a
:10511800010120002e009000c9070700d0818800f7
:10512800e1818800410120002e009000c40707009b
:10513800f0818800018288003081800041818000f0
:105148000001be008000eb00a00d2100e007070071
:1051580050818000618180000001be004100200074
:10516800a00d2100da07070070818000818180008e
:105178000001be0081002000a00d2100d407070017
:10518800b0818000c18180000001be00c100200004
:10519800a00d2100ce070700d0818000e1818000aa
:1051a8000001be0001012000a00d2100c807070072
:1051b800f0818000018280000001be0041012000d2
:1051c800a00d2100c2070700f4818000058280003d
:1051d800d2818000e3818000b0818000c18180009d
:1051e80056818000678180007a8180008b818000f1
:1051f8003881800049818000849fbe00829fbe0064
:10520800809fbe000a02be000801be006016210091
:105218000c020700ec875700280037006000b80030
:1052280090818800a1818800410020002e00900014
:1052380083070700b0808800c180880090818000c3
:10524800a18180000001be008000eb00200f21003a
:105258009f070700b0808000c18080000001be0069
:1052680041002000200f210099070700908180004d
:10527800a18180003089880041898800b080800041
:10528800c180800010898800218988000b003700c0
:105298008000eb002e0090006907070090a68800a8
:1052a800a1a68800410020002e0090006407070096
:1052b800b0a68800c1a68800000000000000000019
:1052c8004f05be004f04be000080fa000000060033
:1052d8000000fa00c301a800dca1ef00dea1ef0086
:1052e800c1e1a800000000000080fa0000000600ec
:1052f8000000fa00c305a800dca5ef00dea5ef005a
:10530800c1e5a800000000000080fa0000000600c7
:105318000800fa00889fbe008a9fbe007082800045
:10532800818280005082880061828800b08280007b
:10533800c182800090828800a1828800300e80009f
:105348008000eb00008fbe00500e80008000eb0054
:10535800c000dd00000020001e0f40005e974800de
:10536800302e80008000eb0020079800310798005d
:10537800502e80008000eb00c000dd0000002000ff
:1053880064014700e40147003319400023914800b5
:1053980012027800920290002407980035079800be
:1053a8001e0078009e0090005aed0700c2532e00a0
:1053b8007378230040ef07000001780001007800af
:1053c80082017800000178000300780082007800ec
:1053d80070828800818288002e009000be009000b4
:1053e8004ced0700c2532e0073782b0032ef0700f4
:1053f800000178000100780082017800000178003f
:105408000300780082007800b0828800c18288009a
:1054180074828000858280005082800061828000d2
:105428000001be000400be0056ed07000001780030
:1054380001007800820178000001780003007800fc
:10544800820078001082880021828800b48280005f
:10545800c582800090828000a18280000001be0089
:105468000400be0047ed0700000178000100780045
:10547800820178000001780003007800820078003b
:10548800308288004182880010828000218280005a
:1054980002002000a337240007ef070080017800ee
:1054a8000101780003007800820078000000be0047
:1054b800d0878800e18788003082800041828000a0
:1054c80002002000a3372400fbee070080017800cb
:1054d8000101780003007800820078000000be0017
:1054e800f08788000188880010828000218280006f
:1054f80002002000a3372400efee07000001780027
:10550800010078008204780000047800308280006e
:105518004182800002002000a3372400e6ee070045
:10552800000178000100780082017800000178000d
:1055380003007800820078000001be0009007800ae
:10554800880078000000be0017ed07000001780011
:105558000100780082027800000278000200200032
:105568000300240005007800840078000000be00d5
:10557800f2ed07008001780001017800030078004f
:10558800820078000000be0010888800218888000a
:10559800108280002182800002002000a3372400ae
:1055a800c5ee070000017800010078008204780049
:1055b80000047800308280004182800002002000d0
:1055c800a3372400bcee0700000178000100780032
:1055d80082017800000178000300780082007800da
:1055e8000001be0009007800880078000000be00b5
:1055f800e4ec0700000178000100780082027800de
:1056080000027800b2f12200d3e5230005007800fb
:10561800840078000000be00c8ed07008001780013
:105628000101780003007800820078000000be00c5
:105638003088880041888800b0888000c188800050
:105648005088880061888800d0888000e1888000c0
:105658007088880081888800f0888000018980002f
:1056680090888800a1888800308880004188800060
:1056780002002000a3372400b0ed070000017800e5
:10568800010078008202780000027800908880008b
:10569800a18880000001be00050078008400780021
:1056a8000000be00c0ec070080017800010178000e
:1056b80003007800820078000000be00f0888800af
:1056c8000189880058888000698880001a888000cd
:1056d8002b88800094888000a5888000f08880004e
:1056e800018980000001be000400be00aeec070086
