:020000040000fa
:080000000002040000000000f2
:020000040000fa
:0400080006040000ea
:020000040000fa
:04000c0006040000e6
:020000040000fa
:0400100006040000e2
:020000040000fa
:0400140006040000de
:020000040000fa
:0400180006040000da
:020000040000fa
:04001c0006040000d6
:020000040000fa
:0400200006040000d2
:020000040000fa
:0400240006040000ce
:020000040000fa
:0400280006040000ca
:020000040000fa
:04002c0006040000c6
:020000040000fa
:0400300006040000c2
:020000040000fa
:0400340004030000c1
:020000040000fa
:0400380006040000ba
:020000040000fa
:04003c0006040000b6
:020000040000fa
:0400400006040000b2
:020000040000fa
:0400440006040000ae
:020000040000fa
:04004800fa020000b8
:020000040000fa
:04004c0006040000a6
:020000040000fa
:0400500006040000a2
:020000040000fa
:04005400be030000e7
:020000040000fa
:04005800920300000f
:020000040000fa
:04005c006c03000031
:020000040000fa
:040060000604000092
:020000040000fa
:04006400060400008e
:020000040000fa
:04006800060400008a
:020000040000fa
:04006c000604000086
:020000040000fa
:040070000604000082
:020000040000fa
:04007400060400007e
:020000040000fa
:04007800060400007a
:020000040000fa
:04007c000604000076
:020000040000fa
:040080000604000072
:020000040000fa
:04008400060400006e
:020000040000fa
:04008800060400006a
:020000040000fa
:04008c000604000066
:020000040000fa
:040090000604000062
:020000040000fa
:040094003c03000029
:020000040000fa
:04009800060400005a
:020000040000fa
:04009c000604000056
:020000040000fa
:0400a0000604000052
:020000040000fa
:0400a400060400004e
:020000040000fa
:0400a800060400004a
:020000040000fa
:0400ac000604000046
:020000040000fa
:0400b0000604000042
:020000040000fa
:0400b400060400003e
:020000040000fa
:0400b800060400003a
:020000040000fa
:0400bc000604000036
:020000040000fa
:0400c0000604000032
:020000040000fa
:0400c400060400002e
:020000040000fa
:0400c800060400002a
:020000040000fa
:0400cc000604000026
:020000040000fa
:0400d0000604000022
:020000040000fa
:0400d400060400001e
:020000040000fa
:0400d800060400001a
:020000040000fa
:0400dc000604000016
:020000040000fa
:0400e0000604000012
:020000040000fa
:0400e400060400000e
:020000040000fa
:0400e800060400000a
:020000040000fa
:0400ec000604000006
:020000040000fa
:0400f0000604000002
:020000040000fa
:0400f40006040000fe
:020000040000fa
:0400f80006040000fa
:020000040000fa
:0400fc0006040000f6
:020000040000fa
:0401000006040000f1
:020000040000fa
:0401040006040000ed
:020000040000fa
:0401080006040000e9
:020000040000fa
:04010c0006040000e5
:020000040000fa
:0401100006040000e1
:020000040000fa
:0401140006040000dd
:020000040000fa
:0401180006040000d9
:020000040000fa
:04011c0006040000d5
:020000040000fa
:0401200006040000d1
:020000040000fa
:0401240006040000cd
:020000040000fa
:0401280006040000c9
:020000040000fa
:04012c0006040000c5
:020000040000fa
:0401300006040000c1
:020000040000fa
:0401340006040000bd
:020000040000fa
:0401380006040000b9
:020000040000fa
:04013c0006040000b5
:020000040000fa
:0401400006040000b1
:020000040000fa
:0401440006040000ad
:020000040000fa
:0401480006040000a9
:020000040000fa
:04014c0006040000a5
:020000040000fa
:0401500006040000a1
:020000040000fa
:04015400060400009d
:020000040000fa
:040158000604000099
:020000040000fa
:04015c000604000095
:020000040000fa
:040160000604000091
:020000040000fa
:04016400060400008d
:020000040000fa
:040168000604000089
:020000040000fa
:04016c000604000085
:020000040000fa
:040170000604000081
:020000040000fa
:04017400060400007d
:020000040000fa
:040178000604000079
:020000040000fa
:04017c000604000075
:020000040000fa
:040180000604000071
:020000040000fa
:04018400060400006d
:020000040000fa
:040188000604000069
:020000040000fa
:04018c000604000065
:020000040000fa
:040190000604000061
:020000040000fa
:04019400060400005d
:020000040000fa
:040198000604000059
:020000040000fa
:04019c000604000055
:020000040000fa
:0401a0000604000051
:020000040000fa
:0401a400060400004d
:020000040000fa
:0401a8000604000049
:020000040000fa
:0401ac000604000045
:020000040000fa
:0401b0000604000041
:020000040000fa
:0401b400060400003d
:020000040000fa
:0401b8000604000039
:020000040000fa
:0401bc000604000035
:020000040000fa
:0401c0000604000031
:020000040000fa
:0401c400060400002d
:020000040000fa
:0401c8000604000029
:020000040000fa
:0401cc000604000025
:020000040000fa
:0401d0000604000021
:020000040000fa
:0401d400060400001d
:020000040000fa
:0401d8000604000019
:020000040000fa
:0401dc000604000015
:020000040000fa
:0401e0000604000011
:020000040000fa
:0401e400060400000d
:020000040000fa
:0401e8000604000009
:020000040000fa
:0401ec000604000005
:020000040000fa
:0401f0000604000001
:020000040000fa
:0401f40006040000fd
:020000040000fa
:0401f80006040000f9
:020000040000fa
:0401fc0006040000f5
:020000040000fa
:0402000006040000f0
:020000040000fa
:0402040006040000ec
:020000040000fa
:0402080006040000e8
:020000040000fa
:04020c0006040000e4
:020000040000fa
:0402100006040000e0
:020000040000fa
:0402140006040000dc
:020000040000fa
:0402180006040000d8
:020000040000fa
:04021c0006040000d4
:020000040000fa
:0402200006040000d0
:020000040000fa
:0402240006040000cc
:020000040000fa
:0402280006040000c8
:020000040000fa
:04022c0006040000c4
:020000040000fa
:0402300006040000c0
:020000040000fa
:0402340006040000bc
:020000040000fa
:0402380006040000b8
:020000040000fa
:04023c0006040000b4
:020000040000fa
:0402400006040000b0
:020000040000fa
:0402440006040000ac
:020000040000fa
:0402480006040000a8
:020000040000fa
:04024c0006040000a4
:020000040000fa
:0402500006040000a0
:020000040000fa
:04025400060400009c
:020000040000fa
:040258000604000098
:020000040000fa
:04025c000604000094
:020000040000fa
:040260000604000090
:020000040000fa
:04026400060400008c
:020000040000fa
:100400004f4f21000eff27000e0188000000000062
:10041000000020000000e000020032000001200087
:100420002002880014000700fa0007000000e00026
:1004300003003a00c0092400010020000200370038
:100440000000200001002000810f70000100320038
:100450000f000700000020000000e0000200320052
:100460000000020000000000781e020000000000f2
:100470000040da000000fe00200020000000e00044
:1004800002003200100020009001880000000600e9
:10049000a1028800800478000000eb001f003700f4
:1004a000e284440054a0b4009905ba00e2844400f8
:1004b00054a0b4009906ba00e284440054a0b400e9
:1004c0000006eb00476fde00fd07b200ae018800ba
:1004d000636ce10003003a000ad801000000eb0061
:1004e0000e003700606ce10008003a00004deb00a0
:1004f0000a05e800020039003420ec000af0a000f0
:100500008b05e900f9ff3e00040037006168e10057
:10051000010032000086eb000b00070019c7ba008b
:100520000e04e0001905ba0003003a000a00e000da
:10053000dbff3a0000000600fe07b200ae028800b2
:100540008a047800f5ff37000cd0a300e20f4d00bd
:100550001c003b0089027800354dba000a05e8000e
:10056000020039003420ec000af0a0008b05e900fd
:100570000f003200254dba000a05e80002003900dc
:100580003420ec000af0a0008b05e90008003200de
:100590000c00e0000600320015cdba000a05e800a4
:1005a000020039003420ec000af0a0008b05e900bd
:1005b0008984e80054a0b4000b00e000e2ff3a0098
:1005c000000006009902ba00055d78008b05e9007d
:1005d000f7ff3200c82ade00055d78008b05e900d0
:1005e000f3ff32000c00e000f1ff320019ddba0029
:1005f000eeff37000000fa000108a900000000002b
:100600000080fa00004006003600f800809fbe001f
:10061000829fbe00849fbe00869fbe000000fa003d
:100620000068a9006e1b0700531f07000116070092
:10063000ec180700408380000000e8004083880039
:1006400040838000ea0f5000020034008617070044
:100650006830ef00e0130700000000000080fa009f
:100660004f03be004f02be004f01be004f00be0050
:100670003600f900004006003600f800809fbe00fa
:10068000829fbe00849fbe00869fbe000000fa00cd
:100690000368a900228380003383800010002000bb
:1006a0000100200002004000838048002083880071
:1006b000318388005d0f0700000000000080fa0011
:1006c0004f03be004f02be004f01be004f00be00f0
:1006d0003600f90000400600801f78000000fa0094
:1006e00001a8a9000018800040a788001018800009
:1006f00050a788002018800060a78800401880005c
:1007000070a788003018800080a7880010c0b30050
:1007100089f0b700000000000080fa004f00780068
:10072000004006003600f800809fbe00829fbe0099
:10073000849fbe00869fbe000000fa000188a900c9
:10074000f1838000e0838000808f5000020032003f
:10075000f81d0700010037008070ef000000000066
:100760000080fa004f03be004f02be004f01be00e2
:100770004f00be003600f900004006003600f800c9
:10078000809fbe00829fbe00849fbe00869fbe00e9
:100790000000fa000168a900101180004200de008c
:1007a00061406000e14f500001003a002242a90080
:1007b000101180000000d10061406000e14f500046
:1007c00005003a002222a900030037003011800002
:1007d00000407800471f070010118000004078009b
:1007e00061406000e14f5000f8ff3200000000005f
:1007f0000080fa004f03be004f02be004f01be0052
:100800004f00be003600f900004006000040da004c
:100810000000fe000000050014002000ad033700ba
:10082000f4ff2f00ab0337000001be003f000700bc
:100830000470a70003f0a1006509b10016003200a2
:100840000d0035006828e10006003500f0ff2f009c
:10085000f1ff27000300e00013003b000100280027
:100860000000050000004000818048008502e9008a
:10087000fcff3a0008003700f88f420002003c00fd
:100880008000eb00000005008100d1000080d30053
:100890008502e800fcff3a000300e00002003b0094
:1008a00060001000e0801800000006000001be009b
:1008b0001e0007000470a70003f0a10003f8a300c6
:1008c00013003a006509b10010003200090035003c
:1008d0006928e10002003500010028000000050041
:1008e00000004000818048008502e900fcff3a00da
:1008f00000000600f88f4200050035008100d1009d
:100900000080d3008502e800fcff3a0000000600ea
:100910008000eb00000005004f89de0082017800b6
:10092000870337006011b80095033700c70ade005f
:10093000f107b200f50fb20008003200e1cf42002b
:10094000020032000170a00024000500810f700039
:10095000010032000408050044000500810f70000a
:1009600002003a00140005008502e9000000400082
:1009700081c04800fcff3b000170a000240005007e
:1009800007f82700078361000638e10004003a00f9
:10099000f7072000878361008703710001003a0098
:1009a00003f0a200889fbe008a9fbe008c9fbe00fd
:1009b000470ade000480a100c71ade000580a100fe
:1009c000070028000785600087856100f70f200079
:1009d0000720e1009e0032000728e1009c00320061
:1009e000010678000400e000b4003200f7072000a0
:1009f000878060000170a0000500e000c0003200a8
:100a0000f7072000878161000370a00005065200ef
:100a10000f003a000b50e1000b0032000308e10028
:100a200002003a000200e1007e00320002045000a1
:100a300083845800040031000001fd008101fd00a5
:100a40008402fd008a05fd006044b80021003700e3
:100a50000520e10005003d000001fd008101fd00d1
:100a60008402fd008a05fd00050652007a60e1005f
:100a7000050035000170a1004722dd008480700070
:100a80008a807000630037006044b800ef0266009f
:100a900007ff2f00070666000500e000060034008f
:100aa000f08312008714dd000511de00071bdd0056
:100ab000060171008519de007060e1000500350057
:100ac0000904780082047800030178008001eb00bb
:100ad000700656000b50e10003003a00020040008f
:100ae000838048000400370060041400e0841c0088
:100af00002005800838058000188a30006003200dd
:100b00008100d1000080d3008984d3000884d30001
:100b10000402e800270037000178a30025003a000e
:100b20000100e000030032008186cf006986560094
:100b30000a0037008c0020000000e00004003a00aa
:100b400009007800880478000004eb00700252006d
:100b50008086cf000d0646000c06e9007060e100bb
:100b600006003500800078000900780088047800cd
:100b70000004eb0070065600700252000c00e0000a
:100b80000c0034008c08dd00f00316000703de00c3
:100b9000868070000c00dd00074bde000600700050
:100ba0008c4cdd000743de00868474000c44dd00bd
:100bb0000c0252006120e10020003500610160005c
:100bc0000700280087816400f7ff270087836400ff
:100bd000070374000300e000060032008203730084
:100be000040032000000e800e08048000188a30013
:100bf0000e003a00f70f20000720e1004a003d00f8
:100c00000170a1004722dd00810072008a8070001f
:100c10000000be004f06be004f05be004f04be00e0
:100c2000000006006000b800faff37008100d10024
:100c30000080d3000402e800eeff370004017800d2
:100c400089017400a10107008a807000f1ff37005c
:100c5000f7010700070278000001fd008101fd0097
:100c6000f301070087027800850372000778a3006c
:100c7000040032000001fd008101fd0006020700b2
:100c8000e4ff3700850362000768a3000800320014
:100c90000b50e10003003200f0ff2f00f1ff2700ae
:100ca000dcff37000001fd008101fd00d9ff3700a6
:100cb0000468a300d7ff3200faff3700f8ff2700cf
:100cc000888360000b003a000000e00009003a0051
:100cd0008303640082837300020032000200be00be
:100ce000ccff37000b50e100ceff3a000200be00ff
:100cf000c8ff370014002000810064003eff370069
:100d0000f8ff27008883610004003a000200e00039
:100d100002003a008c007800beff3700150020006a
:100d20008301640039ff370001f82700000020002c
:100d300081007500b7ff3700889fbe008a9fbe0004
:100d40008c9fbe001b0020000202be0005866800ca
:100d500006002800060666004709de00f20fb20012
:100d6000820032000243e80080003200c729de0022
:100d7000f30fb2007d0032000343e8007b00320035
:100d8000f107b2000170a000f507b2000570a000e5
:100d9000c708dd004903de00868070004700dd00e3
:100da000c72add004923de00868272004722dd006b
:100db00003055100040350008583580003003100ef
:100dc00000004000818048000a05e9008c1f78007f
:100dd0008a9fbe0004005000858058000402420033
:100de00085824a0000004000818048000005eb0039
:100df0000004be006033b8000406be000d48e100e8
:100e000056003100110009004dccd8000c01b8008b
:100e10000d02b8008481410060824a008283530041
:100e200003045c0084845c0060055d000a00e0004f
:100e300025003a00800578000d40e10049003100ae
:100e40008800780007007800110009004d88d8005c
:100e50000c01b8000d02b8008481410060824a0094
:100e60006003110083835b0004045c00e0845c0089
:100e70000900e00021003a004f01be000300e0003d
:100e80002b003200e3016000070673008c817100c3
:100e900001003200640070004200de004e5edd00a2
:100ea0000c007000c258de0001e0a00083010700c2
:100eb000cf017800818071004f06be004f05be0053
:100ec0004f04be00000006008c8343000d044c005c
:100ed000e0844c0060054d000000e9000a00e000dd
:100ee000d4ff32008c8343000d044c00e0844c009e
:100ef00060054d000000e900ceff37000c03430001
:100f00008d834b0060044c00e0844c000000e9003d
:100f10000900e000d8ff32000c0343008d834b0032
:100f200060044c00e0844c000000e900d2ff370070
:100f30004200de004e5edd000c007000c258de0094
:100f400001e0a000cf0178000300e000daff3200ea
:100f500060001000e0801800d7ff3700f0ff2f007e
:100f6000aaff3700f0ff2f00b9ff37000404be00ce
:100f70002f010700870678000004fd008104fd00b2
:100f80002b010700078366000678a30003003200e8
:100f90000960a7000800be002c0037000d78a300f0
:100fa000020032000800be00280037000778a300c6
:100fb00026003a0001f0a10009f0a1000668a30094
:100fc00003003200f1ff2700f0ff2f00baff3700c7
:100fd0000d68a300030032000800be008c80700082
:100fe000b5ff37000768a30007003a000648a300d2
:100ff00003003200f1ff2700f0ff2f00aeff3700a3
:101000000d48a300030032006000b8008c8070001f
:10101000a9ff37000748a3000400320001f82700a9
:10102000000020008c807000a3ff370076010700cd
:101030000004fd008104fd00020578007201070034
:101040000802be008a01780059ff37000160a00045
:10105000120220005284880097ff37000100e00050
:10106000120032000500e00010003200889fbe0030
:101070008a9fbe008c9fbe000006eb0001f8a30013
:101080000300320060001000e08018000cf0a000a7
:1010900005f8a3000300320060021200e0821a008b
:1010a0000cf0a2008005eb0041ff37006000b800a3
:1010b000020005000383680007002800070363009f
:1010c000470ade000480a100c71ade000580a100e7
:1010d000f70f20000720e100420032000728e1005e
:1010e00040003200889fbe008a9fbe008c1f78009f
:1010f000f107b200f307b2000400e0006400320020
:101100000170a0000500e000680032000370a0003c
:1011100085054200eb07b1000204b8000302b800e5
:101120008484440060854a00020ab8008484440034
:101130000a854a00030ab80004054500040033008c
:101140000804d0008984d2000a85d2008b05e9000a
:101150006158e1003d0035000210200009016100e6
:101160000308200089816100f7072000878364005d
:1011700008867300c84cde00c853dd008784740005
:101180004855de000300e0000600320082037600ce
:10119000040032008904e80060054d000a88a300bd
:1011a0000c003a00f70f20000758e10044003d0012
:1011b0000a70a100c75ddd000a8575008a00730012
:1011c000090078004f0678004f05be004f04be00ae
:1011d000000006000a05d1008984d3008b05e800d1
:1011e000f0ff3700881f78000604780090000700a1
:1011f000070278000001fd008101fd008c0007005e
:1012000087027800850372000778a300050032008a
:101210000001fd008101fd009f0007004f047800e0
:1012200000000600850372000748a3000300320097
:10123000f0ff2f00f1ff2700f8ff3700000020002b
:1012400001f8270088807000f4ff370088017800db
:101250004848dd00808171004848de00c850dd004c
:1012600001007000c850de00060478000b01780011
:101270001600070088807000d2ff37000500e000ec
:1012800005003200170020003a0007009dff3700dc
:1012900081037000f9ff3a00860078004f0678005d
:1012a0004f05be004f04be0000000500830371001f
:1012b000f9ff3200270020002e00070094ff3700be
:1012c00001f8270086807000f4ff37000100e0007d
:1012d00026003200610111007810e10023003c007b
:1012e0006022b8007010e100040035008002780030
:1012f000010078008000eb00700151000200e00066
:101300000900340070031100062add00822ade0085
:101310008603dd00878272000200de00860bdd009e
:10132000070070008208de0084817100f4ff27004e
:1013300004826200848171000400280084826200bb
:101340006102600005f0a600000006000482710042
:10135000070032000000e800e080480000000600be
:101360000002be006000b800efff37006000b80068
:1013700000000600889fbe000004eb006138e10019
:1013800016003a000100e00008003a00c800de0044
:101390004800dd00880020000100e00003003a0062
:1013a000c800de004800dd00680444008184cf00ee
:1013b000e9845400060034008908dd00f08314003d
:1013c0008703de00878070000900dd000904440007
:1013d000610214004f04be00000006000300e0009c
:1013e00008003a00c811de004811dd008800200026
:1013f0000300e00003003a00c811de004811dd00e0
:10140000680444008384cf00e9845400060034005b
:101410008919dd00f08314008713de0087817100d5
:101420000911dd0009044400e1021400e9ff37005e
:101430002700200001f0a70017002000470bde0066
:10144000f60fb200040032000643e8000a00320042
:101450004702b3000000060001037800f607b2005f
:101460000603700002003a000703b3000000060004
:101470008702b3000000060001037800f607b200ff
:1014800006037000020032000770a0000000060092
:101490000760a000000006000478a30004003200ea
:1014a0000578a300030032000168a30001003a00a0
:1014b0000200be000160a000000006008101700073
:1014c000270032008002eb0001f8a3000300320085
:1014d00060001000e080180015002000f4072000d4
:1014e0000202420020003400f7032000870360005e
:1014f00006042000000363000208200000016100d0
:101500004700de00c909dd0000807100c708de0069
:101510000600e00008003200870371000600320078
:101520001000b0000180b0000188a300020032006a
:10153000c108de000402e800f107b200f30f20004a
:101540000320e10003003d004722dd00810072001e
:101550002900370001f827000000eb0026003700c3
:101560006000b80000000600680212007f20e10061
:10157000020034006000b8001f0037006011b8009e
:101580007020e1000400350080017800010078003f
:101590008000eb00700252000400e00009003400fb
:1015a000f00312000719dd008419de000703dd00d7
:1015b000868171000400de00070bdd00060070006c
:1015c0008408de00f7ff2700838363008703710030
:1015d0000600280003036300070032000700e00054
:1015e00003003a00610160000281730002003200d2
:1015f0001000b0000180b0000500a6000000060049
:1016000001f0a000000006004f0ade004709de00de
:10161000f107b200f20fb2000b003200f207b10086
:101620000170a000c708dd00c901de0083807000e2
:101630004700dd000400a600000006006000100066
:10164000e080180000000600810f700001003a00e1
:10165000000006008182cf000500e00010003e007f
:101660008082cf00ee8242007028e1000400390041
:1016700007003e00800078000000eb000e003700fd
:10168000708312008600de000500dd000a003700ce
:10169000708352008600dd000000eb00060037007a
:1016a000e28252008508dd00708312000603de002e
:1016b000868070000500dd007507b0000501ea00b6
:1016c0000400a6000000060060001000e080180082
:1016d00000000600889fbe008a9fbe00841f78001d
:1016e0007c0007004f00780011003300f0ff2f004e
:1016f000838f6c0006003b00040565000a00a7000c
:101700000800370009f0a60010002000080037008c
:10171000820f5400838f5c0003003900100020000a
:1017200001003e000000200009f0a7000000ea00d0
:101730004f05be004f04be000000e00000000600a0
:10174000881f7800030478000300e00007003d00d4
:1017500060001000e080180060011900e0811900ad
:1017600002003b0001f02d000300370004000700d9
:1017700008f0a70001f0a0004f0478000000060068
:10178000889fbe008a9fbe00008270000402710024
:1017900004827100260032000004be000200be0078
:1017a0006011b8006b092000950220000182cf0073
:1017b0000a0039000541b1000082cf00070039005e
:1017c0000541b1000982cf00040039000541b10094
:1017d0000882cf00010039000541b10005425200e6
:1017e000120032000a003b00828171006101640036
:1017f0008100d1000080d3008984d3000884d30005
:101800008b05e8000442e800f7ff3a0007003700c4
:101810000804440089844c0000004800818048008e
:101820008b05e9000442e900f9ff3a0003000700d4
:101830004f05be004f04be000000060081002000de
:10184000618055000b003d000b00200061fe2f0061
:101850000100e1001d00340082817100610164001b
:101860008904d1000884d3000000e800faff3a00a0
:10187000710020006100640003007000020060003d
:101880000900320061044400e0844c000988a5008e
:10189000050032008b05e8006808e10002003a000c
:1018a0008904d1000884d300f20f20000258e1001f
:1018b00005003d00c75ddd00f907b20089807500b5
:1018c00008007800000006000bf827008b00780065
:1018d000000005000004be0014fc07000003be0069
:1018e0000405be000200be0010fc0700844f750016
:1018f000000006000400fa00889fbe008a9fbe0018
:101900008c9fbe000205be000bf0a1000800200065
:1019100009f82700880f5500898f5d0005003e00fb
:101920000003be0007f0a100880f5300898f5b0001
:10193000060036001bfc07004f06be004f05be0028
:101940004f04be000080fa000000060008002000de
:1019500009f82300880f5100898f590002003a00ce
:1019600097000700f4ff37004e1cde00090020003e
:1019700088bf9f0099bf9f000fbe9700620466005a
:101980008004eb004f0ade00050020000404740010
:1019900085847400e00f5300e08f5b0009003a007b
:1019a000e20f5400e08f5c007f003200e20f540031
:1019b000e08f5c00e0ff3900e30f5400e08f5c0033
:1019c0005f003200e00f5500e08f5d0008003a0034
:1019d000610064008000eb00e00f5000e08f5800d1
:1019e00074003200b0fd200091fc2b00d2ff3700c4
:1019f0000400200005f82700840f5500858f5d0046
:101a00000f003a008a0f53008b8f5b0040003a00b2
:101a1000e10f5400e08f5c0058003200e00f5400ea
:101a2000e08f5c0058003200e20f5400e08f5c0051
:101a30002b003200e30f5400e08f5c0031003200d5
:101a40000c0020000dd020000a0246008b824e00c0
:101a5000840f5300858f5b00ddff3e0004002000f3
:101a600005f82700840f5300858f5b00d8ff3200f4
:101a7000620264008002eb00e00f5200e08f5a0027
:101a8000050032000606460087864e008c0f550082
:101a90008d8f5d002d003e00a7fc0700810107002f
:101aa00047000700e10f5400e08f5c00290032007e
:101ab000e00f5400e08f5c009fff3200e20f540003
:101ac000e08f5c0025003200e2d22b00b33b230004
:101ad000b4fb0700b2fd200093042400250037006a
:101ae0000200200003042400b0fd20009104240023
:101af00070fd07000200200003e823006dfd0700d1
:101b00008dff37000200200003042c00f6ff370091
:101b1000e10f5400e08f5c001e003200e00f540023
:101b2000e08f5c001e003200e20f5400e08f5c008a
:101b30001d003200e30f5400e08f5c00c0ff3a004c
:101b4000b0fd200091042c007bff37006000b8003e
:101b5000d4ff370001f0a20077ff3700e2d22b005c
:101b6000b33b23008ffb07000001be00b0fd200047
:101b70009104240082fb07006fff3700b0fd2000b6
:101b800091f42b006cff3700b0fd200091f423008e
:101b900069ff3700000020000100280066ff3700c1
:101ba0006000b80064ff3700b0fd200091042400fd
:101bb00061ff3700b0fd200091fc23005eff37007d
:101bc000ea874700889fbe008a9fbe008c9fbe00a8
:101bd0008e1f78000002be004f0dde000b002000bb
:101be000000478008504780009f0a100f0ff2f00c0
:101bf000f1c72400800f5400818f5c001000360074
:101c00000000200001f82700800f5400818f5c0045
:101c100025003e000200200003382000a0fd200027
:101c200091fc23005ffb07000002be00e00f55009f
:101c3000e08f5d001c00320005f0a2001a003700a2
:101c4000f0ff2f00f1ed2300800f5400818f5c0026
:101c50001c003e000087eb00f0ff2f00f1972300ef
:101c6000800f5400818f5c0033003e006000b8009c
:101c700003f8270085806100e00f5000e08f5800d6
:101c800009003a000401be000400be00f4b79f0042
:101c900085bf9f0007fd0700d0b79f00e1b79f00f9
:101ca0007fb297008fba97000400be004f077800fc
:101cb0004f06be004f05be004f04be00af00b1008e
:101cc000000006000400be00f60007000006be008b
:101cd000f0ff2f0071f92300800f5400818f5c000a
:101ce00055003e00f0ff2f00f1f22300800f54005a
:101cf000818f5c0041003e000c01be000c00be0064
:101d000028fb07000200200003f823001cfb07004b
:101d10000004be0002002000030024000c00be00ee
:101d200020fb07000001be000800be0002fc070007
:101d30000002be000007eb000401be000400be006c
:101d4000f4b79f0085bf9f00dafc07000006be00c5
:101d50000001be00d7fc07000004be0052c22a00ea
:101d6000c3d72300d3fc0700d2502f0013e1230078
:101d70000cfb07000801be00cefc070092aa2a0057
:101d8000a3ea230007fb07000c01be00c9fc070003
:101d90000006be0072242100a3dd2b000800be0057
:101da000c4fc070082a92c00c3e42300f4fa070056
:101db0000801be00bffc07000001be000c00be0011
:101dc000f8fa07007fb297008fba97000401be00af
:101dd000b8fc07000003be000e00e0007fb29700d1
:101de0008fba970032003d000001be000400be0023
:101df000e3fa07000002be00abff3700020020003c
:101e000003f823000c00be00ddfa07000004be004a
:101e10000200200003f823000c00be00e1fa0700d6
:101e20000001be000800be00c3fb07000002be00a8
:101e30001e002000c0ff3700f0ff2f00b10124007a
:101e4000800f5400818f5c0012003e0002002000d1
:101e500003fc23000c00be00c9fa07000004be000a
:101e60000200200003fc23000c00be0091fc0700d0
:101e70000200200003f82300cafa07000001be0098
:101e80000800be00acfb07000002be002e002000d0
:101e9000a9ff37000c01be000000200001f82b0054
:101ea000a5fb07000002be003e002000a2ff370095
:101eb0004277dd00084c21000e044400004b210055
:101ec0000e0740001e0178009e0190000600be0033
:101ed000f4b79f0085bf9f00a9fa07007fb2970063
:101ee0008fba97000401be00a5fa07000001be00ea
:101ef0001800780098009000a1fa07004aff370008
:101f00000400fa000001be0003f0a100a4fd2000bf
:101f100095f42300840f5100858f59000e003e0078
:101f2000f4ff2f00f5972300840f5100858f59008f
:101f30003a003e000200200003b8270099fa07008b
:101f4000e0bf9f00f1bf9f000000200001f82300c8
:101f50000080fa00000006004f0ade0005002000a5
:101f6000163d2500b7072400860f5100878f5900c2
:101f70001b003e0036be2c0067012400860f510076
:101f8000878f59000a003600b2fd20009304240018
:101f90000400e0000400320082fa07005706070040
:101fa00001f0a200eaff370075fa0700fbff3700d7
:101fb0000400e00005003200b2fd200093fc230085
:101fc00078fa0700d8060700e1ff37000001be00dd
:101fd000b0fd200091fc230069fa0700f9ff3700eb
:101fe000561d2300270e2400860f5100878f5900ad
:101ff00014003e00f6dd2e00f70a2400860f510083
:10200000878f590009003600b2fd2000930c240090
:102010000400e0000300320062fa07003706070000
:10202000cbff370056fa0700fcff37000400e00042
:102030000100320001f0a20042be2c00630924001e
:10204000e5ff3700f4ff2f00f5f72700840f51005c
:10205000858f5900040036000001be000200be005a
:1020600047fa0700baff3700c2ff2f000f014100f7
:1020700056060700630160006fb89700ffb897002d
:10208000e10f510005003200e20f5100c3ff3200a2
:102090000200e000cbff3a00e0ff370001f0a200b1
:1020a000c8ff37000101780002f0a100820078002b
:1020b00000000600889fbe008a9fbe008004780052
:1020c00001047800820578000305780001f0a10082
:1020d0000200200003f82700820f5000838f580071
:1020e00012003e000b0078008a00780001f0a10089
:1020f000820f5000838f58000d003e0009027800c7
:10210000880278004fc1de00820178004fd0de00e7
:1021100080007800800f5100818f59000900320043
:10212000e00f5200e08f5a0001003d000a04be009b
:1021300009007800880078004f05be004f04be00fb
:10214000000006000b0178008a0178000900780081
:1021500088007800b0f907000000e000f2ff3700c7
:10216000889fbe008a9fbe00000578008104780029
:10217000820578000304780001f0a100020020002d
:1021800003f82700820f5000838f580014003e0090
:102190000b0078008800780001f0a100820f500049
:1021a000838f58000c003e000a00780089007800f8
:1021b0004fcade00840278004fc1de008201780041
:1021c000820f5200838f5a000a003200e00f500045
:1021d000e08f580002003d008a057800090478006d
:1021e0000b007800880078004f05be004f04be0049
:1021f000000006000b0178008801780086f90700ce
:102200000000e000f3ff37000400fa00889fbe00e2
:102210008a9fbe000203410083834900e00f530000
:10222000e08f5b000f0032000202be0005f0a1004b
:102230000800200009f82700880f5200898f5a00f3
:1022400008003e00a0bf9f00b1bf9f00470dde0009
:102250000b002000f40f20000a056200840f5500d7
:1022600007003a0093fb07000001be00b2fa070026
:102270004f05be004f04be000080fa0000000600bb
:102280000002400081824800840f5300858f5b006c
:1022900006003900840f5300858f5b00f4ff3a007d
:1022a0006011b80083fb0700f1ff37000a00e0006f
:1022b0004c003a002fbb9700bfbb9700493add00a6
:1022c000c732de00850272004932dd00e00f5200a5
:1022d000e08f5a003f003d00610215002fbb9700c0
:1022e000bfbb9700040478000804e9000300330032
:1022f0000603430087834b00fbff37000602be0046
:10230000471bde00070020000683fb000600e000fc
:102310003d003a00491cdd00c714de00890474004a
:102320004914dd00e00f5400e08f5c0032003d00f6
:10233000e10313000204be008703e9000300330039
:102340000804440089844c00fbff37000801520058
:1023500089815a00860f55002f003c00e00f510084
:10236000e08f590004003500e00f5100e08f590064
:10237000cbff32000202be004728de000100200031
:10238000e00f5000e08f58002e0032000a00e000fd
:10239000300034000000200001f82f00040240004b
:1023a000858248006150b900c700dd0000002000b0
:1023b00004007000858070006022b80002002800d0
:1023c000bfb9970083026100000072008180720033
:1023d000a7ff37000a05e9000402420085824a008f
:1023e000baff37002fba9700bfba9700f507b200bf
:1023f0000570a000c2ff37000603e900080444008e
:1024000089844c00c7ff37000204be00f907b20000
:102410000970a000cdff3700e00f5100e08f590098
:1024200004003500e00f5100e08f59009cff32009e
:102430000202be000402420085824a000a05e90049
:10244000c2ff37000402420085824a000a05e90003
:10245000c9ff3700610515000400be000a05e90048
:10246000030033008100d1000080d300fbff370060
:10247000d1ff37004f02b000889fbe008a9fbe0088
:102480008c9fbe008e1f78008005780001057800c3
:10249000f2af9f0083b79f007fa997008fb197008d
:1024a0000203be0007f0a100e00f5300e08f5b00c5
:1024b0007f03320090b79f00a1b79f00000020006b
:1024c00001f823001fb29700afb29700800f5200af
:1024d000818f5a00760332000b0478008a0478005a
:1024e00009f0a1000000200001f82700800f54002f
:1024f000818f5c0003003c00800f5300818f5b00e4
:10250000070034007fa997008fb197000b00780077
:102510008a00780023f907000002be004800370057
:102520006066b800bcaf9f00cdaf9f001fb29700a0
:10253000afb29700e00f5200e08f5a002d003d002f
:102540002c0020000d002000bcaf9f00cdaf9f00ed
:10255000f0ff2f00f1b72400800f5300818f5b0044
:1025600024003c006022b800b4af9f00c5af9f00bc
:10257000f0ff2f00f1f72300800f5300818f5b00e5
:102580001c00340047b8de00cfb8de00f007b10011
:102590000180b100770010000602be00000678003e
:1025a0000c06e900030033008582d1000482d300c9
:1025b000fbff37000406be00000778000e07e900a5
:1025c000030033000c0646008d864e00fbff3700eb
:1025d000860f5600878f5e0006003a006100620099
:1025e0008000eb0062021000e0821800b4af9f0090
:1025f000c5af9f000000200001f82700800f5300a6
:10260000818f5b000000200001f823001a003a00cf
:10261000800f5400818f5c00250332006022b800d7
:10262000800f5400818f5c000c003400e00f5100db
:10263000e08f5900020035007faa97008fb2970003
:102640000400be004f0778004f06be004f05be00d5
:102650004f04be004f02b10000000600e00f510021
:10266000e08f5900f6ff3d007faa97008fb29700d8
:1026700005f0a200f2ff3700800f5300818f5b004e
:1026800009003a00e00f5100e08f59000b033d00b4
:102690000b0178008a0178000000200001f8230077
:1026a000a5f907009cff370000002000010024006e
:1026b000800f5100818f590006003a000b0178000d
:1026c0008a0178000b0078008a00780079fa070008
:1026d00091ff37000000200001f02300800f51001f
:1026e000818f59000b0078008a00780008003a00ba
:1026f0001fb29700afb29700e00f5200e08f5a0070
:1027000003003500ee0307000002be00ccff3700d7
:10271000b2b79f00c3b79f00d6b79f00e7b79f002f
:1027200060fe07000002be00e00f5400e08f5c0076
:102730003fb19700cfb197005fb39700efb3970019
:102740000b003200dbaf9f00feff23000a0767008b
:10275000eeaf9f005fa89700efa897000c00200045
:102760000df823008c0f50008d8f580025003a0083
:10277000e00f5100e08f590005003d000401be004c
:102780000000200001f823006bf907000002be00e2
:102790001fb09700afb09700e00f5000e08f5800d7
:1027a000a7ff3d000000200001082c0008004000a9
:1027b000898048003fae9700cfae97000c007000b4
:1027c0008d807000e00f5000e08f580007003a0045
:1027d0001002200090a788000401be000400be0083
:1027e00067f807000001be00adff37003fae97005d
:1027f000cfae9700e10f5600e08f5e0090ff3a00e9
:102800009bff37001fb09700afb09700e00f50005c
:10281000e08f58002a003d003fae9700cfae9700f2
:10282000e00f5600e08f5e0007003a001002200023
:1028300090a788000b0178008a0178000b007800cf
:102840008a007800e6ff37003fae9700cfae9700d2
:10285000e10f5600e08f5e0019003a000c002000e6
:102860000df82b009cb79f00adb79f000000200023
:1028700001d02400800f5300818f5b00550134008c
:1028800070ff2f00f1f72300800f5400818f5c0050
:102890000e003c00e00f5100e08f590013003d0096
:1028a000a22c2f00931427001fb09700afb0970001
:1028b00000fa0700a22c2f009314270083ff370093
:1028c0000c0020000df82300e6ff37007000200008
:1028d00001f82300800f5400818f5c000b0034004e
:1028e000e00f5100e08f5900edff3c00022624006c
:1028f00023da20001fb09700afb09700edf9070072
:102900000226240023da200070ff37000200200096
:1029100003f823000400be0019f807000004be00fd
:1029200002a02a0083fb2300e2f907000005be0095
:1029300002572a00c36e23000800be00ddf907001d
:102940000002be000200200003e823000800be00d1
:10295000c4b79f00b5b79f00d6f907000001be00bd
:10296000b0aa2a00a1ea230005f807000801be006a
:10297000d0f907000001be000000200001f0230094
:10298000fff707000006be000801be000800be00f9
:10299000c8f907000001be000c00be00c5f9070021
:1029a000b2a32a0083fb2300c2f907000001be0086
:1029b0004fb29700bfb297000400be00f0f70700c7
:1029c0000006be000001be000a00be00f5f70700c9
:1029d00004002f00000262000404780081047800e3
:1029e0000a01be0004007800e5f707000001be0000
:1029f0000c00be00e2f70700000278000106780034
:102a00000d002f00ffaa9700858666000fb797007c
:102a10000d0178008e0178007fa897008fb0970095
:102a2000c4b79f00d6f707000801be00a1f9070050
:102a30000005be007fa997008fb197004fb09700a7
:102a40008c0078009bf907000001be000a00be0060
:102a5000d4f70700f0af9f0081b79f000d01780009
:102a60008e0178000800be0092f907000004be0045
:102a70000006be000001be007fa897008fb097003f
:102a8000c8f707000005be00d0af9f00e1af9f0070
:102a90000000200001302400800f5500818f5d0070
:102aa0007fff3c00800f5500818f5d00e9013a00f7
:102ab000c2a32a00833323007fa897008fb097001a
:102ac000b8f707000002be000801be000a00be0001
:102ad000c4b79f00b5b79f00a9f707000001be006b
:102ae0004fb29700bfb297000400be004cf707003a
:102af0000000e0006aff3c000a00be0001f0a100f7
:102b00006022b8000200200003f02300820f500072
:102b1000838f5800350034004788de00e007b1009d
:102b200002002000030820000000e9000300330039
:102b30008381d1000281d300fbff370002004500f2
:102b400083804d004789de000283fb008003eb0099
:102b5000f607b1000780b100f2ff2f00f307200055
:102b6000060678000c06e900030033008381d100db
:102b70000281d300fbff37000281ea008381ea0073
:102b80008002610001826100050178008401780003
:102b90000002be00f507b2000570a0007703130025
:102ba0000603e900030033008582d1000482d300cc
:102bb000fbff37005fae9700efae9700e00f5600c7
:102bc000e08f5e0002003d0060021200e0821a0009
:102bd0000800be00c4b79f00b5b79f0068f70700a4
:102be0000006be00bfb297004fb297007fa99700c2
:102bf0008fb197000c00be00c4b79f00b5b79f000f
:102c000068f707000e00280000076700010478003d
:102c10000220270013f323000e00780025f9070097
:102c20000005be000c01be000e0078008800780090
:102c300053f707000001be007fa897008fb09700f0
:102c40004ff707008221270013f3230019f907002b
:102c50000006be00c2e82b00f35b23000e007800e4
:102c60008800780013f907000001be000c00be00c8
:102c70004cf707000006be000001be000a00be00bf
:102c800048f707000004be000a01be003cf7070039
:102c90000001be000c00be0039f707000006be00b0
:102ca0000801be000800be0002f907000005be00d2
:102cb000c2b42b0013332300fef80700e2a02e005d
:102cc000d35d23002ef707000a01be00f9f80700c4
:102cd00052352b00a388230032f707000a01be00fb
:102ce000f4f8070012b6200063b3230024f70700ae
:102cf0000a01be00eff80700b2aa2a00a3e22300ef
:102d000028f707000a01be00eaf807000001be002c
:102d10000800be001af707000005be000001be0053
:102d20000800be00e3f807000003be000200200018
:102d3000030024000a00be00d6b79f00e7b79f003b
:102d40000ff707000001be005fb39700efb39700d5
:102d50000600be00f8f707000005be000c01be002b
:102d60000800be00d3f807000c01be000df70700f5
:102d70000001be000a00be0001f707000801be0006
:102d8000fff607000001be000000200001f823004c
:102d9000fbf607004fb29700bfb29700c721dd00d6
:102da000020020000201400083814800479bde00b2
:102db000cf9bde00e00f5300e08f5b003a013c0048
:102dc000040178008b0107001fb19700afb1970095
:102dd0003efe37006000b80002f827008a0061005c
:102de0006011b800e00f5000e08f580007003a0073
:102df0000200200003b824000400be00adf8070064
:102e00000004be0082fe2f00f3ff2f0047c8de0043
:102e1000cfc8de00f007b1000180b1000002410020
:102e2000818249000800be00f107b20008002000be
:102e300009f8230008047000898470006055b80008
:102e400012472c00c3012000820f5000838f5800ce
:102e50000e0034001a0020000b002000623d2b0001
:102e6000d3052000820f5000838f580007003400e4
:102e70000402450085824d000000200001f82f006b
:102e800008044000898448006055b800c253dd0042
:102e9000004e2100070040001006780090069000c8
:102ea000bcaf9f00cdaf9f000c01be000800be006c
:102eb000c4b79f00b5b79f00e7b79f00b0f6070003
:102ec00090af9f00a1af9f000801be003fa89700f0
:102ed000cfa89700b3f607000001be000000200055
:102ee00001f8230094f70700f0b79f0081bf9f000f
:102ef0000001be001fa89700afa897006df807005b
:102f000000077800d1af9f000d002f0000866600fb
:102f1000810678008981d1000881d30006002f0046
:102f2000020063008300780001d0a10001d0a0005e
:102f300002002000030420000000410081804900bd
:102f4000c555dd000a0020000005450081854d00c3
:102f50000c01be000a00be0056f807000001be00ca
:102f60001fa89700afa8970085f6070090af9f00b5
:102f7000a1af9f003fa99700cfa997000a00be000c
:102f80007ff607000001be000800be007cf60700c7
:102f90000c01be0047f807000001be001fa8970003
:102fa000afa8970076f607007fb197008fb997001a
:102fb00040f80700b0af9f00c1af9f000e0178003e
:102fc000dfa997000e007800dfa8970039f8070006
:102fd0000004be0022142f0033e5230035f807005b
:102fe00052252300c3e623006ef607000801be0049
:102ff00030f8070052302a00b3e8230069f60700d2
:103000000801be002bf80700b2aa2a00a3ea230099
:1030100064f607000801be0026f8070072db2600f0
:10302000b3ed23005ff607000801be0021f807009a
:10303000a299290093f123005af607000005be006b
:103040000801be000800be001af807000001be001b
:103050000a00be0017f807000004be000e01780049
:10306000dfa997000c00be004ef607003fa99700ad
:10307000cfa997000ff807000801be0049f6070026
:1030800090af9f00a1af9f000c01be000c00be00de
:1030900008f807000004be0002002000030424001a
:1030a00040f607001fa99700afa997003df607005b
:1030b00002002f0080056100010578000c01be00b0
:1030c0000b007800fbf707000006be00020020009e
:1030d000030424000b0078008a00780028f607001b
:1030e0000801be0026f607000001be001fa89700d9
:1030f000afa8970022f607000e017800dfa997001d
:10310000ecf707000004be003fa99700cfa9970085
:103110000b0078008a007800e6f707000001be0087
:103120000800be001ff607000004be000001be003c
:103130000c00be001bf6070003002f008085610015
:10314000010578000200240063f723000b007800db
:10315000d8f70700d0af9f00e1af9f000c01be0081
:103160000b0078008a00780005f607000001be0019
:103170000800be0002f60700f284230063f7230074
:10318000ccf707000004be00623c2200638f2b00d6
:103190000b0078008a007800c6f707000001be0027
:1031a0000800be00fff50700024d2100efb39700b5
:1031b000070141009201900012017800f9f5070023
:1031c000b0af9f00c1af9f004fb29700bfb2970052
:1031d0000400be00d0f507000005be00804d2100b0
:1031e000efb39700070040001006780090069000ab
:1031f0003fa99700cfa997005fa89700efa8970075
:10320000e8f507000c01be00e6f507000a01be0064
:10321000e4f5070004002f000003620006047800b4
:10322000810478000a01be0006007800d4f507008a
:103230000c01be00d2f507005fa99700efa9970027
:10324000cff507000001be003fa89700cfa8970068
:10325000e8fd37000a00be0001f0a10002002000d6
:1032600063312400820f5000838f58009ffd3c0083
:103270000000200061312c00800f5500818f5d001f
:103280001dfe3a000801be000a00be00bcf50700a2
:103290007fa997008fb1970061f507000000e0005b
:1032a00015fe350091fd37000200be00c6fe370056
:1032b0000400200005f82300e1fc37000b02780031
:1032c0008a027800defc37000800fa00889fbe0002
:1032d0008a9fbe008c9fbe000004be004708de002f
:1032e0000086fb0050092000800f560014003c00af
:1032f00088bf9f0099bf9f000805be00e00f5400e3
:10330000e08f5c0001003d000bf0a20002002000f5
:1033100003b024000a00be00a2f50700d207200077
:10332000820f56000c003c00e0b79f00f1b79f00f1
:103330006011b8000800be005ef707000004be0080
:103340000800be004f06be004f05be004f04be0081
:103350000080fa00000006000200200003b02400f4
:1033600087f507000a01be0085f507000006be00cc
:103370000001be000a00be008af507000004be007e
:103380000200200003f023000c00be0024f507001b
:103390000000e0000c0034000200200003f82300cd
:1033a0000800be0076f507000004be000fb89700c5
:1033b0009fb89700e00f5000e08f5800e0ff3d00fd
:1033c00009f0a200deff37000200200003f02b000e
:1033d0000c00be0010f507000000e000f3ff3c0009
:1033e0000200200003f823000800be006df507006e
:1033f000edff3700889fbe000002be000204780087
:10340000f9072000890f510012003400020020004b
:1034100003f0270027f707000002be0012f82f0074
:1034200008014100890f51001d00340002002000f6
:1034300003f027001ff707000002be0022f02f0054
:1034400008014100890f510015003400090178007e
:103450001300370029f82f00890f510010003d009c
:103460000200200003c8200012f707000002be007f
:103470006206200008014100890f510008003d004c
:103480000200200003c820000af707000002be0067
:10349000c20c200008014100890f5100ebff3500ec
:1034a000f207b0006111b900c711dd000200200071
:1034b0000400be00fff607004f04be000000060037
:1034c0000400fa00889fbe000004be008900780056
:1034d00001f0a100a4fd200095f42300840f50000a
:1034e000858f58001e003e00f4ff2f00f597230043
:1034f000840f5000858f580016003e006000b80011
:1035000003f8270089806100e00f5000e08f580029
:103510000b003a0002002000033820000800be0023
:10352000e4f607000001be00c2bf9f00d3bf9f00aa
:103530000800be004f04be000080fa000000060034
:103540000200200003b827000800be0015f50700a0
:10355000f4ff37000800be007301070018003700b1
:103560004f49de0003002000143d2500b50724006c
:10357000840f5000858f58001d003e0034be2c0083
:1035800065012400840f5000858f58000e003e0016
:103590000800be000200e000b2fd200093fc230002
:1035a00005003200fff40700d40007000004be004d
:1035b00009f0a200deff3700f1f40700cf0007009a
:1035c0000004be00daff37000800be000200e00081
:1035d000b2fd20009304240003003200f1f4070040
:1035e00001f0a200dcff3700e5f40700fcff370024
:1035f000541d2300250e2400840f5000858f580091
:1036000017003e00f4dd2e00f50a2400840f500060
:10361000858f580009003e000800be000200e0004f
:1036200042be2c006309240002003200ddf40700d2
:10363000e2ff3700d2f40700dbff37000800be00ce
:103640000200e000b2fd2000930c240002003200d2
:10365000d4f40700c0ff3700c9f40700beff3700ed
:10366000f2ff2f00f3f72700820f5000838f5800de
:10367000050036000801be000800be00c0f40700c7
:103680000004be00aaff370082ff2f000f01410097
:103690000800be00cd000700630160004fb897002e
:1036a000dfb89700e10f5100c4ff3200e20f510074
:1036b000cbff32000200e000bbff3a00a6ff37005c
:1036c000889fbe008a9fbe008c1f78000004be0049
:1036d0000003be006055b80004f8270089056200a9
:1036e0000400200005f82700840f5500858f5d0039
:1036f0000b003a000001be006ef607000001be009c
:103700000800be00a7f407000004be000800be00c9
:103710004f0678004f05be004f04be0000000600b3
:10372000e00f5000e08f580010003c000002be0087
:1037300005f0a100e00f5200e08f5a00f3ff3200c5
:10374000e00f5000e08f580008003d0010022000fc
:1037500090a788000801be000800be0088f407009a
:103760000001be0074f50700e7ff370047bdde002b
:10377000cfbdde00e00f5500e08f5d000c003a0089
:103780000603430087834b0061004500e0804d0045
:103790000001eb00870178000308b200e00f510040
:1037a000e08f59004d00320060051500e0851d00d6
:1037b000fa07b1000b80b1000600be00f107b200ad
:1037c0000170a000610165008001eb00e00f510075
:1037d000e08f590002003200000040008180480064
:1037e0008b85d1000a85d30000004000818048000d
:1037f0009c01200002002000031020006044b8005b
:103800006033b8000602410087824900800f5200f1
:10381000818f5a0006003c00040341008583490063
:103820000400500085805800080441008984490044
:1038300000004000818048008301d1000281d30054
:103840000c06e9000c00e000eeff3a00e00f50002b
:10385000e08f5800160032000226240023da2000f0
:103860000000200001f8230045f4070002002000ba
:1038700003f82300eaf307000000e0000c00350025
:103880000226240023da20000000200001f8230093
:1038900044f407000200200003f82300e0f30700cf
:1038a0000000e0000f00340062044400e0844c009b
:1038b0008984d1000884d3000000200001f0230097
:1038c0000800400089804800c755dd000a0020003c
:1038d0000a0440008b8448008cff37000005be00be
:1038e000a7ff370061004400e0804c00000478002e
:1038f0000800a10081047800edff37000400fa0001
:10390000889fbe008a9fbe008c9fbe000001be0043
:10391000e8f507000004be000001be00e5f5070061
:103920000005be000200200003f02b000800be00ce
:10393000e0f507000200200003f8230019f4070057
:103940000006be00f2a92a00a3d223000a00be008e
:10395000d8f507000001be000c00be0011f40700fe
:103960000002be0072a12900c37c23000800be0033
:1039700084bf9f0095bf9f00cef50700f243200053
:1039800063ab2300fef307000006be000a01be0081
:103990000800be00c7f507000001be000c00be0015
:1039a000c4f507000001be000fba97009fba970048
:1039b0000400be00fbf307004f06be004f05be002b
:1039c0004f04be000080fa00000006000400fa0068
:1039d000889fbe008a9fbe008c9fbe0000067800b4
:1039e000810478008206780001f0a100a2fd200089
:1039f00093dc2400820f5000838f580023003e0088
:103a000032982f0023f2230089007800a9f50700df
:103a10000200200003b42400e2f3070002002000ab
:103a200003b42400d6f307000005be007ef30700b0
:103a300000047800a2fd200093fc23000a00be00d1
:103a40009cf507000001be000c007800890078009a
:103a5000cbf307000002be00325a2800832823005f
:103a60000a00be0084bf9f0095bf9f0091f507002c
:103a70000001be000fba97009fba97000400be0075
:103a8000bff30700808ebe000b003700f2ff2f004f
:103a9000f3f72700820f5000838f58000c00360088
:103aa000000178008901780089007800b4f30700ec
:103ab000808ebe000004eb00080078004f06be00b8
:103ac0004f05be004f04be000080fa000000060053
:103ad000890078004c0007000005be0032982f00d6
:103ae00023f2230073f507000200200003f02300f7
:103af000acf30700550007000004780010f707003a
:103b000032982f0023f223008bf407000001be003f
:103b10000a00be009af307006000b800a0069800f3
:103b2000b1069800d7ff37000400fa00889fbe0056
:103b30008a9fbe008c9fbe000006be000001be0032
:103b40005cf507000004be000001be000c00be00d2
:103b500058f507000005be000801be000800be00c1
:103b600054f507000a01be0052f507000002be002e
:103b7000c2c32600636323000800be0084bf9f0009
:103b800095bf9f004bf50700f27c200003952300b2
:103b90007bf307000001be000fba97009fba9700a1
:103ba0000400be0043f507000002be004288280062
:103bb00083c023000800be0084bf9f0095bf9f0004
:103bc0003cf50700b2aa2a00a3e223006cf3070029
:103bd0000a01be0037f507000c01be0071f30700b3
:103be0000001be000fba97009fba97000400be0004
:103bf0006cf307004f06be004f05be004f04be0029
:103c00000080fa00000006000400fa006011b8000d
:103c1000e2bf9f00f3bf9f006fbb9700ffbb970001
:103c20000002be00f0ff2f00f1ff2f00f2ff2f0077
:103c3000f3ff270000006200818062000201630040
:103c4000838163000080fa00000006000003be00cc
:103c500036f307006011b8000470a70007f0a10058
:103c60006509b1001b0032001200350086022000f9
:103c70000628e10008003500f3ff2700f2ff2f00bf
:103c80006110b9000700e00018003b0003002800a5
:103c90006000b8000200050000004000818048007c
:103ca00002014900838149008502e900faff3a00d8
:103cb00008003700f88f420002003c008000eb0053
:103cc000000005008100d1000080d3008502e800db
:103cd000fcff3a000700e00004003b006000100019
:103ce000e080180060011900e08119000000060062
:020000040000fa
:103cf0001a00fa00b2110700b3100700e60b070024
:103d0000ff0b0700bf0c07005e1107007e0d0700c8
:103d10003d120700370807003e0807000000eb00cf
:103d2000000f78000200370005120700cd060700db
:103d3000141207000004e000fbff3a00971107008f
:103d4000e14f5000f7ff3a00981107008f1107006c
:103d5000100798000e80e8006100200010804000ed
:103d6000100078008000eb00eef2070032332300f1
:103d700033052400cff4070000017800010078002b
:103d8000820278000002780002002000035824001c
:103d900005007800840078000000be00e6f307000c
:103da00020079800310798002e019000be01900076
:103db0000000200081202400dff3070000017800cc
:103dc00001007800820278000002780002002000e2
:103dd000030a240005007800840078000000be007b
:103de000e7f2070080017800010178000300780005
:103df000820078000000be00508588006185880040
:103e00001e009000100078008000eb00c5f2070053
:103e10003233230033052400a6f4070000017800a4
:103e20000100780082027800000278000200200081
:103e30000358240005007800840078000000be00cc
:103e4000bdf3070020079800310798002e0190006d
:103e5000be0190000000200081202400b6f307007e
:103e600000017800010078008202780000027800ea
:103e700002002000030a2400050078008400780076
:103e80000000be00bef2070080017800010178004a
:103e900003007800820078000000be007085880072
:103ea000818588000e80e8001080e800100078000e
:103eb0008000eb009bf2070032332300330524001f
:103ec0007cf407000001780001007800820278008d
:103ed000000278000200200003582400050078004a
:103ee000840078000000be0093f3070020079800cc
:103ef000310798002e019000be01900000002000c4
:103f0000812024008cf30700000178000100780074
:103f1000820278000002780002002000030a2400d8
:103f200005007800840078000000be0094f20700cd
:103f30008001780001017800030078008200780099
:103f40000000be0010858800218588000e80e800f2
:103f50004100200010804000100078008000eb003d
:103f600070f20700323323003305240051f40700b8
:103f700000017800010078008202780000027800d9
:103f80000200200003582400050078008400780017
:103f90000000be0068f30700200798003107980072
:103fa0002e019000be01900000002000812024001e
:103fb00061f30700000178000100780082027800b8
:103fc0000002780002002000030a240005007800a7
:103fd000840078000000be0069f2070080017800cc
:103fe0000101780003007800820078000000be0024
:103ff00030858800418588000e80e800810020001f
:1040000010804000100078008000eb0045f20700af
:10401000323323003305240026f407000001780022
:10402000010078008202780000027800020020007f
:104030000358240005007800840078000000be00ca
:104040003df3070020079800310798002e019000eb
:10405000be019000000020008120240036f30700fc
:1040600000017800010078008202780000027800e8
:1040700002002000030a2400050078008400780074
:104080000000be003ef207008001780001017800c8
:1040900003007800820078000000be00f0848800f1
:1040a00001858800f08480000185800002002000e6
:1040b000832c2400daf107000000e0000400340043
:1040c00000002000812c2400f084880001858800f5
:1040d000108580002185800002002000832c2400b0
:1040e000cff107000000e0000400340000002000d1
:1040f000812c24001085880021858800308580006f
:104100004185800002002000832c2400c4f10700b8
:104110000000e0000400340000002000812c240096
:104120003085880041858800708580008185800009
:1041300002002000832c2400b9f107000000e000f9
:104140000400340000002000812c240070858800c9
:1041500081858800508580006185800002002000f4
:10416000832c2400aef107000000e00004003400be
:1041700000002000812c2400508588006185880083
:104180001e0fe8001e007800e90f50007400340094
:10419000f084800001858000a3f1070000407800d2
:1041a000004f9800f0848000018580009ef1070098
:1041b0004880de0000407800104f98001085800095
:1041c0002185800098f1070000407800204f98007a
:1041d000108580002185800093f107004880de0073
:1041e00000407800304f9800308580004185800085
:1041f0008df1070000407800404f98003085800026
:104200004185800088f107004880de00004078008a
:10421000504f9800508580006185800082f1070032
:1042200000407800604f98005085800061858000d4
:104230007df107004880de0000407800704f980054
:10424000708580008185800077f10700004078004c
:1042500000579800708580008185800072f107000a
:104260004880de0000407800105798006800470042
:10427000000178002100200010032000260507001f
:104280006a00470000017800210020002003200080
:10429000210507006c004700000178002100200084
:1042a000300320001c0507006e0047000001780065
:1042b0002100200040032000170507007000470080
:1042c00000017800210020005003200012050700a3
:1042d000b0848000c1848000720247000001be00eb
:1042e0008000eb0004007800420e0700708480001c
:1042f00081848000720247000001be00410020005e
:10430000040078003b0e07007200470000017800af
:104310008100200010042000ff040700220b210070
:104320008101200010092000fb040700a20c2100dd
:104330008101200020092000f7040700220e21003f
:104340008100200050092000f3040700da0907006b
:10435000050a0700300a07000000eb00000f780094
:10436000508580006185800002002000031a24002f
:1043700029f107000000e00002003d00754ea80092
:1043800001003700754ea900f0848000018580008f
:1043900002002000031a24001ff107000000e000c3
:1043a00002003d00856ea80001003700856ea9005f
:1043b000308580004185800002002000031a24001f
:1043c00015f107000000e00002003d00848ea80007
:1043d00001003700848ea9001085800021858000af
:1043e00002002000031a24000bf107000000e00087
:1043f00002003d0084aea8000100370084aea90091
:10440000708580008185800002002000031a24004e
:1044100001f107000000e00002003d0084cea8008a
:1044200040fe370084cea9003efe37000400fa00ab
:1044300062d0bf000080fb006100b90012012000c3
:1044400003002000820f5000838f5800c3003e00fd
:1044500000060100110037001a0037002300370062
:104460002d0037002e0037003800370039003700a4
:1044700043003700440037004e0037004f0037003c
:1044800059003700b5003700b4003700b3003700db
:10449000b200370056003700ae0037006430ef003e
:1044a0006630ef00120020006000b800b20b070079
:1044b0000001eb006000b800af0b070010c0b300b4
:1044c00062f0b7002283800033838000803e2000aa
:1044d00001002000800f5100818f5900a10036009b
:1044e00020c0b30062f0b7009e0037001200200029
:1044f00000002000811c24009f0b07000001eb003e
:1045000000002000811c24009b0b070030c0b3007a
:1045100062f0b70094003700960007009200370061
:10452000120020000000200001152400920b07005b
:104530000001eb0000002000010e2c008e0b070094
:1045400050c0b30062f0b700870037008900070051
:10455000850037001200200000002000010e2c0012
:10456000850b07000001eb0000002000011524006e
:10457000810b070070c0b30062f0b7007a0037000b
:104580007c000700780037001200200000002000a7
:1045900001172400780b07000001eb000000200049
:1045a00001172c00740b070090c0b30062f0b70035
:1045b0006d0037006f0007006b003700120020000d
:1045c0000000200001172c006b0b07000001eb001e
:1045d0000000200001172400670b0700b0c0b300e3
:1045e00062f0b70060003700620007005e0037002d
:1045f0001085800021858000020020008324240093
:1046000087f007000000e0000300340040012000b4
:10461000000f780021003700108580002185800080
:1046200002002000031a24007bf007000000e000d5
:1046300003003d0010ff2f00000f78001700370027
:1046400010858000218580006011b80099f2070074
:1046500000017800010078008202780000027800f2
:104660000200200003042400050078008400780084
:104670000000be00cbf007000001780001007800c8
:104680008201780000017800030078008200780041
:104690000000be0064f00700000f7800f084800086
:1046a0000185800002002000832424005cf00700c4
:1046b0000000e000030034004001200010079800d3
:1046c00021003700f0848000018580000200200076
:1046d000031a240050f007000000e00003003d0032
:1046e00010ff2f001007980017003700f08480009b
:1046f000018580006011b8006ef2070000017800ab
:104700000100780082027800000278000200200098
:104710000304240005007800840078000000be0037
:10472000a0f0070000017800010078008201780005
:104730000001780003007800820078000000be00cd
:1047400039f007001007980010c1b30062f0b700fd
:104750000500370007000700030037006270ef0014
:104760000100370000000000000000000080fa0097
:10477000000006000200fa000040eb00004f780045
:10478000508580006185800002002000831c240089
:1047900021f007000000e00007003500f0848000f1
:1047a0000185800002002000831c24001af007000d
:1047b0000000e00018003d00308580004185800049
:1047c00002002000831c240015f007000000e00018
:1047d0001100340010858000218580000200200037
:1047e000831c24000ef007000000e0000a003400e3
:1047f000708580008185800002002000031e240057
:1048000007f007000000e0000300340020c0b30000
:10481000004f780066003700508580006185800079
:1048200002002000831c2400fdef07000000e000d0
:104830001f003400f0848000018580000200200009
:10484000831c2400f6ef07000000e000180034008d
:10485000308580004185800002002000831c2400f8
:10486000efef07000000e000110034001085800029
:104870002185800002002000831c2400e6ef070051
:104880000000e00007003500708580008185800011
:1048900002002000031e2400dfef07000000e000fc
:1048a00003003d0010c0b300004f78004000370007
:1048b000308580004185800002002000831c240098
:1048c000d5ef07000000e00003003d0030c0b3005a
:1048d000004f780036003700108580002185800069
:1048e0000200200083242400cbef07000000e0003a
:1048f00007003500f0848000018580000200200060
:1049000083242400c4ef07000000e00003003d0002
:1049100040c0b300004f780025003700508580006c
:104920006185800002002000831c2400bcef07008a
:104930000000e0001e003400f0848000018580004b
:1049400002002000831c2400b5ef07000000e000f7
:10495000170034003085800041858000020020006f
:10496000031f2400aeef07000000e0001000340039
:10497000108580002185800002002000831c240017
:10498000a7ef07000000e0000900340070858000f8
:104990008185800002002000831c2400a0ef070016
:1049a0000000e000020034000040eb00004f7800ff
:1049b0001e4078000004e00003003a0020c0b3006d
:1049c00063f0b700230037001e407800e24f50002c
:1049d00003003a0040c0b30063f0b7001d00370089
:1049e0001e407800e14f500003003a0060c0b30061
:1049f00063f0b700170037001e407800e44f500006
:104a000003003a0000c1b30063f0b70011003700a3
:104a10001e407800e34f50000e003a00748580007d
:104a20008585800050858000618580000001be0082
:104a30000400be007aef07000000e000030034002d
:104a400080c0b30063f0b70002003700a0c0b3001d
:104a500063f0b70063d0bf000080fb002106210097
:104a6000914078008180fb008100e900810f5000b7
:104a70000200320063d0bf0062f0b7000000000007
:104a80000080fa00000006000000fa006000b80094
:104a900050a4880061a488006000b80070a4880059
:104aa00081a488006000b80050a3880061a388003a
:104ab0006000b80010a4880021a488006000b8003d
:104ac00030a4880041a488006000b80090a4880049
:104ad000a1a488006000b800b0a48800c1a4880028
:104ae0006000b80030a5880041a588006000b800cb
:104af00050a5880061a588006000b80030a3880038
:104b000041a388006000b800f0a4880001a58800d7
:104b10000000eb0070a58800000000000080fa0093
:104b2000000006001000fa00889fbe0070a58000fb
:104b3000e10f50000c0032000000e00003003200e2
:104b4000e20f500048013200a00237006000b800b8
:104b500010a4880021a488006000b80030a4880058
:104b600041a488009902370094a48000a5a4800085
:104b700050a4800061a480000001be000400be00bb
:104b80007fef0700000178000100780082047800c0
:104b900000047800b4a48000c5a4800070a4800044
:104ba00081a480000001be000400be0074ef070075
:104bb000000178000100780082027800000278008d
:104bc00009007800880078000001be000500780028
:104bd000840078000000be0046f30700d0a48800df
:104be000e1a48800d0a48000e1a48000b4a38000e8
:104bf000c5a380000001be000400be00550c0700e4
:104c00000002be00b0a38000c1a380000001be006e
:104c10000400be005aef070080017800010178000f
:104c200003007800820078000000be0070a38800b6
:104c300081a3880030a4800041a4800002002000ed
:104c4000030024000bf607000004be00f0a3800060
:104c500001a480000001be0052ef070000017800af
:104c600001007800820178000001780003007800dc
:104c7000820078000001be000800be002ef0070090
:104c8000800178000101780003007800820078003c
:104c90000000be0090a38800a1a3880030a480007b
:104ca00041a4800002002000a337240022f0070066
:104cb000800178000101780003007800820078000c
:104cc0000000be00d0a38800e1a3880030a48000cb
:104cd00041a480006011b800cfee07000000e000a2
:104ce00005003d0090a38000a1a3800001f0a20078
:104cf00090a38800a1a3880070a3800081a38000f6
:104d00006011b800c6ee07000000e00006003500a4
:104d100090a38000a1a380006011b800c0ee07003e
:104d20000000e0000c003d0070a3800081a3800023
:104d30006011b800b8ee07000000e0006c003c0015
:104d400090a38000a1a380006011b800b2ee07001c
:104d50000000e00066003c0070a3800081a380009a
:104d6000e80a07000004be0090a38000a1a3800011
:104d7000e40a07000001be000800be00a8ee07001c
:104d80000000e0005a00350070a3800081a380007d
:104d90006011b800a2ee07000000e000250034001a
:104da00074a3800085a3800090a38000a1a380004d
:104db0000001be000400be0097ee07000000e00006
:104dc000010035008700370030a4800041a4800036
:104dd00002002000030424008fee07000000e00022
:104de0000f003d00f4a3800005a4800030a48000e3
:104df00041a480000001be000400be00e9ee0700ef
:104e000080017800010178000300780082007800ba
:104e10000000be0030a4880041a488007100370063
:104e2000000020000104240030a4880041a4880070
:104e30006c00370070a3800081a380006011b8006f
:104e400075ee07000000e00025003d0074a380001f
:104e500085a3800090a38000a1a380000001be0074
:104e60000400be006eee07000000e00001003c0000
:104e70005c00370030a4800041a4800002002000c4
:104e800003042c0066ee07000000e0000f00340071
:104e9000f0a3800001a4800034a4800045a4800019
:104ea0000001be000400be00b5ee070080017800de
:104eb0000101780003007800820078000000be0045
:104ec00030a4880041a4880046003700000020007c
:104ed00001042c0030a4880041a488004100370060
:104ee0006000b80030a4880041a488003d0037006d
:104ef00070a3800081a380006011b80048ee070015
:104f00000000e0000f003400f0a3800001a4800046
:104f100034a4800045a480000001be000400be004f
:104f200097ee070080017800010178000300780007
:104f3000820078000000be0030a4880041a48800f0
:104f40001800370070a3800081a380006011b800b2
:104f500031ee07000000e0000f003d00f4a38000e8
:104f600005a4800030a4800041a480000001be00a0
:104f70000400be008bee070080017800010178007c
:104f800003007800820078000000be0030a4880092
:104f900041a48800030037006000b80030a48800f6
:104fa00041a4880070a3800081a38000550a0700f7
:104fb0000004be00d0a38000e1a38000510a0700d6
:104fc0000001be000800be0013ee07000000e00074
:104fd00004003d0070a3800081a38000d0a388005e
:104fe000e1a38800b4a38000c5a38000d0a3800003
:104ff000e1a380000001be000400be0069ee0700ce
:1050000080017800010178000300780082007800b8
:105010000000be00b0a38800c1a3880070a3800078
:1050200081a38000370a07000200200003f023005c
:10503000f9ed07000000e0000100350063013700d2
:105040006000b80030a4880041a4880030a380002c
:1050500041a3800050a3880061a388000000eb00fa
:1050600070a5880059013700b4a48000c5a4800051
:1050700070a4800081a480000001be000400be0076
:105080003fee0700000178000100780082027800fe
:1050900000027800020020000300240005007800d0
:1050a000840078000000be00f2f407000004be0097
:1050b00094a48000a5a4800050a4800061a4800076
:1050c0000001be000400be002dee070000017800c4
:1050d00001007800820278000002780002002000bf
:1050e0000300240005007800840078000000be0062
:1050f000e0f407000001be000800be0029ee070032
:105100000001780001007800820178000001780039
:1051100003007800820078000000be0068f90700f4
:1051200010a5880021a5880010a5800021a5800079
:10513000d2cc2c00c3dc2300b7ed07000000e00058
:105140000e003d000000eb0070a588006000b80074
:1051500010a4880021a4880050a4800061a48000cd
:1051600090a48800a1a4880070a4800081a480007d
:10517000b0a48800c1a488001401370010a58000e5
:1051800021a58000f0a4880001a5880010a480005b
:1051900021a480000200200003002400b5f40700d1
:1051a000d2cc2c00c3e42300e3ee0700008fbe0046
:1051b00010a4800021a4800002002000030024002d
:1051c000acf407000001be000000200001f823003d
:1051d000ebed070000017800010078008202780002
:1051e00000027800d2cc2c00c3e423000500780034
:1051f000840078000000be00cfee07002007980072
:10520000310798002083800031838000c5ed0700be
:105210000002be00a0838000b18380000001be00b8
:105220000400be00d6ed0700400798005107980023
:1052300018a5800029a58000d2cc2c00c3dc230057
:105240001e0078009e009000d6ed07000001780057
:1052500001007800820178000001780003007800e6
:10526000820078000001be000800be006aed070061
:105270000000e0001e003c0018a4800029a480006b
:10528000d2cc2c00c3dc23004e009000de00900046
:1052900088ef0700000178000100780082017800a3
:1052a0000001780003007800820078000001be0051
:1052b0000800be00b2ed070080017800010178000f
:1052c00003007800820078000000be0010a488006f
:1052d00021a4880010a4800021a480006011b800df
:1052e00074f3070010a4880021a488006900370027
:1052f00018a5800029a580002e019000be01900015
:105300001e0078009e009000a6ed070000017800c6
:105310000100780082017800000178000300780025
:10532000820078000001be000800be003ced0700ce
:105330000000e0001f00340018a4800029a48000b1
:10534000d2cc2c00c3dc23004e009000de00900085
:1053500058ef070000017800010078008201780012
:105360000001780003007800820078000001be0090
:105370000800be008bed0700800178000101780075
:1053800003007800820078000000be0010a48800ae
:1053900021a4880010a4800021a480000200200025
:1053a00003f823006ef3070010a4880021a48800ee
:1053b0003800370018a5800029a5800010a48000bf
:1053c00021a4800002002000030024005aee070000
:1053d0000001780001007800820178000001780067
:1053e00003007800820078000001be000800be00c3
:1053f0006ced070000017800010078008201780060
:105400000001780003007800820078000000be00f0
:10541000abf80700600798007107980018a4800097
:1054200029a48000d2cc2c00c3dc23004e009000c5
:10543000de0090001fef07000001780001007800f7
:105440008201780000017800030078008200780073
:105450000001be000800be0052ed07008001780088
:105460000101780003007800820078000000be008f
:1054700010a4880021a4880010a4800021a480002a
:105480006e019000fe01900035f3070010a4880023
:1054900021a4880018a4800029a4800050a38000c3
:1054a00061a3800096f207000001be000800be0064
:1054b00000ef070000017800010078008202780008
:1054c000000278004e019000de0190000500780097
:1054d000840078000000be00f6ee070000017800ae
:1054e00001007800820278000002780050a4800059
:1054f00061a480000001be000500780084007800ef
:105500000000be0027ed070080017800010178004f
:1055100003007800820078000000be0050a48800dc
:1055200061a4880018a4800029a4800050a38000f2
:1055300061a38000e2f707000001be000800be0082
:10554000dcee07000001780001007800820278009c
:10555000000278004e019000de0190000500780006
:10556000840078000000be00d2ee07000001780041
:1055700001007800820278000002780070a48000a8
:1055800081a480000001be0005007800840078003e
:105590000000be0003ed07008001780001017800e3
:1055a00003007800820078000000be0070a488002c
:1055b00081a488002083800031838000d9ec07001b
:1055c000a0838800b1838800000000004f04be0063
:1055d0000080fa00000006000c00fa0050a48000d1
:1055e00061a480000001be008000eb000e00780086
:1055f0008009070070a4800081a480000001be0023
:10560000410020000e0078007a09070050a38000b6
:1056100061a380000001be00810020000e00780020
:10562000740907000e017800c1002000100120005d
:1056300039000700000000000080fa0000000600aa
:105640000a00fa00200798003107980042079800e6
:105650000040eb00004f78009e407800e0cfb300a0
:1056600000c06800004f78002e0090004880de00e7
:10567000004078009e40780000c06800004f78002d
:105680002e009000004078009e40780000c0680026
:10569000004f78003e0090004880de000040780017
:1056a0009e40780000c06800004f78003e009000e7
:1056b000004078009e40780000c06800004f7800ed
:1056c0000000eb00100798000c0037001e0090004f
:1056d000e800470011004000104078009e4078002c
:1056e00000c06800004f78000e80e8008e80e8005f
:1056f0001108e80090007800110798009e009000c3
