:020000040000fa
:080000000002040000000000f2
:020000040000fa
:040008009a03000057
:020000040000fa
:04000c009a03000053
:020000040000fa
:040010009a0300004f
:020000040000fa
:040014009a0300004b
:020000040000fa
:040018009a03000047
:020000040000fa
:04001c009a03000043
:020000040000fa
:040020009a0300003f
:020000040000fa
:040024009a0300003b
:020000040000fa
:040028009a03000037
:020000040000fa
:04002c009a03000033
:020000040000fa
:040030009a0300002f
:020000040000fa
:0400340002030000c3
:020000040000fa
:040038009a03000027
:020000040000fa
:04003c009a03000023
:020000040000fa
:040040009a0300001f
:020000040000fa
:040044009a0300001b
:020000040000fa
:04004800fa020000b8
:020000040000fa
:04004c009a03000013
:020000040000fa
:040050009a0300000f
:020000040000fa
:040054009a0300000b
:020000040000fa
:040058009a03000007
:020000040000fa
:04005c007603000027
:020000040000fa
:040060009a030000ff
:020000040000fa
:040064009a030000fb
:020000040000fa
:040068009a030000f7
:020000040000fa
:04006c009a030000f3
:020000040000fa
:040070009a030000ef
:020000040000fa
:040074009a030000eb
:020000040000fa
:040078009a030000e7
:020000040000fa
:04007c009a030000e3
:020000040000fa
:040080009a030000df
:020000040000fa
:040084009a030000db
:020000040000fa
:040088009a030000d7
:020000040000fa
:04008c009a030000d3
:020000040000fa
:040090009a030000cf
:020000040000fa
:040094002203000043
:020000040000fa
:040098009a030000c7
:020000040000fa
:04009c009a030000c3
:020000040000fa
:0400a0009a030000bf
:020000040000fa
:0400a4009a030000bb
:020000040000fa
:0400a8009a030000b7
:020000040000fa
:0400ac009a030000b3
:020000040000fa
:0400b0009a030000af
:020000040000fa
:0400b4009a030000ab
:020000040000fa
:0400b8009a030000a7
:020000040000fa
:0400bc009a030000a3
:020000040000fa
:0400c0009a0300009f
:020000040000fa
:0400c4009a0300009b
:020000040000fa
:0400c8009a03000097
:020000040000fa
:0400cc009a03000093
:020000040000fa
:0400d0009a0300008f
:020000040000fa
:0400d4009a0300008b
:020000040000fa
:0400d8009a03000087
:020000040000fa
:0400dc009a03000083
:020000040000fa
:0400e0009a0300007f
:020000040000fa
:0400e4004c030000c9
:020000040000fa
:0400e8009a03000077
:020000040000fa
:0400ec009a03000073
:020000040000fa
:0400f0009a0300006f
:020000040000fa
:0400f4009a0300006b
:020000040000fa
:0400f8009a03000067
:020000040000fa
:0400fc009a03000063
:020000040000fa
:040100009a0300005e
:020000040000fa
:040104009a0300005a
:020000040000fa
:040108009a03000056
:020000040000fa
:04010c009a03000052
:020000040000fa
:040110009a0300004e
:020000040000fa
:040114009a0300004a
:020000040000fa
:040118009a03000046
:020000040000fa
:04011c009a03000042
:020000040000fa
:040120009a0300003e
:020000040000fa
:040124009a0300003a
:020000040000fa
:040128009a03000036
:020000040000fa
:04012c009a03000032
:020000040000fa
:040130009a0300002e
:020000040000fa
:040134009a0300002a
:020000040000fa
:040138009a03000026
:020000040000fa
:04013c009a03000022
:020000040000fa
:040140009a0300001e
:020000040000fa
:040144009a0300001a
:020000040000fa
:040148009a03000016
:020000040000fa
:04014c009a03000012
:020000040000fa
:040150009a0300000e
:020000040000fa
:040154009a0300000a
:020000040000fa
:040158009a03000006
:020000040000fa
:04015c009a03000002
:020000040000fa
:040160009a030000fe
:020000040000fa
:040164009a030000fa
:020000040000fa
:040168009a030000f6
:020000040000fa
:04016c009a030000f2
:020000040000fa
:040170009a030000ee
:020000040000fa
:040174009a030000ea
:020000040000fa
:040178009a030000e6
:020000040000fa
:04017c009a030000e2
:020000040000fa
:040180009a030000de
:020000040000fa
:040184009a030000da
:020000040000fa
:040188009a030000d6
:020000040000fa
:04018c009a030000d2
:020000040000fa
:040190009a030000ce
:020000040000fa
:040194009a030000ca
:020000040000fa
:040198009a030000c6
:020000040000fa
:04019c009a030000c2
:020000040000fa
:0401a0009a030000be
:020000040000fa
:0401a4009a030000ba
:020000040000fa
:0401a8009a030000b6
:020000040000fa
:0401ac009a030000b2
:020000040000fa
:0401b0009a030000ae
:020000040000fa
:0401b4009a030000aa
:020000040000fa
:0401b8009a030000a6
:020000040000fa
:0401bc009a030000a2
:020000040000fa
:0401c0009a0300009e
:020000040000fa
:0401c4009a0300009a
:020000040000fa
:0401c8009a03000096
:020000040000fa
:0401cc009a03000092
:020000040000fa
:0401d0009a0300008e
:020000040000fa
:0401d4009a0300008a
:020000040000fa
:0401d8009a03000086
:020000040000fa
:0401dc009a03000082
:020000040000fa
:0401e0009a0300007e
:020000040000fa
:0401e4009a0300007a
:020000040000fa
:0401e8009a03000076
:020000040000fa
:0401ec009a03000072
:020000040000fa
:0401f0009a0300006e
:020000040000fa
:0401f4009a0300006a
:020000040000fa
:0401f8009a03000066
:020000040000fa
:0401fc009a03000062
:020000040000fa
:040200009a0300005d
:020000040000fa
:040204009a03000059
:020000040000fa
:040208009a03000055
:020000040000fa
:04020c009a03000051
:020000040000fa
:040210009a0300004d
:020000040000fa
:040214009a03000049
:020000040000fa
:040218009a03000045
:020000040000fa
:04021c009a03000041
:020000040000fa
:040220009a0300003d
:020000040000fa
:040224009a03000039
:020000040000fa
:040228009a03000035
:020000040000fa
:04022c009a03000031
:020000040000fa
:040230009a0300002d
:020000040000fa
:040234009a03000029
:020000040000fa
:040238009a03000025
:020000040000fa
:04023c009a03000021
:020000040000fa
:040240009a0300001d
:020000040000fa
:040244009a03000019
:020000040000fa
:040248009a03000015
:020000040000fa
:04024c009a03000011
:020000040000fa
:040250009a0300000d
:020000040000fa
:040254009a03000009
:020000040000fa
:040258009a03000005
:020000040000fa
:04025c009a03000001
:020000040000fa
:040260009a030000fd
:020000040000fa
:040264009a030000f9
:020000040000fa
:040268009a030000f5
:020000040000fa
:04026c009a030000f1
:020000040000fa
:040270009a030000ed
:020000040000fa
:040274009a030000e9
:020000040000fa
:040278009a030000e5
:020000040000fa
:04027c009a030000e1
:020000040000fa
:040280009a030000dd
:020000040000fa
:100400008f0421000eff2c000e0188000000000068
:10041000000020000000e000020032000001200087
:100420002002880014000700c40007000000e0005c
:1004300003003a00a07a21000100200002003700ea
:100440000000200001002000810f70000100320038
:100450000f000700000020000000e0000200320052
:100460000000020000000000e80b02000000000095
:100470000040da000000fe00200020000000e00044
:1004800002003200100020009001880000000600e9
:10049000a1028800800478000000eb001f003700f4
:1004a000e284440054a0b4009905ba00e2844400f8
:1004b00054a0b4009906ba00e284440054a0b400e9
:1004c0000006eb00476fde00fd07b200ae018800ba
:1004d000636ce10003003a000ad801000000eb0061
:1004e0000e003700606ce10008003a00004deb00a0
:1004f0000a05e800020039003420ec000af0a000f0
:100500008b05e900f9ff3e00040037006168e10057
:10051000010032000086eb000b00070019c7ba008b
:100520000e04e0001905ba0003003a000a00e000da
:10053000dbff3a0000000600fe07b200ae028800b2
:100540008a047800f5ff37000cd0a300e20f4d00bd
:100550001c003b0089027800354dba000a05e8000e
:10056000020039003420ec000af0a0008b05e900fd
:100570000f003200254dba000a05e80002003900dc
:100580003420ec000af0a0008b05e90008003200de
:100590000c00e0000600320015cdba000a05e800a4
:1005a000020039003420ec000af0a0008b05e900bd
:1005b0008984e80054a0b4000b00e000e2ff3a0098
:1005c000000006009902ba00055d78008b05e9007d
:1005d000f7ff3200c82ade00055d78008b05e900d0
:1005e000f3ff32000c00e000f1ff320019ddba0029
:1005f000eeff37000000fa000108a9000080fa00b1
:10060000004006003600f800809fbe00829fbe00ba
:10061000849fbe00869fbe000000fa000068a9000b
:1006200086080700ed0907000080fa004f03be00ae
:100630004f02be004f01be004f00be003600f90061
:10064000004006003600f800809fbe00829fbe007a
:10065000849fbe00869fbe000000fa000368a900c8
:10066000508080006180800061004000e080480090
:1006700050808800618088000b0507000080fa0028
:100680004f03be004f02be004f01be004f00be0030
:100690003600f90000400600809fbe000000fa000e
:1006a00005e8a90021738000000820000080600098
:1006b00000f0a7000000ea000000e9004f00de00a3
:1006c000004078000080fb00610060004700dd0012
:1006d000217380000170a100010070002073880068
:1006e0000080fa004f00be0000400600801f780026
:1006f0000000fa0001a8a90000188000f08188001d
:100700001018800000828800201880001082880065
:1007100030188000208288004018800030828800d5
:1007200010c0b30015f0b7000080fa004f00780049
:10073000004006000040da000000fe000000050056
:1007400014002000aa033700f4ff2f00a80337008d
:100750000001be003c0007000470a70003f0a100e8
:100760006509b100160032000d0035006828e1006f
:1007700006003500f0ff2f00f1ff27000300e00026
:1007800013003b00010028000000050000004000ad
:10079000818048008502e900fcff3a00080037002c
:1007a000f88f420002003c008000eb0000000500d2
:1007b0008100d1000080d3008502e800fcff3a00f0
:1007c0000300e00002003b0060001000e080180021
:1007d000000006000001be001b0007000470a70017
:1007e00003f0a10003f8a30013003a006509b1006b
:1007f00010003200090035006928e10002003500d0
:100800000100280000000500000040008180480031
:100810008502e900fcff3a0000000600f88f420064
:10082000050035008100d1000080d3008502e8007a
:10083000fcff3a00000006008000eb00000005000d
:100840006011b80085033700c70ade00f107b20067
:10085000f50fb20008003200e1cf42000200320082
:100860000170a00024000500810f7000010032001b
:100870000408050044000500810f700002003a00e2
:10088000140005008502e9000000400081c0480016
:10089000fcff3b000170a0002400050007f82700c2
:1008a000078361000638e10004003a00f7072000e2
:1008b000878361008703710001003a0003f0a20002
:1008c000889fbe008a9fbe008c9fbe00470ade0044
:1008d0000480a100c71ade000580a10007002800df
:1008e0000785600087856100f70f20000720e10081
:1008f0009e0032000728e1009c00320001067800cb
:100900000400e000b4003200f70720008780600098
:100910000170a0000500e000c0003200f7072000d1
:10092000878161000370a000050652000f003a00a5
:100930000b50e1000b0032000308e10002003a0016
:100940000200e1007e00320002045000838458005f
:10095000040031000001fd008101fd008402fd0062
:100960008a05fd006044b800210037000520e10041
:1009700005003d000001fd008101fd008402fd0035
:100980008a05fd00050652007a60e1000500350089
:100990000170a1004722dd00848070008a80700011
:1009a000630037006044b800ef02660007ff2f00c5
:1009b000070666000500e00006003400f083120020
:1009c0008714dd000511de00071bdd000601710044
:1009d0008519de007060e10005003500090478002b
:1009e00082047800030178008001eb007006560055
:1009f0000b50e10003003a000200400083804800f1
:100a00000400370060041400e0841c000200580059
:100a1000838058000188a300060032008100d100c5
:100a20000080d3008984d3000884d3000402e80046
:100a3000270037000178a30025003a000100e000fc
:100a4000030032008186cf00698656000a00370015
:100a50008c0020000000e00004003a00090078004b
:100a6000880478000004eb00700252008086cf00fa
:100a70000d0646000c06e9007060e1000600350036
:100a80008000780009007800880478000004eb00fa
:100a900070065600700252000c00e0000c0034009a
:100aa0008c08dd00f00316000703de00868070006e
:100ab0000c00dd00074bde00060070008c4cdd00f2
:100ac0000743de00868474000c44dd000c025200f3
:100ad0006120e1002000350061016000070028006e
:100ae00087816400f7ff2700878364000703740091
:100af0000300e000060032008203730004003200ad
:100b00000000e800e08048000188a3000e003a00e1
:100b1000f70f20000720e1004a003d000170a1000e
:100b20004722dd00810072008a8070000000be0054
:100b30004f06be004f05be004f04be000000060079
:100b40006000b800faff37008100d1000080d300b8
:100b50000402e800eeff3700040178008901740008
:100b6000a10107008a807000f1ff3700f70107003c
:100b7000070278000001fd008101fd00f30107007c
:100b800087027800850372000778a3000400320012
:100b90000001fd008101fd0006020700e4ff3700af
:100ba000850362000768a300080032000b50e100d3
:100bb00003003200f0ff2f00f1ff2700dcff3700b9
:100bc0000001fd008101fd00d9ff37000468a3008a
:100bd000d7ff3200faff3700f8ff27008883600054
:100be0000b003a000000e00009003a0083036400b3
:100bf00082837300020032000200be00ccff370087
:100c00000b50e100ceff3a000200be00c8ff3700e3
:100c100014002000810064003eff3700f8ff270029
:100c20008883610004003a000200e00002003a00fc
:100c30008c007800beff370015002000830164009f
:100c400039ff370001f827000000200081007500ff
:100c5000b7ff3700889fbe008a9fbe008c9fbe00f2
:100c60001b0020000202be00058668000600280066
:100c7000060666004709de00f20fb200820032006d
:100c80000243e80080003200c729de00f30fb20003
:100c90007d0032000343e8007b003200f107b20020
:100ca0000170a000f507b2000570a000c708dd00c4
:100cb0004903de00868070004700dd00c72add00a2
:100cc0004923de00868272004722dd0003055100c1
:100cd00004035000858358000300310000004000e9
:100ce000818048000a05e9008c1f78008a9fbe00b9
:100cf00004005000858058000402420085824a00aa
:100d000000004000818048000005eb000004be00a8
:100d10006033b8000406be000d48e1005600310003
:100d2000110009004dccd8000c01b8000d02b8002c
:100d30008481410060824a008283530003045c0086
:100d400084845c0060055d000a00e00025003a0034
:100d5000800578000d40e1004900310088007800ee
:100d600007007800110009004d88d8000c01b80078
:100d70000d02b8008481410060824a0060031100c6
:100d800083835b0004045c00e0845c000900e000f5
:100d900021003a004f01be000300e0002b003200aa
:100da000e3016000070673008c81710001003200ce
:100db000640070004200de004e5edd000c0070003a
:100dc000c258de0001e0a00083010700cf017800d7
:100dd000818071004f06be004f05be004f04be006b
:100de000000006008c8343000d044c00e0844c009e
:100df00060054d000000e9000a00e000d4ff320069
:100e00008c8343000d044c00e0844c0060054d00d1
:100e10000000e900ceff37000c0343008d834b0038
:100e200060044c00e0844c000000e9000900e00090
:100e3000d8ff32000c0343008d834b0060044c004c
:100e4000e0844c000000e900d2ff37004200de00e1
:100e50004e5edd000c007000c258de0001e0a00014
:100e6000cf0178000300e000daff320060001000dc
:100e7000e0801800d7ff3700f0ff2f00aaff3700ef
:100e8000f0ff2f00b9ff37000404be002f01070058
:100e9000870678000004fd008104fd002b01070097
:100ea000078366000678a300030032000960a700ec
:100eb0000800be002c0037000d78a30002003200ad
:100ec0000800be00280037000778a30026003a007b
:100ed00001f0a10009f0a1000668a30003003200a0
:100ee000f1ff2700f0ff2f00baff37000d68a300c5
:100ef000030032000800be008c807000b5ff370090
:100f00000768a30007003a000648a3000300320068
:100f1000f1ff2700f0ff2f00aeff37000d48a300c0
:100f2000030032006000b8008c807000a9ff370019
:100f30000748a3000400320001f827000000200049
:100f40008c807000a3ff3700760107000004fd00cd
:100f50008104fd0002057800720107000802be004e
:100f60008a01780059ff37000160a00012022000ba
:100f7000b280880097ff37000100e00012003200c5
:100f80000500e00010003200889fbe008a9fbe006e
:100f90008c9fbe000006eb0001f8a30003003200a6
:100fa00060001000e08018000cf0a00005f8a3001d
:100fb0000300320060021200e0821a000cf0a2006e
:100fc0008005eb0041ff37006000b800020005001b
:100fd000038368000700280007036300470ade0058
:100fe0000480a100c71ade000580a100f70f2000d1
:100ff0000720e100420032000728e10040003200f3
:10100000889fbe008a9fbe008c1f7800f107b20047
:10101000f307b2000400e000640032000170a00099
:101020000500e000680032000370a0008505420062
:10103000eb07b1000204b8000302b8008484440046
:1010400060854a00020ab800848444000a854a0088
:10105000030ab80004054500040033000804d0006a
:101060008984d2000a85d2008b05e9006158e1002d
:101070003d00350002102000090161000308200036
:1010800089816100f7072000878364000886730068
:10109000c84cde00c853dd00878474004855de006c
:1010a0000300e000060032008203760004003200f4
:1010b0008904e80060054d000a88a3000c003a008e
:1010c000f70f20000758e10044003d000a70a1001e
:1010d000c75ddd000a8575008a007300090078008d
:1010e0004f0678004f05be004f04be00000006000a
:1010f0000a05d1008984d3008b05e800f0ff370092
:10110000881f780006047800900007000702780026
:101110000001fd008101fd008c00070087027800be
:10112000850372000778a300050032000001fd006e
:101130008101fd009f0007004f04780000000600b9
:10114000850372000748a30003003200f0ff2f0060
:10115000f1ff2700f8ff37000000200001f827000a
:1011600088807000f4ff3700880178004848dd006f
:10117000808171004848de00c850dd000100700029
:10118000c850de00060478000b0178001600070046
:1011900088807000d2ff37000500e00005003200b3
:1011a000170020003a0007009dff37008103700000
:1011b000f9ff3a00860078004f0678004f05be0020
:1011c0004f04be000000050083037100f9ff3200e8
:1011d000270020002e00070094ff370001f82700a9
:1011e00086807000f4ff37000100e0002600320026
:1011f000610111007810e10023003c006022b8007a
:101200007010e100040035008002780001007800d1
:101210008000eb00700151000200e0000900340082
:1012200070031100062add00822ade008603dd003d
:10123000878272000200de00860bdd00070070006e
:101240008208de0084817100f4ff270004826200be
:1012500084817100040028008482620061026000c1
:1012600005f0a600000006000482710007003200ad
:101270000000e800e0804800000006000002be0018
:101280006000b800efff37006000b8000000060003
:10129000889fbe000004eb006138e10016003a00b0
:1012a0000100e00008003a00c800de004800dd0050
:1012b000880020000100e00003003a00c800de00c2
:1012c0004800dd00680444008184cf00e9845400b4
:1012d000060034008908dd00f08314008703de0077
:1012e000878070000900dd000904440061021400d9
:1012f0004f04be00000006000300e00008003a00b2
:10130000c811de004811dd00880020000300e00065
:1013100003003a00c811de004811dd0068044400f3
:101320008384cf00e9845400060034008919dd006d
:10133000f08314008713de00878171000911dd003e
:1013400009044400e1021400e9ff370027002000ef
:1013500001f0a70017002000470bde00f60fb200d7
:10136000040032000643e8000a0032004702b300de
:101370000000060001037800f607b20006037000c3
:1013800002003a000703b300000006008702b30022
:101390000000060001037800f607b20006037000a3
:1013a000020032000770a000000006000760a000e5
:1013b000000006000478a300040032000578a300b2
:1013c000030032000168a30001003a000200be00e1
:1013d0000160a000000006008101700027003200bb
:1013e0008002eb0001f8a30003003200600010004f
:1013f000e080180015002000f407200002024200df
:1014000020003400f703200087036000060420005a
:101410000003630002082000000161004700de00b5
:10142000c909dd0000807100c708de000600e00089
:101430000800320087037100060032001000b0007f
:101440000180b0000188a30002003200c108de0064
:101450000402e800f107b200f30f20000320e100ce
:1014600003003d004722dd008100720029003700a3
:1014700001f827000000eb00260037006000b800ec
:1014800000000600680212007f20e1000200340024
:101490006000b8001f0037006011b8007020e10044
:1014a0000400350080017800010078008000eb0026
:1014b000700252000400e00009003400f003120042
:1014c0000719dd008419de000703dd008681710045
:1014d0000400de00070bdd00060070008408de005b
:1014e000f7ff27008383630087037100060028004d
:1014f00003036300070032000700e00003003a0026
:101500006101600002817300020032001000b0002f
:101510000180b0000500a6000000060001f0a00058
:10152000000006004f0ade004709de00f107b200a6
:10153000f20fb2000b003200f207b1000170a00000
:10154000c708dd00c901de00838070004700dd00b0
:101550000400a6000000060060001000e0801800f3
:1015600000000600810f700001003a000000060034
:101570008182cf000500e00010003e008082cf0095
:10158000ee8242007028e1000400390007003e00ae
:10159000800078000000eb000e003700708312001e
:1015a0008600de000500dd000a003700708352006f
:1015b0008600dd000000eb0006003700e2825200ea
:1015c0008508dd00708312000603de00868070004f
:1015d0000500dd007507b0000501ea000400a60063
:1015e0000000060060001000e08018000000060007
:1015f000889fbe008a9fbe00841f78006c00070091
:101600004f00780011003300f0ff2f00838f6c0033
:1016100006003b00040565000a00a700080037002b
:1016200009f0a6001000200008003700820f5400c7
:10163000838f5c00030039001000200001003e0091
:101640000000200009f0a7000000ea004f05be00de
:101650004f04be000000e00000000600889fbe00ae
:101660008a9fbe0000827000040271000482710033
:10167000260032000004be000200be006011b80067
:101680006b092000950220000182cf000a0039007a
:101690000541b1000082cf00070039000541b100cb
:1016a0000982cf00040039000541b1000882cf0053
:1016b000010039000541b10005425200120032001c
:1016c0000a003b0082817100610164008100d10049
:1016d0000080d3008984d3000884d3008b05e80000
:1016e0000442e800f7ff3a0007003700080444000e
:1016f00089844c0000004800818048008b05e90087
:101700000442e900f9ff3a00030007004f05be005c
:101710004f04be00000006008100200061805500db
:101720000b003d000b00200061fe2f000100e100d6
:101730001d00340082817100610164008904d100c0
:101740000884d3000000e800faff3a00710020008e
:1017500061006400030070000200600009003200b4
:1017600061044400e0844c000988a50005003200b3
:101770008b05e8006808e10002003a008904d10006
:101780000884d300f20f20000258e10005003d005c
:10179000c75ddd00f907b200898075000800780098
:1017a000000006000bf827008b0078000000050001
:1017b0000004be0024fc07000003be000405be00b8
:1017c0000200be0020fc0700844f750000000600e8
:020000040000fa
:1017d0000600fa00881f780090050700ba05070088
:1017e00044050700460207005d020700e202070009
:1017f00064cea90064eea900254ea900dc03070011
:1018000001003700000000007c050700e14f500098
:10181000fcff3a007d05070074050700000f780003
:101820001e007800100078008000eb0004fc070028
:101830003233230033052400e5fd070002002000b9
:101840000358240003fd0700d2cc2c00c30424005d
:10185000dffd07000e81e8000089be000e80e80071
:1018600010017800900190000000200081202400e9
:10187000f8fc070002002000030a240007fc070010
:10188000b0818800c18188009e0078006680400099
:10189000100078008000eb00e9fb070032332300e2
:1018a00033052400cafd070002002000035824006d
:1018b000e8fc0700d2cc2c00c3042400c4fd0700c0
:1018c0000e81e8000089be000e80e800100178005b
:1018d000900190000000200081202400ddfc070022
:1018e00002002000030a2400ecfb0700d0818800de
:1018f000e18188009e007800688040001000780038
:101900008000eb00cefb07003233230033052400b8
:10191000affd07000200200003582400cdfc0700a3
:10192000d2cc2c00c3042400a9fd07000e81e800de
:101930000089be000e80e800100178009001900040
:101940000000200081202400c2fc070002002000cb
:10195000030a2400d1fb0700708188008181880080
:101960009e00780064804000100078008000eb004a
:10197000b3fb0700323323003305240094fd070036
:101980000200200003582400b2fc0700d2cc2c0037
:10199000c30424008efd07000e81e8000089be000c
:1019a0000e80e800100178009001900000002000f7
:1019b00081202400a7fc070002002000030a240065
:1019c000b6fb070090818800a18188001e80e80096
:1019d000100078008000eb0099fb070032332300f1
:1019e000330524007afd070002002000035824007c
:1019f00098fc0700d2cc2c00c304240074fd07001f
:101a00000e81e8000089be000e80e8001001780019
:101a10009001900000002000812024008dfc070030
:101a200002002000030a24009cfb0700508188006c
:101a300061818800b0818000c181800018c0b3003e
:101a400002002000031f24003ffb07000000e0000d
:101a500001003c000044eb000804e00002003200fa
:101a6000254ea80001003700254ea900d081800036
:101a7000e181800018c0b30002002000031f240091
:101a800031fb07000000e00001003c000044eb00d7
:101a90000804e0000200320064cea8005aff3700bc
:101aa00064cea90058ff37000000fa0008d0bf003c
:101ab0000080fb00cf80de00120120000300200028
:101ac000820f5000838f580073003e000006010013
:101ad000110037001a003700230037002d003700af
:101ae0002e0037003700370038003700410037003c
:101af000420037004c0037004d00370057003700d8
:101b0000650037006400370063003700620037006b
:101b1000540037005e0037000a30ef000c30ef0051
:101b2000120020006000b8002d0307000001eb0048
:101b30006000b8002a03070010c0b30008f0b70027
:101b40005280800063808000803e200001002000e1
:101b5000800f5100818f59005200360020c0b30021
:101b600008f0b700500037001200200000002000ed
:101b7000811c24001a0307000001eb000000200074
:101b8000811c24001603070030c0b30008f0b70022
:101b900045003700460007004300370012002000d0
:101ba00000002000011924000d0307000001eb00d4
:101bb0006000b8000a03070050c0b30008f0b70087
:101bc000390037003a0007003700370012002000c4
:101bd0006000b800020307000001eb0000002000d5
:101be00001192400fe02070070c0b30008f0b7001e
:101bf0002d0037002e0007002b00370012002000b8
:101c00000000200001172400f50207000001eb008e
:101c10000000200001172c00f102070090c0b30063
:101c200008f0b70020003700210007001e00370031
:101c3000120020000000200001172c00e80207001d
:101c40000001eb000000200001172400e40207005f
:101c5000b0c0b30008f0b70013003700140007004d
:101c600011003700120020000000200001122400a3
:101c7000db0207000001eb0000002000011224003d
:101c8000d702070010c1b30008f0b7000600370004
:101c900007000700040037000870ef000000000094
:101ca00001003700000000000080fa00000006007c
:101cb0000200fa00881f780040c0b300004f78008f
:101cc000b0818000c181800018c0b30002002000f4
:101cd000c32024009afa07000000e000010035004c
:101ce0000044eb000804e0000b003a005081800043
:101cf0006181800018c0b30002002000432324004b
:101d00008ffa07000000e000010035000044eb00fe
:101d10000804e0002400320090818000a18180004e
:101d200018c0b300020020004323240086fa0700f5
:101d30000000e00001003c000044eb000804e0006b
:101d400019003200708180008181800018c0b300ca
:101d500002002000432324007bfa07000000e0007b
:101d600001003c000044eb000804e0000e003200db
:101d7000d0818000e181800018c0b3000200200003
:101d8000c320240070fa07000000e00001003c00be
:101d90000044eb000804e0000300320020c0b30060
:101da000004f78009d003700b0818000c181800025
:101db00018c0b30002002000c320240062fa07000c
:101dc0000000e00001003c000044eb000804e000db
:101dd0002f003200508180006181800018c0b30064
:101de000020020004323240057fa07000000e0000f
:101df00001003c000044eb000804e0002400320035
:101e000090818000a181800018c0b30002002000f2
:101e1000432324004cfa07000000e00001003c00ce
:101e20000044eb000804e0001900320070818000db
:101e30008181800018c0b3000200200043232400e9
:101e40003ffa07000000e000010035000044eb000d
:101e50000804e0000b003a00d0818000e18180009e
:101e600018c0b30002002000c320240034fa070089
:101e70000000e000010035000044eb000804e00031
:101e80000300320010c0b300004f78006300370039
:101e900090818000a181800018c0b3000200200062
:101ea000032a240026fa07000000e00001003500a4
:101eb0000044eb000804e0001f0032009081800025
:101ec000a181800018c0b30002002000c3202400bc
:101ed0001bfa07000000e000010035000044eb00a1
:101ee0000804e0000300320030c0b300004f780067
:101ef0004a00370090818000a181800018c0b300a3
:101f000002002000232824000dfa07000000e00052
:101f1000010035000044eb000804e000030032003b
:101f200040c0b300004f78003c0037000040eb0099
:101f3000004f780039003700b0818000c1818000f7
:101f400018c0b30002002000c3202400fef90700df
:101f50000000e00001003c000044eb000804e00049
:101f60002e003200508180006181800018c0b300d3
:101f70000200200043232400f3f907000000e000e2
:101f800001003c000044eb000804e00023003200a4
:101f900090818000a181800018c0b3000200200061
:101fa00043232400e8f907000000e00001003c00a2
:101fb0000044eb000804e00018003200708180004b
:101fc0008181800018c0b300020020004323240058
:101fd000ddf907000000e00001003c000044eb00d8
:101fe0000804e0000d003200d0818000e181800013
:101ff00018c0b30002002000c3202400d2f907005b
:102000000000e00001003c000044eb000804e00098
:10201000020032000040eb00004f78001e407800c4
:102020000004e00003003a0020c0b30009f0b7004c
:10203000270037001e407800e24f500003003a00ae
:1020400040c0b30009f0b700210037001e407800ff
:10205000e14f500003003a0060c0b30009f0b70040
:102060001b0037001e407800e44f500003003a0088
:1020700000c1b30009f0b700150037001e4078001a
:10208000e34f500012003a00d4818000e5818000c7
:10209000d0818000e181800018c0b3000001be0043
:1020a0000400be00a8f907000000e00001003c00a9
:1020b0000044eb000804e0000300320080c0b300dd
:1020c00009f0b70002003700a0c0b30009f0b70064
:1020d00009d0bf008080fb0008d0bf000080fb005b
:1020e0000000e900808f50000200320009d0bf00dc
:1020f00008f0b7004f0478000080fa0000000600e6
:102100000000fa0013e1a90011e1a9001061a80084
:1021100081088000f0fc2f000080600080088800ab
:102120000a21ef000621ef00202620007008880019
:1021300000a02500600888002142800080ff2f0059
:10214000008060000000a000204288000108a90073
:102150002108a80011e1a8000080fa000000060094
:102160000000fa0005e1a90021088000f0fc2f0022
:10217000008060000040a000200888000421a90021
:1021800080382100100888000068a9002068a80095
:1021900005e1a800000020008124240002000700bf
:1021a0000080fa00000006000400fa00881f780092
:1021b000008fbe0021088000f0fc2f00008060002e
:1021c000200888001e0178009e0190000068290008
:1021d00081c124009ffa070018c0b30002f02f004d
:1021e000f377240058f907000000e00001003c00ec
:1021f0000044eb000804e000540032002108800095
:10220000f0fc2f00008060000040a0002008880043
:102210001e0178009e0190000068290081c1240001
:102220008cfa0700020020000310240089fa07003e
:1022300018c0b30002f02f00f377240042f9070022
:102240000000e00001003c000044eb000804e00056
:102250003200320021088000f0fc2f000080600076
:102260000050a000200888001e0178009e01900008
:102270000068290081c1240076fa070002002000ce
:102280000328240073fa070018c0b30002f02f00df
:10229000f37724002cf907000000e00001003c0067
:1022a0000044eb000804e000100032002108800028
:1022b0000003200001007000200888001e01780043
:1022c0009e0190000068290081c1240061fa070086
:1022d00002002000033824005efa07001cf9070002
:1022e0000000780010088800200037001e017800e8
:1022f0009e0190000068290081c1240055fa070062
:10230000020020000328240052fa070010f90700f9
:102310000000780010088800140037001e017800c3
:102320009e0190000068290081c1240049fa07003d
:10233000020020000310240046fa070004f90700f9
:102340000000780010088800080037001e0178009f
:102350009e0190000068290081c124003dfa070019
:10236000fbf8070000007800100888004f04780090
:102370000080fa00000006000000fa001fe1a9003a
:102380001e21a9000368a9002368a8001fe1a80076
:1023900000002000a1472400020007000080fa008e
:1023a000000006000400fa00881f7800008fbe00bd
:1023b000f1088000f0fc2f0000806000f008880029
:1023c0001e0178009e0190000068290081c1240050
:1023d00020fa070018c0b30002f02f00f3772400a2
:1023e000d9f807000000e00001003c000044eb00c9
:1023f0000804e00054003200f1088000f0fc2f00d7
:10240000008060000040a000f00888001e017800f5
:102410009e0190000068290081c124000dfa070088
:1024200002002000031024000afa070018c0b300bd
:1024300002f02f00f3772400c3f807000000e0004b
:1024400001003c000044eb000804e00032003200d0
:10245000f1088000f0fc2f00008060000050a00018
:10246000f00888001e0178009e0190000068290095
:1024700081c12400f7f9070002002000032824008e
:10248000f4f9070018c0b30002f02f00f37724001e
:10249000adf807000000e00001003c000044eb0044
:1024a0000804e00010003200f10880000003200062
:1024b00001007000f00888001e0178009e01900065
:1024c0000068290081c12400e2f907000200200011
:1024d00003382400dff907009df8070000007800aa
:1024e000d0088800200037001e0178009e0190006f
:1024f0000068290081c12400d6f9070002002000ed
:1025000003282400d3f9070091f8070000007800a1
:10251000d0088800140037001e0178009e0190004a
:102520000068290081c12400caf9070002002000c8
:1025300003102400c7f9070085f8070000007800a1
:10254000d0088800080037001e0178009e01900026
:102550000068290081c12400bef907007cf807004b
:1025600000007800d00888004f0478000080fa004e
:10257000000006000000fa002de1a9002c21a900ae
:1025800005e8a90025e8a8002de1a800000020002a
:10259000812c2400020007000080fa0000000600e1
:1025a0000400fa00881f7800008fbe0061098000d7
:1025b000f0fc2f0000806000600988001e01780098
:1025c0009e0190000068290081c12400a1f9070044
:1025d00018c0b30002f02f00f37724005af8070068
:1025e0000000e00001003c000044eb000804e000b3
:1025f0005400320061098000f0fc2f000080600070
:102600000040a000600988001e0178009e01900033
:102610000068290081c124008ef907000200200013
:10262000031024008bf9070018c0b30002f02f003c
:10263000f377240044f807000000e00001003c00ac
:102640000044eb000804e000320032006109800021
:10265000f0fc2f00008060000050a000600988009e
:102660001e0178009e0190000068290081c12400ad
:1026700078f90700020020000328240075f90700fc
:1026800018c0b30002f02f00f37724002ef80700e3
:102690000000e00001003c000044eb000804e00002
:1026a000100032006109800000032000010070006a
:1026b000600988001e0178009e01900000682900d2
:1026c00081c1240063f907000200200003382400c0
:1026d00060f907001ef80700000078004009880034
:1026e000200037001e0178009e019000006829003c
:1026f00081c1240057f907000200200003282400ac
:1027000054f9070012f8070000007800400988001b
:10271000140037001e0178009e0190000068290017
:1027200081c124004bf9070002002000031024009f
:1027300048f9070006f80700000078004009880003
:10274000080037001e0178009e01900000682900f3
:1027500081c124003ff90700fdf707000000780061
:10276000400988004f0478000080fa00000006004d
:102770000000fa001160800080ff2f0000806000e0
:102780001060880000fa20002060880023aca800b8
:10279000238ca80011618000f03f2f0000806000b2
:1027a00000a0a00010618800300020002061880097
:1027b000c3aca800c38ca80011668000f03f2f00b6
:1027c0000080600000a0a00010668800300020009b
:1027d0002066880001eca8000080fa0000000600d6
:1027e0000600fa00008fbe0064004700020878006f
:1027f00064004700100078000000e00005003a0087
:102800001e0178009e019000d2808800e38088003d
:10281000080037006400470010007800e10f500006
:1028200004003a001e0178009e0190001281880089
:10283000238188000080fa00000006000000fa00f2
:10284000889fbe0034818000458180001081800017
:102850002181800018c0b3000001be000400be004a
:10286000b7f707000000e000010035000044eb006e
:102870000804e0000d0032001881800029818000ea
:1028800034818000458180008080800091808000bc
:102890000001be000400be0009f807000801be00e8
:1028a000b7000700308188004181880034818000b2
:1028b00045818000108180002181800018c0b30014
:1028c0000001be000400be009ff707000000e0000a
:1028d00001003c000044eb000804e0000d00320061
:1028e000188180002981800034818000458180002a
:1028f00080808000918080000001be000400be0046
:10290000e6f707000801be00830007003081880059
:1029100041818800308180004181800018c0b3006f
:102920006011b80088f707000000e00001003c00db
:102930000044eb000804e00004003200c3eca900ee
:1029400024cea800c3cca80003003700c3cca90044
:1029500024eea800c3eca8003081800041818000f3
:1029600057000700020020000322240098f9070006
:1029700098f707000000780030668800f480800037
:1029800005818000d0808000e180800018c0b30005
:102990000001be000400be0069f707000000e0006f
:1029a000010035000044eb000804e0000d00320097
:1029b000d8808000e9808000f4808000058180005c
:1029c00080808000918080000001be000400be0075
:1029d000bbf707000801be0069000700f08088000f
:1029e00001818800f480800005818000d080800013
:1029f000e180800018c0b3000001be000400be00ea
:102a000051f707000000e00001003c000044eb002b
:102a10000804e0000d003200d8808000e9808000ca
:102a2000f48080000581800080808000918080009b
:102a30000001be000400be0098f707000801be00b8
:102a400035000700f080880001818800f080800058
:102a50000181800018c0b3006011b8003af7070088
:102a60000000e00001003c000044eb000804e0002e
:102a70000400320023cca90015eea80023eca80026
:102a80000300370023eca90015cea80023cca80032
:102a9000f080800001818000090007000200200012
:102aa000032224004af907004af7070000007800d3
:102ab000306188004f04be000080fa00000006006c
:102ac0000400fa00881f7800008fbe0018c0b30011
:102ad0006011b8001e0078009e0090001af70700f1
:102ae0000000e00001003d000044eb000804e000ad
:102af000030032001e0078009e00900003003700a3
:102b00001e0078009e00900001f0a2004f047800a3
:102b10000080fa00000006000800fa00881f780014
:102b2000008fbe00640047000288be0018c0b300da
:102b30006400470010017800900190001e007800aa
:102b40009e00900000f707000000e00001003c003c
:102b50000044eb000804e000030032001e0078008f
:102b60009e00900003003700640047009000900032
:102b7000100078004f0478000080fa000000060082
:102b80000800fa00881f7800008fbe00640047002c
:102b90000288be0018c0b30064004700100178002e
:102ba000900190001e0078009e009000e4f607005f
:102bb0000000e000010035000044eb000804e000e4
:102bc000030032001e0078009e00900003003700d2
:102bd0006400470090009000100078004f047800d7
:102be0000080fa00000006000c00fa00881f780040
:102bf000008fbe00640047000288be0068004700e6
:102c00000488be0018c0b3006800470010017800b7
:102c1000900190001e0078009e009000caf6070008
:102c20000000e00001003c000044eb000804e0006c
:102c30000400320068004700301f78002017780039
:102c40000f00370018c0b30064004700100178007f
:102c5000900190001e0078009e009000b8f60700da
:102c60000000e000010035000044eb000804e00033
:102c70000300320064004700301f780020177800fe
:102c80001e0078009e0090004f0478000080fa003b
:102c9000000006000400fa00008fbe00b2fd200014
:102ca000930424001e0078009e009000e9f70700be
:102cb0000200200043332400c5f807000080fa001a
:102cc000000006000400fa00008fbe00b2fd2000e4
:102cd000930424001e0078009e009000bcf80700ba
:102ce0000200200043332400daf707000080fa00d6
:102cf000000006000000fa0021e3a9002143a8001b
:102d000001198000f0cf2f000080600000198800ba
:102d10002043a90001198000000e2000010070006e
:102d20000019880011198000f0ff21000080600068
:102d3000101988002343a80011198000f0cf2f003c
:102d400000806000101988001119800030f82f00f1
:102d5000008060000040a000101988002203a90034
:102d60002223a90025e3a900f0c0b30024e3b700a3
:102d700021198000f00f2e008080600000f02000fc
:102d800001007000201988003303a9002e0ea8004e
:102d90002f6ea8006f2ea8001e2ea8004feea800d0
:102da00030c3a8003163a8002e03a80031e3a800b7
:102db0003063a8004119800000fc2f0000806000f3
:102dc0004019880028e3a90001a8a90021a8a800ab
:102dd00021e3a8000080fa00000006000000fa00cd
:102de0002023a8000080fa00000006000000fa007e
:102df000e00321000080fa00000006000000fa0055
:102e000015d0bf000080fa00000006000000fa00a4
:102e10001570ef000080fa00000006000000fa00c4
:102e2000f0032000303a8800213a8000f0f32f00b0
:102e300000806000203a8800213a800000fe2f00c8
:102e4000008060000000a000203a880012002000ee
:102e500080072000a10920003374200080497800f9
:102e60008149780082497800103a8000000178009a
:102e70000200a000600420007105200023742000df
:102e8000804978008149780082497800000000007c
:102e9000113a8000000027008080600000002100bf
:102ea000808f5000faff3a0000000000113a8000c5
:102eb00000022000008060000000e000fbff320004
:102ec0000080fa00000006000000fa000e2eef005d
:102ed0001e2eef002e2eef003e2eef004e2eef00a6
:102ee0005e2eef006e2eef00214ea90060cea900ed
:102ef00060eea90011cea90011eea90020cea90014
:102f000020eea900103a8000000178000260a100c4
:102f1000600420007105200023742000804978009f
:102f20008149780082497800103a800000017800d9
:102f30000260a000600420007105200023742000be
:102f40008049780081497800824978000080fa0041
:042f50000000060077
:020000040000fa
:102f5400001000000a000000800000000a100000b9
:102f64000600000080000000181000002600000089
:102f74008000000010100000040000008200000027
:102f840000000000410000003e1000000a000000a4
:102f94008000000014100000020000008000000007
:102fa4001610000002000000800000000000000075
:020000040000fa
:02000004000af0
:04afe000cfff00009f
:020000040000fa
:02000004000af0
:04afe400f7ff000073
:020000040000fa
:02000004000af0
:04afe8007fff0000e7
:020000040000fa
:02000004000af0
:04afec005fff000003
:020000040000fa
:02000004000af0
:04aff00038ff000026
:020000040000fa
:02000004000af0
:04aff400ffffff005c
:00000001FF
